:020000040800F2
:10000000E01701206902000871020008730200086D
:10001000750200087702000879020008000000005D
:100020000000000000000000000000007B0200084B
:100030007D020008000000007F0200088102000825
:10004000830200088302000883020008830200087C
:10005000830200088302000883020008830200086C
:10006000830200088302000883020008830200085C
:10007000830200088302000883020008830200084C
:100080008302000883020008DF220008512A0008CA
:10009000672A0008DB2A00088302000883020008A0
:1000A000992C00088302000883020008FB1C00084A
:1000B000C11B0008671F00087320000883020008A6
:1000C00083020008830200088302000883020008FC
:1000D0008302000883020008830200082504000848
:1000E00083020008830200088302000883020008DC
:1000F00083020008830200087F1E000883020008B4
:100100008302000883020008AF2100088302000870
:100110008302000883020008830200085B260008AF
:10012000830200088302000883020008830200089B
:10013000830200088302000883020008830200088B
:10014000830200088302000883020008830200087B
:10015000830200088302000883020008830200086B
:10016000830200088302000883020008830200085B
:10017000830200088302000883020008830200084B
:10018000830200088302000800F002F800F05CF827
:100190000AA090E8000C82448344AAF10107DA45E2
:1001A00001D100F051F8AFF2090EBAE80F0013F0D8
:1001B000010F18BFFB1A43F001031847606A0000E3
:1001C000806A00000A444FF0000C10F8013B13F065
:1001D000070408BF10F8014B1D1108BF10F8015BA0
:1001E000641E05D010F8016B641E01F8016BF9D193
:1001F00013F0080F1EBF10F8014BAD1C0C1B09D1EA
:100200006D1E58BF01F801CBFAD505E014F8016B5B
:1002100001F8016B6D1EF9D59142D6D370470000ED
:100220000023002400250026103A28BF78C1FBD8FF
:10023000520728BF30C148BF0B6070471FB506F09A
:10024000E7FC1FBD10B510BD06F0F9F91146FFF728
:10025000F5FF01F05EF806F017FA03B4FFF7F2FFBE
:1002600003BC06F01FFA0000094880470948004710
:10027000FEE7FEE7FEE7FEE7FEE7FEE7FEE7FEE756
:10028000FEE7FEE704480549054A064B70470000B3
:100290000965000889010008E0110120E01701202C
:1002A000E0130120E01301206049088070475F4897
:1002B0000088704710B55D480830008840F00400A1
:1002C0005A4908310880012240F225515748001F41
:1002D00006F027F810BD10B554480830008820F00B
:1002E0000400524908310880002240F225514F484D
:1002F000001F06F016F810BD10B54C4808300088F5
:1003000040F00800494908310880012240F2266186
:100310004648001F06F005F810BD10B543480830E8
:10032000008820F00800414908310880002240F28E
:1003300026613E48001F05F0F4FF10BD10B50024F3
:1003400040F225513948001F06F026F808B14FF455
:10035000005440F226613548001F06F01DF808B130
:1003600044F40044204610BD10B50121042004F0DF
:10037000A1FE07220A212E4804F089FC00202D4905
:1003800088710120C87102200871400208600220B3
:100390004871274804F0F0FB0121042004F08AFE94
:1003A00007220B21224804F072FC002021498871A9
:1003B0000120C87102200871800208600220487183
:1003C0001B4804F0D9FB0121880404F0BAFE4FF465
:1003D000E1301949086000208880C8800881888140
:1003E0000C2048811148001F05F05DFE01210F48D7
:1003F000001F05F0E0FE012240F225510B48001FCE
:1004000005F08FFF27200D49087000204870887084
:100410000120C870084603F094FB10BD10B5FFF72B
:10042000A3FF10BD10B503F075FB10BD04480040DC
:1004300000080240BC02002038050020B80200205D
:1004400010B5FE480078002835D0FD480088FD49E9
:100450000880FD480078FA4909880844FB4908806B
:10046000F9484078F64909880844F9490880F6486F
:100470008078F34909880844F6490880F248C07832
:10048000EF4909880844F4490880EF480079EC49AD
:1004900009880844F1490880F1480078F14908705A
:1004A000F1490870F1490870F1490870F149087084
:1004B000F149087029E0E3480088F92802DDF920B5
:1004C000E0490880E1480088F92802DDF920DF4989
:1004D0000880E0480088F92802DDF920DD4908801D
:1004E000DB480088F92802DDF920D9490880DA487C
:1004F0000088F92802DDF920D7490880D74800880C
:10050000F92802DDF920D5490880DA480078012869
:1005100005D147F260004FF0804108830FE0D548D5
:10052000007820B944F240000106088307E0D14872
:100530000078022803D145F2400001060883CE4826
:100540000078012804D147F26000CC4908830FE00D
:10055000C948007820B944F24000C849088307E040
:10056000C5480078022803D145F24000C3490883FA
:10057000BF480078012804D147F26000C0490880D4
:100580000FE0BB48007820B944F24000BC49088025
:1005900007E0B7480078022803D145F24000B84987
:1005A0000880B2480078012804D147F26000B549BC
:1005B00008800FE0AD48007820B944F24000B1490E
:1005C000088007E0A9480078022803D145F24000DE
:1005D000AC490880A4480078012804D147F26000A3
:1005E000A94908800FE0A048007820B944F24000F3
:1005F000A549088007E09C480078022803D145F20D
:100600004000A149088097480078012804D147F2AA
:1006100060009E4908800FE09248007820B944F2BB
:1006200040009A49088007E08E480078022803D1EC
:1006300045F2400095490880824801888F4805F0BE
:1006400014F980480088924A128881188B4805F076
:100650000EF97E4801884FF0804005F006F97B488E
:1006600000888B4A128881184FF0804005F0FFF80F
:10067000784801888248183805F0F7F875480088EE
:10068000834A128881187E48183805F0F0F87048BF
:1006900001887C48183805F0E8F86D4800887C4AE5
:1006A000128881187748183805F0E1F86A480188FF
:1006B0007548183805F0D9F867480088744A1288D8
:1006C00081187148183805F0D2F8644801886F48DD
:1006D000183805F0CAF8614800886D4A12888118F8
:1006E0006A48183805F0C3F810BD6A4890ED000A52
:1006F000B8EEC00ADFED680A80EE201A674880ED88
:10070000001A6748008800EE100AB8EE400ADFEDD4
:10071000650A80EE201A9FED640A21EE000A634804
:1007200080ED000A01206249087004E0604800780A
:10073000401C5F4908705F485D49097800EB810003
:1007400090ED000A5548D0ED000AB4EEE00AF1EE53
:1007500010FAEBD3564800785749087008460078DD
:10076000401E544901EB800090ED000A534880ED93
:10077000000A08465049097800EB810090ED000A14
:100780004F4880ED000A01204949087004E04848BC
:100790000078401C464908704548007800EB40004E
:1007A000444901EB001090ED000A4048D0ED000AEA
:1007B000B4EEE00AF1EE10FAE9D33D480078414981
:1007C000087008460078401E00EB4000394901EBF4
:1007D000001090ED000A3C4880ED000A394800788E
:1007E00000EB400001EB001090ED000A374880ED6F
:1007F000000A34480078401E00EB400001EB001175
:100800002D480078401E01EB800090ED000A304832
:1008100080ED000A2B480078401E00EB400025497F
:1008200001EB00102449097800EB810090ED000AEB
:10083000284880ED000A234800784DE0C6020020D9
:10084000E0020020D4020020EC020020D6020020AA
:10085000DA020020D8020020DC020020DE020020A4
:10086000CF020020CE020020CD020020CC020020CA
:10087000CB020020CA020020C90200200000014073
:100880001804004018080040180C004018040140EB
:10089000D202002024030020000080476C030020C7
:1008A000700200207CF0414500401C46740300208B
:1008B000780300200000002079030020400200207F
:1008C000440200207A030020480200204C0200204D
:1008D000500200205402002000EB4000F94901EBD7
:1008E0000011F9480078401E01EB800090ED000AED
:1008F000F64880ED000AF648007800EB4000F14928
:1009000001EB0010F049097800EB810090ED000A3E
:10091000F04880ED000AF04890ED000AEF48D0ED75
:10092000000A30EE600AE948D0ED000AEC4890ED8C
:10093000001A70EEC10A20EE200AEA48D0ED000A43
:10094000E64890ED001A70EEC10A80EE201AE448E5
:1009500090ED000A31EE000AE34880ED000ADE481F
:1009600090ED000ADD48D0ED000A30EE600AD9486B
:10097000D0ED000ADD4890ED001A70EEC10A20EEBD
:10098000200AD848D0ED000AD44890ED001A30EE85
:10099000C11AC0EE010AD54890ED000A30EE800A77
:1009A000D34880ED000A90ED000ACF48D0ED000A50
:1009B00030EE600ACF48D0ED000ACF4890ED001A23
:1009C00070EEC10A20EE200ACC48D0ED000ACA48D9
:1009D00090ED001A70EEC10A80EE201AC24890ED28
:1009E000000A31EE000AC64880ED000A90ED000AC8
:1009F0005FED530A80EE201A9FEDC20A21EE000A35
:100A0000BCEEC00A10EE100A80B2BF49086008466A
:100A1000006840F65221884203DD0846BB49088041
:100A200003E0B9480088B9490880704770B50246AC
:100A300011B94FF0FF3070BDB2FBF1F303FB11228F
:100A40001404B4FBF1F505EB03463046F3E7014629
:100A5000AF48B1F5004F02D20904AE4BC01AB1F550
:100A6000000F02D20902AC4BC01AB1F1006F02D2E2
:100A70000901AA4BC01AB1F1005F02D28900A84B4C
:100A8000C01AB1F1804F03D24900A0F5314072384D
:100A900001EB510202F000431BB91146A0F5CE4014
:100AA000CD3801EB910202F000431BB91146A0F5CD
:100AB0006450203801EBD10202F000431BB911460B
:100AC000A0F5F050273801EB111202F0004313B9E2
:100AD0001146A0F6857001EB511202F0004313B9E4
:100AE0001146A0F2E17001EB911202F0004313B93C
:100AF0001146A0F57E7001EBD11202F0004313B94C
:100B00001146A0F5FF70C1F10041A0EBD130704754
:100B100084480088A8BB84480088844909888842A2
:100B20000BDA8348006840F00400814908607E4881
:100B30000088401C7C49088097E07C4800887D49FB
:100B4000098808447849098888420BDD784800689C
:100B500020F004007649086073480088401C724900
:100B6000088082E07248006840F004007049086024
:100B70006C480088401C6B49088000206A49088046
:100B800073E0FFE767480088012835D16648008890
:100B90006649098888420BDA6548006840F004001D
:100BA0006349086060480088401C5F4908805CE039
:100BB0005E4800885F49098808445B490988884283
:100BC0000BDD5B48006820F0040059490860564876
:100BD0000088401C5449088047E05548006840F0B0
:100BE0000400534908604F480088401C4D49088064
:100BF00000204D49088038E04A480088022834D156
:100C0000494800884949098888420BDA4848006801
:100C100040F004004649086043480088401C4249AF
:100C2000088022E0414800884249098808443E493A
:100C3000098888420BDD3E48006820F004003C49EA
:100C4000086039480088401C374908800DE0384862
:100C5000006840F004003649086032480088401CB3
:100C6000304908800020304908807047052815D297
:100C7000DFE800F0031566788A002F490978052916
:100C800006DA2E49096841F400412C4A116005E05A
:100C90002A49096821F40041284A116086E0264962
:100CA0000978052906DA2549096841F40061234AD3
:100CB000116005E02149096821F400611F4A1160B3
:100CC00074E000000000002079030020580200209A
:100CD0007A0300205C0200207403002048020020F8
:100CE000500200204C02002060020020540200202C
:100CF000640200206C030020400200204402002017
:100D00007003002000202545500300207C020020B5
:100D1000AF650A0021170B00918B0500C8C50200C2
:100D2000E462010038030020320300203403002075
:100D30001408024036030020FA0200201404024086
:100D4000FE490978052906DAFD49096841F4805110
:100D5000FB4A116005E0FA49096821F48051F84A1C
:100D6000116023E0F5490978052906DAF449096894
:100D700041F40051F24A116005E0F149096821F49B
:100D80000051EF4A116011E0EC490978052906DAB3
:100D9000EB49096841F48041E94A116005E0E849FE
:100DA000096821F48041E64A116000BF00BF704726
:100DB00010B5E4480078B8B1E348006800F01000CE
:100DC00018B10120E149087002E00020DF490870F5
:100DD000DD48006800F0200018B10020DC490870F0
:100DE00002E00120DA490870DA480088DA49098807
:100DF000884202DC0020D7490880D6480088F928BC
:100E000002DDF920D3490880D4480088D4490988F4
:100E1000884206DDD348007840F01000D1490870C0
:100E200005E0D048007820F01000CE490870C8488E
:100E3000007818B10020CC49088008E0CA48008832
:100E4000642804DCC8480088401CC7490880C6489C
:100E5000008818B1C4480088642803DB0120C34916
:100E6000088002E00020C1490880C148B0F90000B4
:100E7000C049B1F90010884213DAB8480088BE4969
:100E8000098888420DDDB948008850B1B54800781E
:100E900040F08000B3490870B0480088B749088026
:100EA00005E0B048007820F08000AE490870B448F2
:100EB0000088B4490988884206DDAA48007840F0D5
:100EC0000400A849087005E0A648007820F0040056
:100ED000A44908709D48007830B9A248007840F0D5
:100EE0004000A049087005E09E48007820F04000CE
:100EF0009C490870A2480088A3490988884209DAF9
:100F00009248007830B19748007840F00800954941
:100F1000087005E09348007820F0080091490870B7
:100F20009A480078C0B19A4800689A49096888428E
:100F300005D89748006898490968884206D28948C8
:100F4000007840F001008749087005E08548007886
:100F500020F00100834908709048007898B17D48DE
:100F60000088F9280FDB8E4800887C490988401AE0
:100F70008C490988884206DD7A48007840F00200F2
:100F80007849087005E07748007820F0020075493C
:100F9000087074480078C0B18348007850B10120CF
:100FA0008249087068481038006840F4802066491B
:100FB000103908603C207E4908806A4800787D49E5
:100FC000087001207C49087010E05F48006800F05C
:100FD000080030B101207949087002207349087077
:100FE00004E0002075490870704908707148007865
:100FF0000007400C524908606E48007800F010006D
:1010000010B10120FFF732FE6A48007800F080003E
:1010100010B10220FFF72AFE6648007800F0200099
:1010200010B10320FFF722FE6248007800F0400074
:1010300010B10420FFF71AFE10BD10B5604800681B
:1010400000F00400002877D101205E4908800020CC
:10105000554908705C4908705C4908704F49087030
:101060005B48B0F9000005280FDA5A480088FFF7FE
:10107000FDFD58480088401C5649088008460088F5
:1010800004281CDD0020088019E02D48006840F489
:1010900000402B4908600846006840F40060086082
:1010A0000846006840F4805008600846006840F434
:1010B000005008600846006840F4804008602248FC
:1010C000006800F0100018B101202049087002E00B
:1010D00000201E4908704048008840490880404967
:1010E00008804049088040490880404908804049BC
:1010F00008804048007800F001003F4908703D48F2
:101100000078C0F340003D4908703A480078C0F3C9
:1011100080003B49087037480078C0F3C000394967
:10112000087034480078C0F300103749087031481F
:101130000078C0F3401069E06BE00000FA02002084
:10114000140402406A02002010080240F402002049
:10115000D0020020E0020020D20200207A0200200B
:10116000E2020020980200209E030020A00300203D
:10117000F4030020060300208402002076020020F1
:1011800080020020E6020020E402002097020020F6
:101190000C030020180300201403002094020020F8
:1011A0007C020020EA020020C60200209A020020F1
:1011B000FE02002099020020FC020020FB02002019
:1011C000100C02408E040020C7020020960200206E
:1011D0008C040020A203002092040020DE020020E4
:1011E000DC020020DA020020D8020020D602002013
:1011F000D402002090040020C9020020CA0200206E
:10120000CB020020CC020020CD020020F84908705B
:1012100007E00020F74908800120F7490870F749E6
:10122000087010BD10B50121022003F043FF00201B
:10123000F34988710120C87108714FF6F800086001
:1012400000204871EF4803F097FC0020ED4914316D
:1012500008600121084603F02DFF0020E84988714D
:101260000120C87108714FF40340086000204871E4
:10127000E54803F081FC0121042003F01BFF00205E
:10128000DF4988710120C8710871042008600020BE
:101290004871DE4803F070FC0121042003F00AFFCE
:1012A0000020D74988710120C871002008713820BA
:1012B000086000204871D54803F05EFC0121084613
:1012C00003F0F8FE0020CE498871C871087108202B
:1012D000086000204871CC4803F04EFC0121082032
:1012E00003F0E8FE0020C64988710120C871002083
:1012F00008710420086000204871C54803F03CFCD8
:10130000C2481430006820F08000C04914310860E1
:1013100010BD05F0F9F805F023F9BE4803F0F9FD1A
:10132000FFF780FFB948006820F48020B7490860C3
:1013300000F058FC00F0C8FB00F028FE00F0B2FD01
:1013400000F038FD00F0D2FE01F05AF901F050FC37
:1013500000BF0020B0494862552081074862AA209A
:10136000AE490860FF20AE49086001220821AC4860
:10137000243804F02DFDA848008840F00100A6495B
:1013800008808803008840F0010089030880A34892
:101390002438008840F00100A04924390880A04882
:1013A0002438008840F001009D492439088000BF9E
:1013B00000F010FF02F074FA94481430006820F036
:1013C000040092491431086055209649088062B69D
:1013D000002080F3108800BF062093490880012078
:1013E00085490870854908700020904908700120DF
:1013F0008F49087000208F4908808F4908808F49E5
:1014000008808F4908808F4908808F49088000F044
:10141000CFFA6AE07748008828B97D481030006824
:1014200000F0040008B9FFF708FE7348007808B11F
:10143000FFF7BEFC7D48007810B1FFF769FB0CE0B8
:1014400072481430006820F00400704914310860BC
:1014500000207E4908807E49088000F069FA7D48B6
:10146000007850B17C48008801B27C48008800B206
:1014700000F058FA7A4908800AE07A48007838B1D2
:10148000794800884FF6FF7101EA400074490880EE
:101490004FF4DA40754908807548008848B94FF420
:1014A000DA416F48008800B200F03CFA71490880C8
:1014B00001E0FFF71AF9FEF7C3FF4E480088A0B914
:1014C00000BF6D4800786D49097888420BDB002029
:1014D000694908706A48007828B101F011FA694931
:1014E000694802F05DFF00BF00BF93E770B5034697
:1014F0000C46D817191940EBE4726FF000454FF015
:1015000000006D1A904102DA6FF0004070BD5F4D2F
:101510004D1B72F1FF3002DA4FF00040F6E708464B
:10152000F4E72DE9F041074688461446A7EB08008A
:101530005749086020890004564908606089000402
:101540005549086094F90C005449088094F90C003E
:10155000002809DBB4F900004D4909684843217BA4
:1015600008414F49086027E0B4F90000484909687C
:1015700048434B49086094F90C00002802DD94F9B7
:101580000C0002E094F90C00404206466FF0004067
:1015900040FA06F542480068A84201DD404805606F
:1015A0006D423F480068A84201DA3D4805603C486A
:1015B0000068B0403A49086094F90D00002809DB42
:1015C000B4F90200324909684843617B0841354952
:1015D000086083E0B4F902002D49096848433149A5
:1015E000086094F90D0000285EDD94F90D005EE0BE
:1015F000CE0200208E040020C6020020C702002078
:10160000BC0200200004024000000240000802402A
:10161000000C024028050020000001402404004086
:101620002408004030030020D2020020F4020020F1
:10163000CF020020DE020020DC020020DA020020BF
:10164000D8020020D6020020D4020020320300205D
:101650003803002096020020A20400207E02002011
:10166000700200209C020020720200206C02002008
:10167000880200207C02002068020020690200200D
:101680006A020020F8070120006400400100008089
:101690007C030020880300208C0300209803002096
:1016A000840300208003002094F90D004042064688
:1016B0006FF0004040FA06F5D4480068A84201DD0A
:1016C000D24805606D42D1480068A84201DACF488F
:1016D0000560CE480068B040CC490860CB496068DE
:1016E0000968FFF703FF6060C949606809688842BC
:1016F00002DDC74800686060C649606809688842C2
:1017000002DAC44800686060C34960680968FFF78E
:10171000EDFEC249086008460068BD490968884274
:1017200003DDBB480068BD490860BC480068B94992
:101730000968884203DAB7480068B8490860B748C2
:1017400000680014BDE8F08110B5B548008840007D
:10175000C0F5807004B2B348007848B9B248007848
:1017600030B1B248007818B1B1480078B14908707A
:10177000AC48007828B1AC48007810B10020AD49E1
:101780000870AD480088AD49098888420BDAAA483C
:101790000088C0EBC030A949098890FBF1F000B285
:1017A000A749088103E047F6FF70A549088100209A
:1017B000A34948810A46A348008801B2A24800888C
:1017C00000B2FFF7AEFEA14908809A4800780028D1
:1017D00077D09F480078A0B900BF11209D490884A8
:1017E000810708849C4908809C4908809C4908809E
:1017F0009C4908809C480088401C9B49088000BF89
:1018000000BF9248008801B201FB04F0C0F30E0251
:10181000964B1A80C213824800881044944908806D
:101820001846B0F9000041F25451884203DD01200E
:101830009049087002E000208E4908708B48B0F98A
:10184000000042F6A821884203DD01208949487042
:1018500002E00020874948708448B0F9000043F650
:10186000FC71884203DD01208249887002E000207B
:10187000804988707D48B0F9000045F25051884297
:1018800003DD01207B49C87002E000207949C8705F
:101890007648B0F9000046F6A421884203DD012015
:1018A0007449087102E000207249087172480068AA
:1018B00040F400407049086000207049087027E03B
:1018C000FFE759480078D0B1002069490880604896
:1018D0000078A0B100BF00205E4908848903088415
:1018E0005D4908805D4908805D4908805D49088040
:1018F00063480088401C6249088000BF00BF002088
:101900004F4948605C48006820F400405A4908602C
:10191000484800784E4908705A480078401C594998
:10192000087010BD024602FB01F0C01300B2704700
:1019300010B52DED048B54480088962835DD5248AB
:10194000008804F0CBFF9FED510B53EC102B05F0FA
:1019500069F804F07FFF044621464B480088FFF7F2
:1019600065F84C49086008460068FFF770F84A4976
:1019700008600846006842F2C7614843C0134749FF
:101980000860084600684649084446490860084619
:1019900001684FF08060FFF749F843490860084646
:1019A00000684249401A42490860BDEC048B10BDF2
:1019B00010B54048006900F0080018B100201B492C
:1019C000087002E0012019490870184800783A4967
:1019D000087000F0E4FE1548007848B137480088E8
:1019E000401E00B235490880354800782549087006
:1019F00000203449088000BF3248B0F900002F4968
:101A0000B1F900108842F7DB10BD00008003002010
:101A1000880300208C030020840300209003002012
:101A2000D20200209A020020C70200206A02002091
:101A3000D002002094020020E80200208002002052
:101A4000A00200207A0200207C0200207402002004
:101A500095020020000001402004004020080040C2
:101A6000200C0040200401409C0300208A0200203A
:101A7000E0020020EC020020140402407B0300205E
:101A80009A03002068020020FA0300203EF8E08359
:101A90000F3EA840080300201C0300202003002064
:101AA000AD6F0300100300200C03002000001101A3
:101AB00024030020000002409602002004030020BE
:101AC000690200200203002010B50121022003F06A
:101AD000F1FA0121084603F0EDFA4FF400403B49CA
:101AE0000860022008710320487100208871C871C5
:101AF000374803F041F80820344908600220087193
:101B00000320487100208871C871324803F034F80E
:101B100001220F212E4803F0BAF8012203212D489B
:101B200003F0B5F80121084603F00BFB4FF4807079
:101B30002949486001200880002008814020488011
:101B4000000603F0A4FC602024490880012048809E
:101B50000020886088814FF480700882800503F03F
:101B60002BFD00201D4988814FF0804003F05DFD72
:101B700000201B49088048808880C88008814FF475
:101B800000504881002088814FF0804004F0E0F848
:101B900000214FF0804004F00FF900214FF0804009
:101BA00003F063FE00214FF0804003F060FE5521FA
:101BB000880703F05EFE0121880704F0E2F810BDFB
:101BC00010B50821C80604F02BF910BDBC02002096
:101BD0000000024000040240480500205405002097
:101BE0007205002010B50121084603F063FA4FF496
:101BF000807062490860022008710320487100204B
:101C00008871C8715E4802F0B7FF4FF400705B49FD
:101C10000860022008710320487100208871C87193
:101C2000574802F0A9FF01220821554803F02FF878
:101C300001220921524803F02AF80121084603F045
:101C400091FA4FF480704F494860032008800020CB
:101C50000881402048804C4803F019FC60204B4923
:101C60000880012048800020886088814FF48070BF
:101C70000882454803F0A0FC00204449888142487E
:101C800003F0D3FC00204249088048808880C88047
:101C900008814FF400504881002088813A4804F0C0
:101CA00057F80021384804F087F80021364803F03F
:101CB000DCFD0021344803F0DAFD0021324803F056
:101CC000D8FD0121304804F05CF8012208212E489B
:101CD00004F07EF81B2000280DDB00BF00BF00F0E1
:101CE0001F02012191404209920002F1E022C2F854
:101CF000001100BF00BF00BF10BD10B50821224871
:101D000004F08EF823480068401C22490860084609
:101D1000008800F4005018B100201F49088002E03C
:101D200080201D4908801B48007800F0010018B38E
:101D30001A480078D8B1002018490870184800786F
:101D4000184908700020164908700423012209214F
:101D5000154801F0F2FF1448806840F080401249B5
:101D6000886012480068401C1049086004E0104870
:101D70000068401C0E49086010BD0000BC02002035
:101D8000000002408C050020000001409805002062
:101D9000B6050020A4030020720200203E040020AB
:101DA0003C0400203D04002000200140AC03002042
:101DB000A803002010B50121042003F07BF9C02006
:101DC00032490860022008710320487100208871A0
:101DD000C8712F4802F0D0FE032206212C4802F0E1
:101DE00056FF032207212A4802F051FF0121022059
:101DF00003F0B8F94FF4807026494860032008804A
:101E00000020088140204880234803F040FB6020E8
:101E100022490880012048800020886088814FF492
:101E2000807008821C4803F0C7FB00201B49888192
:101E3000194803F0FAFB002019490880488088807F
:101E4000C88008814FF400504881002088811248E2
:101E500003F07EFF0021104803F0AEFF00210E4882
:101E600003F003FD00210C4803F001FD55210A4851
:101E700003F0FFFC0121084803F083FF10BD10B5FB
:101E80000821054803F0CCFF10BD0000BC02002073
:101E900000080240D005002000040140DC050020BD
:101EA000FA05002010B50121022003F003F93020CB
:101EB00030490860022008710320487100208871B1
:101EC000C8712D4802F058FE022204212A4802F06F
:101ED000DEFE02220521284802F0D9FE012102205F
:101EE00003F02FF94FF480702449486001200880E6
:101EF0000020088140204880214803F0C8FA602073
:101F000020490880012048800020886088814FF4A3
:101F1000807008821A4803F04FFB0020194988811D
:101F2000174803F082FB002017490880488088800A
:101F3000C88008814FF400504881002088811048F3
:101F400003F006FF00210E4803F08FFC00210C482F
:101F500003F08DFC55210A4803F08BFC0121084851
:101F600003F00FFF10BD10B50821054803F058FF1E
:101F700010BD0000BC020020000402400806002042
:101F800000040040140600203206002010B5012194
:101F9000022003F08FF8C0204B490860022008712E
:101FA0000320487100208871C871484802F0E4FDA0
:101FB00002220621454802F06AFE02220721434818
:101FC00002F065FE0121042003F0BBF84FF480709D
:101FD0003F49486001200880002008814020488057
:101FE0003C4803F054FA60203B49088001204880B7
:101FF0000020886088814FF480700882354803F0A3
:10200000DBFA002034498881324803F00EFB0020BF
:102010003249088048808880C88008814FF4005089
:102020004881002088812B4803F092FE0021294836
:1020300003F01BFC0021274803F019FC0021254870
:1020400003F017FC0121234803F09BFE1E2000280B
:102050000DDB00BF00BF00F01F02012191404209CB
:10206000920002F1E022C2F8001100BF00BF00BFE1
:1020700010BD10B50821174803F0D2FE18480068BB
:102080001849088013482430006855301449086006
:10209000104824300068AA301349086010482438DA
:1020A000008840F001000E49243908800E48243889
:1020B000008840F001000C492439088000220821E2
:1020C000044803F085FE10BDBC020020000402405D
:1020D00040060020000800404C0600206A06002050
:1020E000240C0040CA0300202404014010B5012143
:1020F000084602F0DFFF0320304908600220087123
:102100000320487100208871C8712D4802F034FD09
:10211000022200212A4802F0BAFD022201212848A9
:1021200002F0B5FD0121082003F00BF84FF4807098
:102130002449486001200880002008814020488010
:10214000214803F0A4F9602020490880012048803C
:102150000020886088814FF4807008821A4803F05C
:102160002BFA002019498881174803F05EFA0020F5
:102170001749088048808880C88008814FF4005043
:10218000488100208881104803F0E2FD00210E48BC
:1021900003F06BFB00210C4803F069FB05210A48A2
:1021A00003F067FB0121084803F0EBFD10BD10B5FB
:1021B0000821054803F034FE10BD0000BC020020D9
:1021C0000000024078060020000C00408406002039
:1021D000A206002010B5E24801F069FD0020E149A7
:1021E000086088604860084601F050FD012108023F
:1021F00002F0B8FFDC4801F03FFD0020DA4908603A
:1022000001200871002048718860C86008610120C1
:102210000875D64801F00BFD0121D44801F04DFDB1
:10222000012240F20521D14801F0E8FE12200028E9
:102230000DDB00BF00BF00F01F02012191404209E9
:10224000920002F1E022C2F8001100BF00BF00BFFF
:10225000042301220621C54801F06FFD012104205D
:1022600002F028FF0020C2498871C871032008715C
:102270000860C04802F080FC0121022002F01AFF31
:102280000020BB498871C871032008710860BA48F2
:1022900002F072FC0121084602F00CFF0020B44954
:1022A0008871C87103200871C0200860B34802F02B
:1022B00063FC0120B249087010BD02460A80B1F9E2
:1022C0000000B1F90230C01A4B68184448600B7A1C
:1022D0004868184100B24880B1F90200704710B553
:1022E0002DED028B40F20521A04801F0AFFE012840
:1022F00071D19E48006820F002009C490860A14806
:102300000078062868D2DFE800F0032532404E75D9
:102310009648C06C9C4908809C480078401C9949AC
:1023200008709B480A461278815C042301228F487A
:1023300001F003FDFFF708FA8C48806840F0804008
:102340008A49886093480068401C9249086001F0FF
:10235000F9F993E08548C06C8F4908808F48006880
:10236000401C8E49086001208549087086E07F483E
:10237000C06C00B28A4908808A480068401C8949BC
:10238000086001207E49087078E07848C06C00B28F
:102390008549088085480068401C84490860012000
:1023A000774908706AE07148C06C00B280490880C3
:1023B0000846B0F9000004F07AFA41EC180B9FEDE2
:1023C0007D0B53EC102B04F09DFA06D27848008860
:1023D0007A49088005E052E04CE040F61F4077491A
:1023E000088077480068401C7549086001206449EE
:1023F000087043E05D48C06C00B27249088080B24A
:10240000714908807149724A128821F81200714995
:10241000096808446F4908606D480088401C6C4991
:10242000088008460088C0F30E00088067480988C5
:1024300030F8110067490968081A6649086066485B
:102440000088096800EBD13064490880644963481A
:10245000008800B2FFF731FF6249088062480068D7
:10246000401C614908600020464908700120444929
:10247000087003E000204349087000BF00BFBDECB6
:10248000028B10BD10B502460020584B186032E098
:1024900056480068401C564B186023E053480068BB
:1024A00032F91000524B1B6832F91330984214DA9B
:1024B0004E48006832F810004E4B18804C480068B7
:1024C00032F81000494B1B6822F813004948B0F954
:1024D0000000474B1B6822F8130045480068401C69
:1024E000434B1860424800688842D7DB3F48006889
:1024F000401C3E4B18603D4800688842C8DB0846D7
:1025000001EBD0735B1032F813303B4C2380204634
:10251000B0F9000010BD02460020384B1860334B64
:1025200018600DE03148006832F91000334B1B6829
:102530001844324B18602D480068401C2B4B186023
:102540002A4800688842EDDB2C48006890FBF1F0D7
:1025500000B2294B18801846B0F9000070470000FF
:10256000C8060020D8060020B00600200020014048
:10257000BC020020000802400004024000000240AB
:102580003E0400203C0400207A0200203D0400208C
:102590003F040020240400208002002028040020A2
:1025A000F40300202C040020EC0300203004002061
:1025B000F20300203EF8E0830F3EA8407E02002098
:1025C00034040020E8030020F6030020E806002081
:1025D0000404002000040020FE030020F803002073
:1025E00048040020FA03002038040020D80300200B
:1025F000DC0300201204002010040020200400202E
:1026000010B50121202002F09CFD00204B4948809C
:1026100042F2CF0008804FF47A704860484802F0D8
:1026200036FF01221146464803F0D2FB372000282E
:102630000DDB00BF00BF00F01F02012191404209E5
:10264000920002F1E022C2F8001100BF00BF00BFFB
:1026500001213B4802F0A4FF10BD10B5012138480C
:1026600003F0DEFB3748B0F900003749B1F900103C
:10267000884206DA33480088401C00B2314908809D
:102680005AE032480088C0B13148007830B92F484C
:102690000088401E00B22D49088002E03C202B49F2
:1026A00008802A48B0F90000012818DA2948006893
:1026B00020F480202749086011E02748007810B1F5
:1026C000002026490870002025490870214800682C
:1026D00020F480201F490860002022490870224809
:1026E000007880B921480088401C00B21F4908804A
:1026F0000846B0F90000052805DB1548007840F0D1
:102700002000134908701A48008850B11948B0F9E0
:102710000000052805DA17480088401C00B215495A
:10272000088015480078401C134908700846007856
:102730000A2801DD0020087010BD00006807012094
:10274000001400400203002004030020FE020020C9
:102750009802002000080240C60200209A020020D1
:1027600099020020FC0200206A0200208A04002056
:102770008E0400208C040020FA02002000280DDBCB
:1027800000BF00BF00F01F020121914042099200EA
:1027900002F1E022C2F8001100BF00BF704710B57F
:1027A000F348007840B1F3480088F3490880F348C3
:1027B0000088F349088007E0EE480088F049088067
:1027C000EE480088EC4908800121022002F072FCEA
:1027D0004FF44070EB4908600220087148710020F6
:1027E00088710120C871E84802F0C6F90922082161
:1027F000E54802F04CFA09221146E34802F047FA94
:102800000121480602F09DFC0121480602F099FCD6
:10281000DE4801F033FC0021DC4801F07BFDDC48A0
:1028200001F050FD0020DA4988710120C87108725A
:102830004872002088720120C87200208870C87019
:1028400002200871487106200880D04801F02FFC52
:102850000020D04988720120C8720873CE480088D1
:102860004FF6FF7101EA4010CA49088000204880F5
:102870004FF6FF708880C8800020088101204873CF
:10288000084601F09EFC0120C2498872C872087394
:10289000BB4800884FF6FF7101EA4010BD4908802F
:1028A000002048804FF6FF708880C8800120088192
:1028B0004873084601F085FCB44814300068B349F9
:1028C000143108600846006840F0020008600846BD
:1028D000006840F0040008600846006840F01000FE
:1028E00008600846006840F0200008601420FFF7E8
:1028F00045FF1520FFF742FF1320FFF73FFF10BDF4
:102900009D480088A5490860002048720872082088
:102910008872AA20C8729648007830B3AB219F48CD
:102920000173AC2141739E480088C0F307119B4896
:1029300081739C4801789948C1739A4800880112B4
:102940009648017498480088C0F307119348417471
:10295000964800789649097840EA410095490978F7
:1029600040EA8100C1B28D48817470478148008877
:102970008A490860002048720872082088728E48D0
:10298000006800F0200030B18C48008840F0010061
:102990008A49088005E08948008820F001008749BD
:1029A00008808548006800F0080030B1834800883E
:1029B00040F002008149088005E08048008820F04E
:1029C00002007E4908807E48006900F0080030B1AE
:1029D0007A48008840F004007849088005E077488C
:1029E000008820F00400754908807348006800F0F2
:1029F000100030B17148008840F008006F4908802D
:102A000005E06E48008820F008006C490880AA2084
:102A10006249C872AB2161480173AC214173002146
:102A20008173664801785D48C17366480088C0F3C9
:102A300007115A48017464480088C0F3C711574809
:102A4000417462480088C0F307115448817470478C
:102A500010B501214D4801F01BFF18B101214B4871
:102A600001F0B1FF10BD10B50421484801F010FF7E
:102A700018B10421454801F0A6FF0221434801F0A6
:102A800007FF18B10221414801F09DFF504A002183
:102A90003E4801F07AFD4E48C07AAA2816D14C482B
:102AA000007BAB2812D14A48407BAC280ED1494864
:102AB000008801280AD10020474908804448407C0A
:102AC000464908804248807C45490880FFF74EFF10
:102AD00032492E4801F064FC10BD10B520212B486E
:102AE00001F0D6FE18B12021284801F06CFF10211A
:102AF000264801F0CDFE18B11021244801F063FFF3
:102B0000384A0121214801F040FD1948007868BB8E
:102B10003448C07AAA2829D13248007BAB2825D175
:102B20003048407BAC2821D100202F4908802F4815
:102B3000007820F020002D4908702A48C17B007CD5
:102B400001EB0020174908802648807C00F0010036
:102B5000164908702348807CC0F34000144908706F
:102B60002048807CC0F380001249087010BD00002E
:102B70006A020020700400207604002078040020FF
:102B800072040020BC0200200004024000640040E7
:102B9000740701208007012074040020F807012039
:102BA000F403002070020020800200209402002024
:102BB000F4020020D00200201008024094040020FB
:102BC00000000240F2030020A2040020F6030020CF
:102BD000700801208E0400208C0400209204002044
:102BE00090040020840801208A040020980200201C
:102BF00010B50121084602F05DFA0420644908601E
:102C00000220087103204871002088710120C871DA
:102C1000604801F0B1FF032202215E4802F037F85C
:102C20000121080402F09EFA4FF6FF705A494860ED
:102C300001200880002008814880584802F027FCC5
:102C40000020574908804880012088800020C880E3
:102C50000881524802F0F2FF0021504803F0ACF81E
:102C6000012203214D4803F0B3F8182000280DDBA2
:102C700000BF00BF00F01F020121914042099200F5
:102C800002F1E022C2F8001100BF00BF00BF012125
:102C9000424802F085FC10BD10B500203F49486253
:102CA0000846008A00F0010088B101213B4803F08A
:102CB000B7F838480069012101EA900018B10020F6
:102CC0003849088003E047F6FF70364908803348EA
:102CD000008A00F00200002851D002212F4803F0A2
:102CE0009FF831480088401C2F4908802F48007801
:102CF00088B100202D490870012028490884084621
:102D0000406B2B49088023480069012101EA9000AB
:102D10002849087010E001202449087003201F4949
:102D200008840846406B244908801A48006901213C
:102D300001EA9000214908702048007820B947F640
:102D4000FF70184908801AE01A48007818B100206E
:102D50001449088013E01648008817490988084478
:102D600017490880144A128810B20A46128811B214
:102D7000C0EB0042B2FBF1F252080A490A80114846
:102D8000008818B9104800880649088010BD000066
:102D9000BC02002000000240A408012000400140C5
:102DA000C4080120A2040020AE040020A6040020D4
:102DB0009C040020AC040020A0040020AD040020EE
:102DC00098040020B0040020B204002070B503462F
:102DD00008461C4603E010F8015B04F8015B151E71
:102DE000A2F10106B2B2F6D170BD70B503460C4631
:102DF000184603E014F8015B00F8015B151EA2F110
:102E00000106B2B2F6D170BD704770B50B460446EC
:102E100003E013F8015B04F8015B151EA2F1010643
:102E2000B2B2F6D170BD2DE9F043054608462B46F7
:102E300086180DE016F8014B10F8017B93F800C0DE
:102E400007EA04082CEA040948EA090703F8017BA9
:102E5000B2F10008A2F101091FFA89F2EAD1BDE836
:102E6000F0831E4908807047F8B505460C461B489C
:102E7000008850B16E462746042239463046FFF797
:102E8000A5FF0446009828600BE06E462746022204
:102E900039463046FFF79AFF0446BDF80000286027
:102EA00000BF2046F8BD78B504460D460B480088A3
:102EB00040B126460095042269463046FFF795FF4B
:102EC000044608E02646A8B2009002226946304631
:102ED000FFF78BFF0446204678BD0000B4040020B5
:102EE00010B500F055FC00F091F900F0D9FC10BDD0
:102EF0002DE9F047804644460021204603F0D9FBE7
:102F000004460321204603F0D4FB0446002120465A
:102F100003F0CFFB04460121204603F0CAFB044620
:102F20000221204603F0C5FB04460021204603F0A1
:102F3000C0FB04464021204603F0BBFB044600F0E2
:102F400084FA054600BF2946204603F0C7FB044625
:102F5000A14648F26407F9B2484603F0AAFB82464C
:102F6000391203F0A6FB0446A1A600250AE020467C
:102F7000317800F8011B00BF0446307800B1761CA0
:102F8000681C85B2192DF2DB2046BDE8F0877CB5C0
:102F9000044625460221204603F08EFB04462146C6
:102FA000684603F095FB0446214601A8FFF75CFF45
:102FB00004469DF8002021460198FFF734FF0021C8
:102FC000284603F076FB7CBD7CB5044625460221ED
:102FD000204603F071FB04462146684603F078FB67
:102FE0000446214601A8FFF73FFF04469DF8002054
:102FF00021460198FFF7EAFE0021284603F059FB1D
:103000007CBD7CB5044625460221204603F054FBD6
:1030100004462146684603F05BFB0446214601A8AE
:10302000FFF722FF04469DF80000402804DD8421BC
:10303000284603F03EFB7CBD0021284603F039FB07
:1030400005469DF8002028460199FFF7CEFEF2E7DD
:10305000F8B505460020FFF704FF2946684603F04F
:1030600037FB9DF800000A2823D008DC0A2865D227
:10307000DFE800F0641A515A164D56642340C22806
:103080002FD006DC0B2831D0C02852D0C12855D112
:1030900022E0C3281BD0C52814D0C9284ED12EE069
:1030A0000120FFF7DEFE00BF2846FFF7AAFF044617
:1030B0004AE00120FFF7D5FE00BF284600F069FB7B
:1030C000044641E0284600F0ADFB04463CE02846BB
:1030D00000F03CFA044637E0284600F0DFF90446E9
:1030E00032E0284600F015FA04462DE00120FFF7F3
:1030F000B8FE00BF284600F0E0F8044624E00120B6
:10310000FFF7AFFE284600F03AFA04461CE0012023
:10311000FFF7A7FE00BF2846FFF756FF044613E05F
:103120000120FFF79EFE00BF2846FFF730FF044650
:103130000AE02846FFF7DCFE044605E08121284628
:1031400003F0B7FA044600BF00BFAC4206D0601BD4
:1031500086B23146284600F0B0FB00BFF8BDF8B596
:1031600004460D4626460121204603F0A5FA0446F2
:1031700021466846FFF778FE04460021304603F0FA
:1031800098FA06462A4630460099FFF72EFEF8BD0B
:10319000F8B504460D4626460121204603F08CFA78
:1031A000044621466846FFF75FFE04462A4621464C
:1031B0000098FFF70BFE0021304603F07AFAF8BDC5
:1031C000F8B504460D4626460121204603F074FA60
:1031D000044621466846FFF747FE04462A46214634
:1031E0000098FFF720FE0021304603F062FAF8BD98
:1031F0003536463878787820467265654D415354A7
:103200004552204472697665720000004FF40060F8
:10321000F6490880F648F74908607047F54A10609B
:10322000F24A11807047F44800680068F349096861
:10323000884201D3012070470020FCE7EE48006877
:103240000068EE490968884201DB012070470020D0
:10325000FCE7E94800680088E8490988884201DB02
:10326000012070470020FCE7E3480068B0F9000047
:10327000E249B1F90010884201DB012070470020CB
:10328000FCE7DD4800680078DC490978884201DB0A
:10329000012070470020FCE7D748006890F9000043
:1032A000D64991F90010884201DB012070470020C7
:1032B000FCE70020D249088070472DE9F84F04460A
:1032C0002646FFF7F6FF4FF40060C8490880C8485B
:1032D000C849086020460221421814462146C948C0
:1032E00003F0F6F904462146C74803F0E8F904461E
:1032F0002146C64803F0E3F904462146C44803F0DA
:10330000DEF904462146BC48FFF7AEFD04462146DF
:10331000C04803F0DDF904462146BF4803F0D8F960
:103320000446DFF8D892A246042251464846FFF7E9
:103330004DFD04462146B94803F0CAF90446B74892
:10334000007818B1B5480078082805DD8521304699
:1033500003F0AFF9BDE8F88F0027002522E02146F1
:10336000684603F0B5F904469DF80000AC4921F821
:1033700015009DF80000384487B2AA4901EB85008A
:103380002146FFF771FD04469DF8000018B19DF835
:103390000000082804D98621304603F08AF9D9E7CD
:1033A000681CC5B29D4800788542D8DB00209E4944
:1033B00008609448007848B396480078012804D003
:1033C00002280BD004281BD111E09348007808B1E3
:1033D000964800E096489449086016E08E480078C8
:1033E00008B1944800E094488F4908600DE08A488D
:1033F000007808B1914800E091488B49086004E0EA
:103400008621304603F055F9A4E700BF7E480088C6
:1034100078431FFA80F875480088804504DD8621CE
:10342000304603F046F995E7724800684044854904
:1034300008607348006820F00100401C7049086073
:103440000021304603F035F984E74FF400607047FF
:1034500010B5024600236748006882420BD3FFF78D
:10346000F4FF644C246820445418A04201D3012086
:1034700000E000200346184610BD61480068C0F314
:10348000800050B95E48006820F00400001D5C49CF
:1034900008605E4800886C490880704710B5044693
:1034A0005748006800F0010020B98821204603F049
:1034B00000F910BD52480068C0F3400020B101215E
:1034C000204603F0F6F8F4E74A4800685F490860D0
:1034D00000205F4908805F4908804948006820F063
:1034E0000400474908600846006820F010000860A2
:1034F0000846006820F008000830086008460068A8
:1035000020F00200801C08600021204603F0D1F862
:10351000CFE710B504463A48006800F0010020B932
:103520008821204603F0C5F810BD35480068C0F377
:10353000400020B90221204603F0BBF8F4E7FFF772
:103540009CFF0021204603F0B4F8EDE710B50446D7
:103550002B48006800F0010020B98821204603F0C4
:10356000A8F810BD26480068C0F3400008B101204B
:1035700000E002200146204603F09BF8F1E738B551
:1035800004461F48006800F0010020B98821204649
:1035900003F08FF838BD1A480068C0F3400020B12E
:1035A0008721204603F085F8F4E70021204603F048
:1035B00080F804460F4801682046FFF774FC044673
:1035C0002546234800880090022269462846FFF7D6
:1035D0000CFC00BFDEE770B51E48008828B11D480E
:1035E0000088401E1B49088070BD35E0E4040020BF
:1035F0000C090120E0040020D4040020DC04002099
:10360000D0040020BC040020B8040020BA0400202C
:10361000BE040020D8040020D9040020C0040020EB
:10362000FC080120DC080120E80400209932000891
:103630008332000869320008533200083D32000826
:1036400027320008C8040020CE040020C404002053
:10365000C2040020CC040020404800884049088073
:10366000002412E03F4830F814603F4850F824101E
:1036700032463E480068FFF7C8FB00BF3B48006881
:1036800030443A490860601CC4B23948007884422A
:10369000E8DB38480088401C364908803348006819
:1036A0003549096888420CD3344800682F490860BE
:1036B0003348006820F008003149086000202D4997
:1036C00008802F480068C0F3C00000B170BD2C48CE
:1036D0000068C0F38000F8B92A480068E0B12948C2
:1036E00000688047054628480078022804D10DB9B3
:1036F000012000E0002005463DB121480068C0F3EC
:10370000001048B1FFF7B9FE06E01D48006820F040
:10371000100010301A49086019480068C0F3800092
:1037200070B11A48008830B91548006820F00200CE
:1037300013490860CAE715480088401E13490880ED
:1037400000BFC3E710B50E480068C0F3400000B9E1
:1037500010BDFFF740FF00BFFAE70000BE040020E5
:10376000CC040020FC080120DC080120C404002057
:10377000C0040020C2040020C8040020E00400208F
:10378000D0040020E8040020BC040020CE04002067
:1037900070477CB504462646002034490870204610
:1037A0000221421814462146684602F091FF044661
:1037B0009DF8000018B19DF80000082804DD85215F
:1037C000304602F076FF7CBD00251EE0214601A8B0
:1037D00002F07EFF04469DF80400254921F81500FB
:1037E000244901EB85002146FFF73EFB04469DF886
:1037F000040018B19DF80400082804D98621304639
:1038000002F057FFDFE7681CC5B29DF80000854253
:10381000DCDB9DF80000154908700021304602F0FD
:1038200048FFD0E770B505461048007820B98821D8
:10383000284602F03EFF70BD0021284602F039FF05
:10384000054600240BE00A4830F81420094850F8D7
:1038500024102846FFF7C9FA0546601CC4B2034885
:1038600000788442EFDB2846E5E70000EC04002006
:103870002C1101200C11012010B50020A74908804F
:10388000A748006820F00100A549086008460068C4
:1038900020F002000860FCF740FDFCF70BFD10BDB6
:1038A00010B5FCF7BBFD00209D4908809D490880AC
:1038B0009A490880FFF7E0FF10BDF8B504460D46B1
:1038C00000269948046000270DE000200090214662
:1038D000684602F0FDFE04469DF80000304486B2C2
:1038E000F6B2781CC7B2AF42EFDB2046F243521C5F
:1038F000D1B200F8011B00BF0446681C894908804A
:103900008748006820F00100401C8549086008468F
:10391000006820F0020008600846006820F00400FB
:103920000860FCF7D8FCFCF7E7FC2B20FCF7BCFC9C
:10393000F8BD10B504467D4804700121FFF7BDFFB6
:1039400010BD08B5002000907648008858B376482E
:103950000168684602F0BCFE9DF80000FCF7A4FC7C
:103960009DF800002B2804D16D480068C0F380004A
:1039700088B16C480088401E6A4908806A4A012064
:1039800011680A18684802606548006820F0040061
:103990006349086009E06248006820F00400001DE7
:1039A0005F49086001E0FFF767FF08BD10B50446F6
:1039B0002B2C13D15A480068C0F3C00030B15848CE
:1039C000006820F008005649086007E05448006885
:1039D00020F0080008305249086010BD50480068C7
:1039E000C0F3C00070B351485149086008460068F0
:1039F000047008460068401C08604E4804700020AF
:103A00004649088004F0C000C0280DD14448006831
:103A100020F010004249086004F03000012101EB61
:103A2000D0003E49088006E03D48006820F01000C4
:103A300010303B4908603A48006820F008003849D7
:103A40000860CAE736480068C0F3001040B1A01C07
:103A5000324908803248006820F010003049086080
:103A60002E48008870B333480078204431490870EC
:103A70002A480088401E80B22849088088B92C480E
:103A8000006818B98320FFF754FF1FE02948007829
:103A900018B18220FFF74DFF18E02448FFF7D8FA4D
:103AA00014E02348006868B1214801681F4840308D
:103AB000814208D21E48006804701D480068401CFE
:103AC0001B49086002E000201949086000BF84E734
:103AD00038B5FCF733FC84B21148006800F00100EF
:103AE00060B104F4004008B1FFF72BFF04F400506C
:103AF00078B1FCF7DCFB80B200900AE004F40050DF
:103B000038B10025FCF7D3FBC5B22846FFF74EFFBE
:103B100000BF38BD10B5FFF7DBFF10BDF604002075
:103B2000F0040020F4040020F80400203C110120DF
:103B3000FC0400200005002032490143324A116094
:103B4000704770B5002100230F22C4781CB32E4C9F
:103B5000246804F4E064C4F5E064C4F30721C1F10F
:103B60000404E3B20A4144789C40E1B284781440F2
:103B700021430C07210E254C05786155047804F08B
:103B80001F050124AC4005786D11AD0005F1E0255D
:103B9000C5F8004109E0047804F01F050124AC4099
:103BA0001B4D0678761145F8264070BD194A0A402B
:103BB0000243154B1B1F1A60704739B1124A121D80
:103BC00012680243104B1B1D1A6006E00E4A121DBC
:103BD000126882430C4B1B1D1A607047042808D1E1
:103BE0004FF0E021096941F004014FF0E02211613A
:103BF00007E04FF0E021096921F004014FF0E022D5
:103C0000116170470000FA050CED00E000E400E0EF
:103C100080E100E080FFFF1F10B50121080201F0E4
:103C2000F6FA00214FF4807001F0F1FA10BD30B5C2
:103C30000246002000235068F84C20400D790C68A3
:103C400044EA0524204350609068F54C2040D1E9B7
:103C500003542C438D682C434D7944EA450420439A
:103C60009060D06A20F470000C7D641EE4B223439F
:103C700040EA0350D06230BD002101600171417102
:103C80008160C16001610121017570470021E54A31
:103C90001168E54A1140D0E900231A4383681A43AA
:103CA000C3681A431143E14AC2F804137047002164
:103CB000016041608160C160704721B1826842F05B
:103CC0000102826003E0826822F001028260704794
:103CD0000A4600214168D64B1940114341607047A4
:103CE0004162826270470A460021416821F01F014B
:103CF00011434160704738B1CA49096841F4000175
:103D0000CA4AC2F8041306E0C649096821F4000152
:103D1000C64AC2F80413704738B1C249096841F471
:103D20008001C24AC2F8041306E0BE49096821F4C2
:103D30008001BE4AC2F804137047F0B504460D4630
:103D400000200021092D11DDE068A5F10A0606EB2F
:103D50004607072606FA07F18843A5F10A0606EB8F
:103D6000460603FA06F10843E0600CE0206905EB23
:103D70004507072606FA07F1884305EB450603FACF
:103D800006F108432061072A0FDA606B561E06EB26
:103D900086071F2606FA07F18843561E06EB86069D
:103DA00005FA06F10843606322E00D2A0FDA206B62
:103DB000D61F06EB86071F2606FA07F18843D61F93
:103DC00006EB860605FA06F10843206310E0E06A78
:103DD000A2F10D0606EB86071F2606FA07F18843B7
:103DE000A2F10D0606EB860605FA06F10843E0622D
:103DF000F0BD816841F0804181607047014600203C
:103E00008A6802F080420AB1012000E00020704779
:103E100021B1826842F48062826003E0826822F409
:103E200080628260704721B1826842F00202826043
:103E300003E0826822F002028260704710B50A46F1
:103E400000210023416821F46041531E41EA4331BF
:103E5000416010BD21B1426842F40062426003E05B
:103E6000426822F40062426070470146C86C80B22A
:103E700070476C48001D0068704721B1826842F4A9
:103E80008072826003E0826822F4807282607047F0
:103E900021B1826842F40072826003E0826822F4F9
:103EA00000728260704738B15E49096841F4005180
:103EB0005E4AC2F8041306E05A49096821F4005129
:103EC0005A4AC2F804137047F0B50446154600205C
:103ED00000220026092911DDE068A1F10A0707EB9D
:103EE000470C072707FA0CF29043A1F10A0707EBEA
:103EF000470703FA07F21043E0600CE0206901EB8A
:103F0000410C072707FA0CF2904301EB410703FA33
:103F100007F210432061A06BC0F30156EF1C06F1BD
:103F2000010CA7EB0C0707EB870C1F2707FA0CF215
:103F30009043EF1C06F1010CA7EB0C0707EB87077A
:103F400001FA07F21043A063F0BD10B50A46002144
:103F50000023816B21F44011531E41EA0351816318
:103F600010BD08B5002300930090009B0B44009304
:103F7000009B1A6008BD0A460021816821F4702167
:103F80001143816070470A460021816821F4401185
:103F9000114381607047816841F4800181607047FE
:103FA000014600208A6802F480020AB1012000E084
:103FB0000020704721B1426842F48062426003E011
:103FC000426822F480624260704721B1426842F444
:103FD0008052426003E0426822F48052426070479F
:103FE00008B5024600200090009201F12800009BD5
:103FF000184400900098006880B208BD10B50B46C8
:104000000021D9B2012404FA01F11AB144680C4329
:10401000446002E044688C43446010BDFFFEFFFC36
:10402000FDF7FFC004230140E030FCFF0020014009
:10403000FFFD3FFF0246002013680B400BB101203B
:1040400000E000207047CA430260704770B5024626
:104050000020002300240B12556801268E4005EA3B
:10406000060415681D4015B10CB1012000E00020C8
:1040700070BD00220A12D3430360704710B5044696
:10408000FE48844209D10121480601F0AFF8002121
:104090004FF0007001F0AAF808E00121880601F055
:1040A000A5F800214FF0806001F0A0F810BD30B5F8
:1040B000024600200023146824F0020414601468EF
:1040C00044F00104146000E05B1C546804F0010437
:1040D0001CB94FF6FF74A342F6D1546804F00104F2
:1040E0000CB900206CE08C79012C04D1146844F0E8
:1040F0008004146003E0146824F080041460CC7918
:10410000012C04D1146844F04004146003E01468E6
:1041100024F0400414600C7A012C04D1146844F09B
:104120002004146003E0146824F0200414604C7A26
:10413000012C04D1146844F01004146003E01468E6
:1041400024F0100414608C7A012C04D1146844F01B
:104150000804146003E0146824F008041460CC7AA6
:10416000012C04D1146844F00404146003E01468C2
:1041700024F0040414608C78A407CD7844EA056424
:104180000D7944EA05444D7944EA05540D886D1EC5
:104190002C43D461146824F001041460002300E06F
:1041A0005B1C546804F001041CB14FF6FF74A34279
:1041B000F6D1546804F001040CB1002000E00120A5
:1041C00030BD10B50021837A012202FA03F1AC4A16
:1041D000126842F00102AA4B1A60A94A1C32126806
:1041E0008A43A74B1C331A60027BCAB9A44A0C321B
:1041F00012688A43A24B0C331A604288C38842EA91
:1042000003439F4A4032847A42F8343002888388DC
:1042100042EA03439A4A4032847A02EBC402536072
:10422000027B012A19D1964A0C3212680A43944B38
:104230000C331A604288038842EA0343904A4032B2
:10424000847A42F83430C288838842EA03438C4A35
:104250004032847A02EBC4025360C27A3AB9884A87
:10426000121D12688A43864B1B1D1A6006E0844AA1
:10427000121D12680A43824B1B1D1A60028932B953
:104280007F4A143212688A437D4B14331A600289C4
:10429000012A06D17A4A143212680A43784B143341
:1042A0001A60427B012A06D1754A1C3212680A4301
:1042B000734B1C331A60724A126822F00102704B71
:1042C0001A6010BD00218171C17101724172817249
:1042D000C1728170C17003210171022141710121FC
:1042E000018070476649096841F00101644A116024
:1042F0001146096843F60E729143614A11601146F6
:10430000096841EA002111601146096821F00101A4
:104310001160704721B1026842F48032026003E00C
:10432000026822F4803202607047E1B1026842F014
:10433000800202604FF4C272125842F480734FF44C
:10434000C27213504FF4CA72125842F480734FF481
:10435000CA7213504FF4D272125842F480734FF461
:10436000D27213501BE0026822F0800202604FF408
:10437000C272125822F480734FF4C27213504FF479
:10438000CA72125822F480734FF4CA7213504FF459
:10439000D272125822F480734FF4D27213507047C5
:1043A00010B502460020936803F08063B3F1806F7C
:1043B00000D110E0936803F00063B3F1006F01D106
:1043C000012008E0936803F08053B3F1805F01D1CE
:1043D000022000E00420042879D002F5C07303EB2A
:1043E00000131B6803F0010402F5C07303EB001314
:1043F0001C600B7A7BB94B7A0C8843EA445302F574
:10440000C07404EB00142468234302F5C07404EB69
:104410000014236010E00B7A4C6843EAC4034C7A22
:10442000234302F5C07404EB00142468234302F50F
:10443000C07404EB001423608B7A03F00F038B72BB
:1044400002F5C07303EB00135B6823F00F0402F561
:10445000C07303EB00135C6002F5C07303EB001341
:104460005B688C7A234302F5C07404EB001463602C
:104470008B7B1C064B7B44EA034403E00064004052
:10448000006600400B7B44EA0323CC7A234302F509
:10449000C07404EB0014A3608B7C1C064B7C44EAC4
:1044A00003440B7C44EA0323CC7B234302F5C07412
:1044B00004EB0014E36002F5C07303EB00131B6808
:1044C00043F0010402F5C07303EB00131C6010BD40
:1044D00010B50246002321B1012907D002290FD1CE
:1044E00009E09068F94C00EA04030BE09068F84C8E
:1044F00000EA040306E09068F64C00EA040301E0D9
:10450000002300BF00BFF44C181BA34216D007DCE9
:1045100083B16FF08060184470B1022818D111E0A7
:10452000B0F5007F10D0ED4C204448B1B0F5003F0D
:104530000ED10BE002230DE000230BE0002309E085
:10454000002307E0012305E0012303E0012301E04C
:10455000002300BF00BFD8B210BD21B1012907D090
:1045600002290FD109E0826842F0800282600AE0ED
:10457000826842F40042826005E0826842F40002F0
:10458000826000E000BF00BF704710B500F5D8732F
:1045900003EB01131B6803F004031372137A53B97E
:1045A00000F5D87303EB01131B6840F2FF7404EAB3
:1045B0005353136009E000F5D87303EB01131B6834
:1045C0006FF0604404EAD303536000F5D87303EB43
:1045D00001131B6803F00203537200F5D87303EB59
:1045E00001135B6803F00F03937200F5D87303EBBC
:1045F00001135B681B0AD37400F5D87303EB011336
:104600009B68D37200F5D87303EB01139B681C0AF7
:10461000147300F5D87303EB01139B681C0C5473DF
:1046200000F5D87303EB01139B681B0E937300F521
:10463000D87303EB0113DB68D37300F5D87303EB76
:104640000113DB681C0A147400F5D87303EB011323
:10465000DB681C0C547400F5D87303EB0113DB68A2
:104660001B0E937421B9C36843F02003C36003E0B9
:10467000036943F02003036110BD21B9C26842F011
:104680002002C26003E0026942F02002026170472A
:104690000246002019B9D36803F0030006E001299F
:1046A00003D1136903F0030000E00020704710B548
:1046B00002460B4600204FF6FF71BBB9146824F088
:1046C000020444F00104146000E0491E546804F040
:1046D0000304012C01D00029F7D1546804F003042D
:1046E000012C01D0002032E0012030E0012B13D159
:1046F000146824F00304146000E0491E546804F0B8
:1047000003040CB10029F8D1546804F003040CB17F
:1047100000201CE001201AE0022B17D1146824F0BD
:10472000010444F00204146000E0491E546804F0DF
:104730000304022C01D00029F7D1546804F00304CB
:10474000022C01D0002002E0012000E0002010BD7A
:10475000014600200A6822F0010242F002020A60CB
:104760004A6802F00302022A00D101207047014684
:104770004FF6FF7200200B6823F002030B6000E08D
:10478000521E4B6803F00203022B01D1002AF7D11D
:104790004B6803F00203022B00D001207047014652
:1047A00000208A6902F070007047014600208A6983
:1047B000100E7047014600208A69C2F30740704717
:1047C0001AB143690B43436102E043698B43436180
:1047D000704710B50246002001F4700343B193699D
:1047E000C1F3130423400BB101202DE000202BE086
:1047F00001F0807343B15368C1F3130423400BB13C
:10480000012021E000201FE001F0006343B1936824
:10481000C1F3130423400BB1012015E0002013E085
:1048200001F0007343B1D368C1F3130423400BB10B
:10483000012009E0002007E01369C1F313042340BD
:104840000BB1012000E0002010BD0022244B994252
:1048500002D10023836111E0C1F3130201F0007360
:104860000BB1C2600AE001F080630BB1026105E0A8
:1048700001F000630BB1826000E0426070470246C5
:10488000002002EA01030BB1012000E00020704784
:1048900070B504460D46002660692840002872D095
:1048A000B5F5807F69D01DDC082D42D006DC012DD6
:1048B0002DD0022D31D0042D7FD134E0102D3ED0EB
:1048C000202D42D0402D78D145E0000003000004A7
:1048D0000003000800000310000100080001FFF7BA
:1048E0007000F030B5F5004F61D009DCB5F5007F00
:1048F0004AD0B5F5806F4DD0B5F5006F5DD150E071
:10490000B5F5803F2DD0B5F5003F56D12FE0A0681A
:104910005549FFF7B4FF064651E0E0680321FFF771
:10492000AEFF06464BE0E0680821FFF7A8FF064609
:1049300045E0E0681021FFF7A2FF06463FE020694E
:104940000321FFF79CFF064639E020690821FFF7A5
:1049500096FF064633E020691021FFF790FF0646D8
:104960002DE060680821FFF78AFF064627E06068AF
:104970001021FFF784FF064621E0A0690121FFF71F
:104980007EFF06461BE01BE0A0690221FFF777FFD0
:10499000064614E0A0690421FFF771FF06460EE009
:1049A0000BE0A0697021FFF76AFF064607E0606828
:1049B0000421FFF764FF064601E0002600BF00E087
:1049C0000026304670BDB1F5007F3AD00FDC2029BB
:1049D00028D006DC01291CD004291DD0082940D18B
:1049E0001DE0402921D0B1F5807F3AD126E0B1F514
:1049F000004F31D006DCB1F5806F25D0B1F5006FE6
:104A00002FD124E0B1F5803F12D0B1F5003F28D17D
:104A100011E0154A826025E00822C26022E01022DF
:104A2000C2601FE0082202611CE01022026119E04E
:104A30000822426016E01022426013E00422426025
:104A400010E0042242600DE0042242600AE00022ED
:104A500082610422426005E00022826104224260F9
:104A600000E000BF00BF70470101010010B504461F
:104A70009848844208D10121084600F084FB0021B7
:104A8000012000F080FB76E09348844208D10121A8
:104A9000022000F078FB0021022000F074FB6AE0A5
:104AA0008E48844208D10121042000F06CFB0021D3
:104AB000042000F068FB5EE08948844208D10121AF
:104AC000082000F060FB0021082000F05CFB52E0B1
:104AD0008448844208D10121102000F054FB0021B9
:104AE000102000F050FB46E07F48844208D10121AD
:104AF000202000F048FB0021202000F044FB3AE099
:104B00007A48844208D10121402000F03CFB00217A
:104B1000402000F038FB2EE07548844208D1012186
:104B2000802000F030FB0021802000F02CFB22E0F0
:104B30007048844208D10121801500F024FB002137
:104B4000A01500F020FB16E06B48844208D101213B
:104B5000401500F018FB0021601500F014FB0AE07E
:104B60006648844207D10121001500F00CFB0021AA
:104B7000201500F008FB10BDF0B50A460021002307
:104B8000002400BF3DE0012505FA01F3156805EAA0
:104B900003049C4234D105684F000326BE40B54350
:104BA000056015794E00B5400668354305601579F6
:104BB000012D02D01579022D16D185684F000326EC
:104BC000BE40B543856055794E00B5408668354393
:104BD0008560456801268E40B543456045689679F5
:104BE0008E40B6B235434560C5684F000326BE40CF
:104BF000B543C560D5794E00B540C6683543C5603C
:104C0000491C1029BFD3F0BD4FF6FF710160002190
:104C1000017141718171C171704708B54FF48032E3
:104C20000092009A0A430092009AC261C161009A00
:104C3000C261C2690092C269009208BD02460020AA
:104C400013690B400BB1012000E0002070470146C2
:104C5000086980B270470246002053690B400BB1CF
:104C6000012000E0002070470146486980B270478B
:104C700001837047418370470AB1018300E041839B
:104C800070474161704742694A4042617047F0B5E0
:104C9000002300244D07ED0E02FA05F3CE1000F1BB
:104CA000200555F826504E07F70E0F26BE40B54397
:104CB000CF1000F1200646F82750CE1000F1200555
:104CC00055F8265045EA0304CE1000F1200545F8BA
:104CD0002640F0BD000002400004024000080240EF
:104CE000000C024000100240001402400018024074
:104CF000001C024000200240002402400028024024
:104D0000F948006840F00100F74908600020F649C2
:104D100008310860F4480068F4490840F249086026
:104D2000F348091D0860F348EF4984310860F048F2
:104D30001038091D0860EC48006820F48020EA491A
:104D400008600020E8490C310860E7498C310860B0
:104D500070470021E44A921C117011460870704798
:104D600010B501460022002300204A11012A02D179
:104D7000DD4C236808E0022A03D1DB4C7034236841
:104D800002E0D94C7434236801F01F0201249440DE
:104D90001C400CB1012000E0002010BD38B50020FF
:104DA00000900024002500BF3120FFF7D9FF054601
:104DB0000098401C00900098B0F5A04F01D0002D45
:104DC000F2D03120FFF7CCFF08B1012400E000242D
:104DD000204638BD01460020C34A106820F0F80084
:104DE00040EAC10010607047C34908607047002165
:104DF000BD4A703211701170012802D004280AD106
:104E000004E00121B84A7032117005E00521B64A6C
:104E10007032117000E000BF00BF7047B7490860F2
:104E2000704770B5049C41EA82150126C6EB530613
:104E300045EA0645054345EA0465AB4E361D356037
:104E400070BDAD4908667047820142EA0172A64B07
:104E500084331A607047A8498866704710B583018B
:104E600043EA016343EA02739F4C8834236010BD18
:104E7000A14908677047A049C864704702460020EE
:104E8000994B0833186820F0EC6042EA010318439C
:104E9000954B08331860704702460020924B083348
:104EA000186820F0784042EA010318438E4B08331B
:104EB00018607047014600208B4A0832106820F0C5
:104EC000030008431060704787480830006800F00E
:104ED0000C00704701460020834A0832106820F019
:104EE000F000084310607047014600207E4A0832F7
:104EF000106820F4E050084310607047014600201D
:104F0000794A0832106820F4604040EAC10010601D
:104F10007047F0B50021002200240225002602235C
:104F2000714F08373F6807F00C0121B1042905D003
:104F3000082937D105E0724F076036E0704F0760EF
:104F400033E0694F3F1D3F68C7F38056664F3F1DF2
:104F50003F6807F03F036EB1694FB7FBF3F7DFF827
:104F600088C10CF1040CDCF800C0CCF3881C07FBF2
:104F70000CF40CE0624FB7FBF3F7DFF86CC10CF1F7
:104F8000040CDCF800C0CCF3881C07FB0CF4564F73
:104F90003F1D3F68C7F301477F1C7D00B4FBF5F759
:104FA000076002E0564F076000BF00BF4E4F083752
:104FB0003F6807F0F0010909524F7A5C0768D74053
:104FC0004760494F08373F6807F4E051890A4D4F61
:104FD0007A5C4768D7408760434F08373F6807F4DB
:104FE0006041490B474F7A5C4768D740C760F0BDC6
:104FF000002100F44072B2F5407F0AD13A4A0832EB
:10500000116821F4F811404A02401143364A08322F
:105010001160354A70321268C0F30B031A43324BE9
:1050200070331A6070473549443908607047334916
:1050300040390860704735490860704701460020D4
:10504000294A8C32106820F01F004A1E1043264A5D
:105050008C321060704701460020234A8C32106861
:1050600020F4F8504A1E40EA02201F4A8C32106099
:105070007047014600201C4A8C32106820F4401012
:1050800008431060704701460020174A8C321068B0
:1050900020F4400008431060704701460020124A87
:1050A0008C32106820F44030084310607047184973
:1050B0000860704739B10C4A3032126802430A4B1B
:1050C00030331A6006E0084A303212688243064BD9
:1050D00030331A607047E9B1034A34321268024330
:1050E000014B34331A601AE000380240FFFFF6EA41
:1050F000103000240030002000004742800E47425C
:105100000024F40001050020FFFCFF0F5C01474272
:10511000E0114742864A12688243854B1A60704705
:1051200039B1834A121D12680243814B1B1D1A605C
:1051300006E07F4A121D126882437D4B1B1D1A60D8
:10514000704739B17A4A0C3212680243784B0C33FB
:105150001A6006E0764A0C3212688243744B0C33B4
:105160001A60704739B1724A103212680243704BAC
:1051700010331A6006E06E4A1032126882436C4B9C
:1051800010331A60704739B1694A243A12680243F1
:10519000674B243B1A6006E0654A243A1268824352
:1051A000634B243B1A60704739B1614A203A126858
:1051B00002435F4B203B1A6006E05D4A203A1268CA
:1051C00082435B4B203B1A60704739B1584A1C3A06
:1051D00012680243564B1C3B1A6006E0544A1C3AC4
:1051E00012688243524B1C3B1A60704739B1504AD7
:1051F000143A126802434E4B143B1A6006E04C4AC4
:10520000143A126882434A4B143B1A60704739B112
:10521000474A103A12680243454B103B1A6006E0B9
:10522000434A103A12688243414B103B1A60704760
:1052300039B13F4A1C32126802433D4B1C331A609D
:1052400006E03B4A1C3212688243394B1C331A6019
:10525000704739B1364A203212680243344B20334A
:105260001A6006E0324A203212688243304B203303
:105270001A60704739B12E4A2432126802432C4B0F
:1052800024331A6006E02A4A243212688243284BEB
:1052900024331A60704739B1254A2C321268024310
:1052A000234B2C331A6006E0214A2C3212688243C9
:1052B0001F4B2C331A60704739B11D4A30321268C7
:1052C00002431B4B30331A6006E0194A3032126831
:1052D0008243174B30331A607047704739B1144A14
:1052E000273A12780243124B273B1A7006E0104A05
:1052F000273A127882430E4B273B1A7070470C48AE
:105300004030006840F080700949403108607047C3
:1053100001460020064A283A12680A400AB10120D4
:1053200000E00020704702492639087070470000ED
:105330003438024010B50446FE48844208D10121A9
:105340000846FFF764FF00210120FFF760FF9DE0A2
:10535000B4F1804F08D101210846FFF747FF002133
:105360000120FFF743FF91E0F348844208D1012177
:105370000220FFF73BFF00210220FFF737FF85E007
:10538000EE48844208D101210420FFF72FFF0021BD
:105390000420FFF72BFF79E0E948844208D101217E
:1053A0000820FFF723FF00210820FFF71FFF6DE013
:1053B000E448844208D101211020FFF717FF0021A3
:1053C0001020FFF713FF61E0DF48844208D101217C
:1053D0002020FFF70BFF00212020FFF707FF55E0FB
:1053E000DA48844208D101210220FFF710FF002192
:1053F0000220FFF70CFF49E0D548844209D1012182
:105400000804FFF704FF00214FF48030FFF7FFFE90
:105410003CE0D048844209D101214804FFF7F7FE5F
:1054200000214FF40030FFF7F2FE2FE0CA4884421B
:1054300009D101218804FFF7EAFE00214FF4802002
:10544000FFF7E5FE22E0C548844208D10121402053
:10545000FFF7CCFE00214020FFF7C8FE16E0C04851
:10546000844208D101218020FFF7C0FE0021802066
:10547000FFF7BCFE0AE0BB48844207D1012180153A
:10548000FFF7B4FE0021A015FFF7B0FE10BD00220B
:105490000288A84B98420ED0AC4B98420BD0B0F18A
:1054A000804F08D0A44B984205D0A44B984202D01C
:1054B000A34B984204D14FF68F731A404B881A437E
:1054C000A04B984207D0A04B984204D04FF6FF4320
:1054D0001A400B891A4302804B68C3620B8803850C
:1054E000944B984202D0994B984201D18B7A038613
:1054F0000123838270474FF0FF314160002101801A
:1055000001814180817270470185828270470A461D
:10551000002101884FF68F731940114301807047B5
:1055200041627047C16270470146486A7047014650
:10553000088D704721B1028842F00202028004E027
:1055400002884FF6FD731A400280704721B102882D
:1055500042F00402028004E002884FF6FB731A4016
:105560000280704721B1028842F08002028004E08C
:1055700002884FF67F731A400280704702884FF608
:10558000F7731A40028002880A430280704702883B
:105590004FF6FF431A40028002880A430280704798
:1055A00021B1028842F00102028004E002884FF635
:1055B000FE731A400280704770B500240022002359
:1055C000058C4FF6FE7635400584028C8388048B6B
:1055D0004FF68F752C40B51E2C400D882C43751E40
:1055E0002A408D892A434D882A43524DA84202D031
:1055F000564DA84213D14FF6F7752A40CD892A435C
:105600004FF6FB752A408D882A434FF6FF652B40E5
:105610004FF6FF552B400D8A2B434D8A2B43838039
:1056200004838D684563028470BD70B50024002238
:105630000023058C4FF6EF7635400584028C838875
:10564000048B48F6FF752C404FF6FF452C400D8823
:105650004FF6FF7606EA05252C434FF6DF752A4004
:105660008D8906EA05152A434D8806EA05152A4361
:10567000304DA84202D0354DA8421DD14FF67F755E
:105680002A40CD894FF6FF7606EA05152A434FF6E4
:10569000BF752A408D8806EA05152A434FF6FF3567
:1056A0002B404FF2FF752B400D8A06EA85052B43F0
:1056B0004D8A06EA85052B43838004838D688563C4
:1056C000028470BD70B5002400220023058C4FF6C3
:1056D000FF6635400584028C8388848B4FF68F7576
:1056E0002C404FF6FC752C400D882C434FF6FF558F
:1056F0002A408D894FF6FF7606EA05252A434D8814
:1057000006EA05252A430B4DA84202D00F4DA842B8
:1057100038D14FF2FF752A40CD894FF6FF7606EA61
:1057200005252A434FF6FF352A408D8806EA0525D0
:105730002A4319E000000140000400400008004036
:10574000000C004000100040001400400004014024
:105750000040014000440140004801400018004062
:10576000001C0040002000404EF6FF752B404DF617
:10577000FF752B400D8A06EA05152B434D8A06EA74
:1057800005152B43838084838D68C563028470BDB7
:1057900070B5002200230024058C4EF6FF763540BC
:1057A0000584038C8488828B48F6FF752A404FF667
:1057B000FF452A400D884FF6FF7606EA05252A4365
:1057C0004DF6FF752B408D8906EA05352B434D8834
:1057D00006EA05352B43FE4DA84202D0FD4DA842F6
:1057E00008D14BF6FF752C400D8A4FF6FF7606EA7E
:1057F00085152C43848082838D680564038470BD85
:10580000002101804180818081608181C18101828C
:105810004182704770B503460020002418461830B6
:1058200001258D40ACB21D8CA5431D8409B108290A
:105830000AD100EB610005684FF68F7635400560B0
:105840000568154305600FE00D1FC5F34E0528449C
:10585000056848F6FF763540056005684FF6FF7627
:1058600006EA02263543056070BD416370478163D7
:105870007047C1637047016470470A460021018B7D
:105880004FF68F7319401143018370470A46002178
:10589000018B48F6FF7319404FF6FF7303EA0223AA
:1058A0001943018370470A460021818B4FF68F739D
:1058B00019401143818370470A460021818B48F6C5
:1058C000FF7319404FF6FF7303EA022319438183E4
:1058D00070470A460021018B4FF6F77319401143B8
:1058E000018370470A460021018B4FF2FF73194074
:1058F0004FF6FF7303EA02231943018370470A46F8
:105900000021818B4FF6F773194011438183704753
:105910000A460021818B4FF2FF7319404FF6FF7347
:1059200003EA02231943818370470A460021018B51
:105930004FF6FB7319401143018370470A4600215B
:10594000018B4FF6FF3319404FF6FF7303EA022332
:105950001943018370470A460021818B4FF6FB7380
:1059600019401143818370470A460021818B4FF60D
:10597000FF3319404FF6FF7303EA02231943818373
:1059800070470A460021018B4FF67F73194011437F
:10599000018370470A460021018BC1F30E014FF6C7
:1059A000FF7303EA02231943018370470A4600216B
:1059B000818B4FF67F7319401143818370470A46EC
:1059C0000021818BC1F30E014FF6FF7303EA02231E
:1059D0001943818370470A460021018C4FF6FD73FD
:1059E00019401143018470470A460021018C4FF68B
:1059F000F77319401143018470470A460021018C56
:105A00004FF6DF7319404FF6FF7303EA0213194391
:105A1000018470470A460021018C4FF67F731940BC
:105A20004FF6FF7303EA02131943018470470A46D5
:105A30000021018C4FF6FF5319404FF6FF7303EA24
:105A400002231943018470470A460021018C4FF25A
:105A5000FF7319404FF6FF7303EA022319430184D1
:105A600070470A460021018C4DF6FF7319404FF62E
:105A7000FF7303EA023319430184704730B50023F2
:105A800001248C40A3B2048C9C430484048C02FA4D
:105A900001F5ADB22C43048430BD30B5002304249D
:105AA0008C40A3B2048C9C430484048C02FA01F55C
:105AB000ADB22C43048430BD828B4FF2FF331A40C9
:105AC0008283828B4FF6FF7303EA01231A4382839A
:105AD0007047F0B50C461546002100220026078CC1
