:020000040800F2
:10000000B8180020150300081D0300081F0300088E
:100010002103000823030008250300080000000056
:10002000000000000000000000000000270300089E
:1000300029030008000000002B0300082D0300081E
:100040002F0300082F0300082F0300082F030008C8
:100050002F0300082F0300082F0300082F030008B8
:100060002F0300082F0300082F0300082F030008A8
:100070002F0300082F0300082F0300082F03000898
:100080002F0300082F030008F3050008A32D000824
:10009000B92D0008E12D00082F0300082F030008E8
:1000A0002F0300082F0300082F0300082F03000868
:1000B000110400088D260008C70B0008B5080008C9
:1000C0002F0300082F0300082F0300082F03000848
:1000D000F70900082F030008FF0700082F03000896
:1000E0002F0300082F0300082F0300082F03000828
:1000F0002F0300082F0300082F0300082F03000818
:100100002F0300082F0300082F0300082F03000807
:100110002F0300082F0300082F0300082F030008F7
:100120002F0300082F0300082F0300082F030008E7
:100130002F0300082F0300082F0300082F030008D7
:100140002F0300082F0300082F0300082F030008C7
:100150002F0300082F0300082F0300082F030008B7
:100160002F0300082F0300082F0300082F030008A7
:100170002F0300082F0300082F0300082F03000897
:100180002F0300082F03000800F002F800F0B2F877
:100190000AA090E8000C82448344AAF10107DA45E2
:1001A00001D100F0A7F8AFF2090EBAE80F0013F082
:1001B000010F18BFFB1A43F001031847C8D3000012
:1001C000E8D300000A444FF0000C10F8013B13F094
:1001D000070408BF10F8014B1D1108BF10F8015BA0
:1001E000641E05D010F8016B641E01F8016BF9D193
:1001F00013F0080F1EBF10F8014BAD1C0C1B09D1EA
:100200006D1E58BF01F801CBFAD505E014F8016B5B
:1002100001F8016B6D1EF9D59142D6D370470000ED
:100220000023002400250026103A28BF78C1FBD8FF
:10023000520728BF30C148BF0B6070476E2908F0D5
:10024000F381702908F03D8366290AF0148365293B
:100250000AF0118367290AF00E8361290AF00D83E1
:1002600003681B0A28BF41F08001692908F0A081BA
:10027000642908F09D81752908F09A816F2908F09A
:10028000CA82782908F00983E92908F06582E429FF
:1002900008F06282F52908F05F82EF2908F0C78232
:1002A000F82908F008830368DB0928BF41F08001C2
:1002B000632909F02D80732909F03280E32909F0C0
:1002C0003D80F32909F04280002070471FB50AF0F5
:1002D000C8FA09F0B3F804000020002109F0D4FDA9
:1002E000401C60600020002109F0B8FDE0601FBDE7
:1002F00010B510BD09F075F81146FFF7E7FF00F0E3
:1003000029F809F051F903B4FFF7F2FF03BC09F033
:1003100099F900000948804709480047FEE7FEE7D1
:10032000FEE7FEE7FEE7FEE7FEE7FEE7FEE7FEE7A5
:1003300004480549054A064B704700002D36000861
:1003400089010008B8120020B8180020B814002055
:10035000B81400201FB503F069F903F093F968465B
:1003600004F0CBFC02F0FEF941F6583002F0F4F84C
:1003700000F020F802F090F807F0D6F800F0DEF870
:1003800002F03AF807F02BFA00F071FC02F033FCAF
:100390000749087802F051FC00F026FC62B6002004
:1003A00080F3108800BF01E002F0ABF9FCE7000029
:1003B000CC02002010B50121084604F0B6FD002053
:1003C000504948805320088064204860000703F0AB
:1003D000E6FD01221146900704F082FA1C20002855
:1003E0000DDB00BF00BF00F01F0201219140420958
:1003F000920002F1E022C2F8001100BF00BF00BF6E
:100400000121880703F054FE10BD3F480088704763
:1004100010B50121880704F08BFA3B480088401C86
:100420003949088039480078401C3849087000BFB5
:1004300037480078022814D1002035490870354823
:10044000008800EBC00101EB00103349098801EB83
:100450008000324908803248806840F0804030494E
:10046000886000BF00F003F807F097F910BD2A4834
:100470000088642805DA28480088401C264908803E
:100480003EE02848008810B12748008880B12748FE
:100490000088401C00B2254908800846B0F90000D9
:1004A000322805DB2248007840F00100204908701E
:1004B00000201949088000BF164800881E2805DA68
:1004C00014480088401C134908800EE000201149A0
:1004D00008800F48007818B901200D49087004E021
:1004E00014480088401C1349088013480088962847
:1004F00004DA11480088401C0F49088000BF00BF83
:10050000704700007403002022000020A602002093
:1005100055000020200000201E00002018000020B0
:1005200000200140CC020020D0020020A8020020C0
:10053000AB0200201A0000202400002000B58DB07E
:1005400003A805F02EFB002003900590049003A85B
:1005500005F016FB0121080204F0F8FC07A805F0DD
:1005600005FB0020079001208DF8200000208DF869
:10057000210009900A900B9001208DF8300007A906
:100580003D4805F0CEFA01213B4805F010FB012261
:1005900040F20521384805F0ABFC122000280DDBA5
:1005A00000BF00BF00F01F020121914042099200EC
:1005B00002F1E022C2F8001100BF00BF00BF042317
:1005C000012200212C4805F032FB0121084604F0ED
:1005D00065FC00208DF80A008DF80B0003208DF8D3
:1005E0000800C320019001A9244803F03DF90DB093
:1005F00000BD10B540F205211F4805F0A1FC0128FF
:1006000034D11D48C06C1E491E4A127821F81200D0
:100610001C480078042814DA1A480078401C19494C
:10062000087019480A461278815C04230122124896
:1006300005F0FDFA1048806840F080400E4988605F
:100640000EE000200F4908700F480A461278815CBE
:1006500004230122084805F0EAFA01200B4908703A
:100660000548006820F002000349086010BD0146FB
:10067000034830F81100704700200140000002409C
:100680003C00002029000020380000202800002025
:100690005B49088070475A480088704710B5584831
:1006A0000830008840F004005549083108800122D4
:1006B00040F225515248001F03F03FFB10BD10B51A
:1006C0004F480830008820F004004D490831088068
:1006D000002240F225514A48001F03F02EFB10BDB6
:1006E00010B547480830008840F0080044490831F8
:1006F0000880012240F226614148001F03F01DFBE3
:1007000010BD10B53E480830008820F008003C4974
:1007100008310880002240F226613948001F03F0AA
:100720000CFB10BD10B5002440F225513448001FC9
:1007300003F03EFB08B14FF4005440F2266130480C
:10074000001F03F035FB08B144F40044204610BDFF
:100750001CB50121084604F0A1FB0722022129480B
:1007600003F00DF900208DF8060001208DF8070038
:1007700002208DF804000420009002208DF805006E
:100780006946204803F070F80121084604F086FB12
:10079000072203211B4803F0F2F800208DF8060021
:1007A00001208DF8070002208DF804000820009039
:1007B00002208DF805006946124803F055F8012122
:1007C000480404F0B2FB4FF461400F490860002078
:1007D0008880C880088188810C2048810848001FD3
:1007E00003F06DF901210648001F03F0F0F9012222
:1007F00040F225510248001F03F09FFA1CBD7047CC
:100800000444004000000240800300201CB5012188
:10081000022004F043FBC020009002208DF8040069
:1008200003208DF8050001208DF8060000208DF8CA
:1008300007006946254803F017F8042206212348DB
:1008400003F09DF804220721204803F098F80121C5
:10085000480504F06AFB01211D4805F02EFC1C48E8
:1008600005F086FB4FF480601A49488100018881B9
:10087000194808604BF6FF70C88000208880FF2070
:100880000881134805F09DFB00BF4FF4003110486C
:1008900005F050FD0028F8D1012291020C4805F026
:1008A0001EFD1F200D49087000204870012088702F
:1008B000C8701CBD10B50A49054805F07EFD084901
:1008C0004031034805F079FD10BD000000040240EE
:1008D0000054004090030020E093040048000020F2
:1008E0004000000600B587B00121022004F0D6FACE
:1008F0000121042004F0D2FA4FF48040009001203E
:100900008DF8040003208DF8050000208DF8060006
:100910008DF807006946684802F0A6FF0C20009099
:1009200002208DF8040003208DF8050000208DF8CA
:1009300006008DF807006946604802F095FF4FF405
:100940008060009002208DF8040003208DF80500DF
:1009500000208DF806008DF807006946564802F021
:1009600083FF05220A21544803F009F805220221D9
:10097000524803F004F805220321504802F0FFFF1B
:100980000121880304F0D1FA4D4805F01DFD002037
:10099000ADF80800ADF80C00ADF80E00ADF8100091
:1009A0004FF40070ADF812003820ADF814000020AC
:1009B000ADF816000720ADF818004FF48270ADF8BE
:1009C0000A0002A93E4805F04BFD01213C4805F014
:1009D00041FE012260213A4805F0E4FE2420394915
:1009E00008700020487001208870C870084602F026
:1009F00044FD07B000BD10B56021314805F0FEFE92
:100A0000012824D12E4805F0A3FE2F492F4A128831
:100A100021F812002D480088401C2C4908802C48E1
:100A20000088401C2A4908802A4800880988884292
:100A300008DD2848264A128830F81210204805F0B0
:100A40008AFE04E00020214908802149088010BD69
:100A500070B50124AA201F4921F81400641CF1205C
:100A600021F81400641C002021F81400641CFF20ED
:100A700021F81400641C022021F81400641C0846AC
:100A800004800120114908801149088011480A4654
:100A9000128830F812100A4805F05DFE0D480088F3
:100AA0004FF6FF7101EA400500BF0948008808B110
:100AB000002DFAD1284670BD000402400008024013
:100AC0000038004044000020A00300204E00002019
:100AD00050000020680400201CB50121022004F011
:100AE000DDF9C020009002208DF8040003208DF86D
:100AF000050000208DF806008DF80700694635488E
:100B000002F0B2FE02220621324802F038FF022231
:100B10000721304802F033FF0121042004F005FAD8
:100B20004FF47A702C494860012008800020088129
:100B300040204880294803F032FA60202849088084
:100B4000012048800020886088814FF480700882EE
:100B5000224803F0B9FA0020214988811F4803F098
:100B6000ECFA00201F49088048808880C8800881EE
:100B70004FF40050488100208881184803F070FE2F
:100B80000021164803F0F9FB0021144803F0F7FB9D
:100B90000021124803F0F5FB0121104803F079FE13
:100BA0001E2000280DDB00BF00BF00F01F02012146
:100BB00091404209920002F1E022C2F8001100BF08
:100BC00000BF00BF1CBD10B50821044803F0B0FEF3
:100BD00010BD000000040240300500200008004065
:100BE0003C0500205A05002010B5FF2006F00EFE3F
:100BF000002006F0EBFD06F00FFE642007F09DFAE2
:100C00003F237F220021084606F074FF06F004FE11
:100C1000642007F092FA012007F040F9012007F064
:100C2000F0F8002006F0D2FD3F237F220021084685
:100C300006F042FFFCA301221146052006F0B8FE93
:100C4000FDA301221521052006F0B2FEFDA301221D
:100C50002921052006F0ACFE06F0DEFD642007F039
:100C60006CFA10BD0146FA4830F81100704710B513
:100C70004520F749888008468088C0EB003000EEA8
:100C8000100AB8EEC00ADFEDF30A80EE201ABCEEBF
:100C9000C10A10EE100A84B22146022001F0DFFBE7
:100CA00010BD2DE9F0432DED0A8B85B09FEDEA0ACA
:100CB00010EE108A9FEDE80A10EE109AE7480068DF
:100CC00040F40050E54908600846006820F4804080
:100CD000086040F6FF71012001F0C1FBE0A3002293
:100CE0001146012006F064FEE248008800287DD10C
:100CF00001F003FCD64908800846008800EE100A7F
:100D0000B8EE400ADFEDDC0A20EE200ADFEDD10A62
:100D100080EE201ABCEEC10A10EE100A84B2204602
:100D200001F09AFC00EE104AB8EE408A18EE100A64
:100D300009F026FD41EC190B8DED009BCFA300229D
:100D40000A21012006F034FE0120FFF790FC054641
:100D500000EE105AB8EE400AF3EE0F0A20EE200A19
:100D6000DFEDCA0A80EE201A11EE108A404609F023
:100D700007FD41EC190B8DED009BC5A3002214214A
:100D8000012006F015FE0020FFF771FC064600EE7C
:100D9000106AB8EE400AF3EE0F0A20EE200ADFEDEB
:100DA000BB0A80EE201A11EE109A484609F0E8FCC2
:100DB00041EC190B8DED009BBAA300221E210120EE
:100DC00006F0F6FDA2484088C0EB003000EE100AA5
:100DD000B8EEC00ADFED9F0A80EE201ABCEEC10A11
:100DE00010EE100A87B200EE107A00E05AE0B8EE7A
:100DF000400ADFEDB10A20EE200ADFEDA40AC0EEC2
:100E0000208A18EE900A09F0BBFC41EC190B8DED1D
:100E1000009BAAA300222821012006F0C9FDAD48AD
:100E2000008800EE100AB8EE400A10EE100A09F031
:100E3000A7FC41EC1C0B9FEDA80B53EC102B09F009
:100E4000ABFA41EC1B0B9FEDA60B53EC102B09F0FA
:100E50000BF941EC190BA448008800EE100AB8EE1B
:100E6000400A10EE100A09F08BFC41EC1C0B9FEDC0
:100E70009A0B53EC102B09F08FFA41EC1B0B9FEDF2
:100E8000980B53EC102B09F0EFF841EC1A0B8DED99
:100E9000029B8DED00AB95A300223221012006F0CC
:100EA00087FD1DE097A300220A21012006F080FDA6
:100EB00098A300221421012006F07AFD9AA30022B3
:100EC0001E21012006F074FD9CA300222821012090
:100ED00006F06EFD9FA300223221012006F068FD7E
:100EE00005B0BDEC0A8BBDE8F0832DE9F0432DED94
:100EF000068B83B09FED580A10EE108A9FED560ABC
:100F000010EE109A5548006840F4005053490860AC
:100F10000846006820F480400860642001F09CFBD3
:100F200090A300221146012006F042FD514800889E
:100F3000002877D101F0E1FA454948800846408809
:100F4000C0EB003000EE100AB8EEC00ADFED410A37
:100F500080EE201ABCEEC10A10EE100A84B22146BF
:100F6000012001F07CFA00EE104AB8EE400ADFEDF5
:100F7000520A20EE200ADFED450A80EE208A18EEA4
:100F8000100A09F0FDFB41EC190B8DED009B79A3D4
:100F900000220C21012006F00BFD0120FFF767FB6A
:100FA000054600EE105AB8EE400AF3EE0F0A20EEA6
:100FB000200ADFED360A80EE201A11EE108A404634
:100FC00009F0DEFB41EC190B8DED009B30A30022F4
:100FD0001821012006F0ECFC0020FFF748FB064634
:100FE00000EE106AB8EE400AF3EE0F0A20EE200A77
:100FF000DFED260A80EE201A11EE109A484609F01D
:10100000BFFB41EC190B8DED009B26A30022242190
:10101000012006F0CDFC0E49088809F0AAF941EC40
:101020001A0BAFE0D7E00000C2FBE1EEF020F0E5E4
:10103000E6E8ECE000000000EDE0E6E0F2E8E5ECD8
:1010400000000000E5EDEAEEE4E5F0E0000000005D
:1010500068050020000080430000000014040240E6
:10106000564C2D494E2850574D2920436F6E7472AF
:101070006F6C0000CC0200200000C84250574D2089
:101080003D2025302E3066202525000000008045BB
:10109000492D4C4F4144203D202025302E326620E2
:1010A00041000000492D503438203D202025302EAD
:1010B000326620410000000033335340D6C0CF20B9
:1010C00056412D494E203D202025302E3266205697
:1010D00000000000B20200206666666666A64F4009
:1010E0000000000000007040B0020020562D4C456A
:1010F000443D25302E316620562D4255533D253036
:101100002E316600C8F1F2EEF7EDE8EA20534C41CB
:1011100056450000E820EDE520F0E5E3F3EBE8F0CC
:10112000F3E5F2F1FF000000E2EDE5F8EDE8ECE8B0
:1011300020F1E8E3EDE0EBE0ECE80000CFE5F0E5DE
:10114000E9E4E8F2E520E220EEEAEDEE2043414E4C
:1011500000000000F7F2EEE1FB20F3EFF0E0E2EB3D
:10116000FFF2FC0056412D494E20436F6E74726FA2
:101170006C000000D6C0CF203D202025302E3266E6
:10118000205600009FEDFE0B53EC102B09F004F9E4
:1011900041EC190B08F08EFE00EE100A5FED530AC9
:1011A00080EE201ABCEEC10A10EE100A87B200EEE3
:1011B000107AF8EE408A18EE900A09F0E1FA41EC54
:1011C000190B8DED009BAFF24C1300223021012052
:1011D00006F0EEFB22E0AFF2D40300220A21012048
:1011E00006F0E6FBAFF2D40300221421012006F042
:1011F000DFFBAFF2CC0300221E21012006F0D8FB5A
:10120000AFF2C80300222821012006F0D1FBAFF283
:10121000BC0300223221012006F0CAFB03B0BDEC62
:10122000068BBDE8F0832DE9F0432DED048B83B0F0
:101230001FED770A10EE109AD3A300221146012069
:1012400006F0B6FB01F059F9D2498880084680883B
:10125000C0EB003000EE100AB8EEC00A5FED830A62
:1012600080EE201ABCEEC10A10EE100A84B22146AC
:10127000022001F0F4F800EE104AB8EE400A5FEDEB
:10128000720A20EE200A5FED7F0A80EE201A11EE2E
:10129000106A304609F074FA41EC190B8DED009B91
:1012A000AFF2301300220C21012006F081FB022056
:1012B000FFF7DDF9054600EE105AB8EE400A5FED83
:1012C000820A20EE200A5FED8F0A80EE201A11EECE
:1012D000107A384609F054FA41EC190B8DED009B59
:1012E000ADA300221821012006F062FB284601F080
:1012F00093FA08EE100AB8EEC80ADFEDAC0A80EEE9
:10130000201A11EE108A404609F03AFA41EC190B06
:101310008DED009BA6A300222421012006F048FBAE
:101320000120FFF7A4F908EE900AB8EE680AF3EE80
:101330000F0A20EE200A5FEDAB0A80EE201A11EEB4
:10134000109A484609F01CFA41EC190B8DED009BF0
:10135000AFF2C42300223021012006F029FB03B0A4
:10136000BDEC048BBDE8F083F0B52DED068B83B0AA
:101370001FEDC70A10EE104A1FEDC90A10EE105AF1
:101380001FEDCB0A10EE106A1FEDCD0A10EE107A99
:101390008DA300221146012006F00AFB01F0ADF8F2
:1013A0007C49C8800020FFF762F908EE100A03208C
:1013B000FFF75DF908EE900A0220FFF758F909EEF1
:1013C000100A0120FFF753F909EE900AB8EE480A17
:1013D0005FEDC70A20EE200A5FEDD40A80EE201AE6
:1013E00011EE104AB8EE680A5FEDCD0A20EE200A31
:1013F0005FEDDA0A80EE201A11EE105AB8EE490AB3
:101400005FEDD30A20EE200A5FEDE00A80EE201A9D
:1014100011EE107AB8EE690A5FEDD90A20EE200AC3
:101420005FEDE60A80EE201A11EE106A204609F000
:10143000A7F941EC1A0B8DED00AB66A300220C213D
:10144000012006F0B5FA284609F09AF941EC1A0B8A
:101450008DED00AB65A300221821012006F0A8FA4B
:10146000384609F08DF941EC1A0B8DED00AB4AA31B
:1014700000222421012006F09BFA304609F080F971
:1014800041EC1A0B8DED00AB5EA300223021012050
:1014900006F08EFA03B0BDEC068BF0BD2DE9F04FDF
:1014A0002DED088B87B09FED5D0A10EE106A9FED61
:1014B0005B0A10EE107A9FED590A10EE108A584818
:1014C000008801285AD101F018F8324908800888AC
:1014D00008F04FFF41EC1A0B9FED520B53EC102B11
:1014E00008F05AFF41EC190B08F0E4FC00EE100A7A
:1014F000DFED4E0A80EE201ABCEEC10A10EE100A93
:101500004B4908804BA300220A21012006F050FA23
:101510004748008800EE100AB8EE400ADFED490A9D
:1015200020EE200ADFED480A80EE201A11EE109A14
:10153000484609F025F941EC190B8DED009B43A3BA
:1015400000221521012006F033FA3948008800EE08
:10155000100AB8EE400AF3EE040A20EE200ADFED8E
:101560003A0A80EE201A11EE106A0220FFF77FF887
:101570008246504601F050F9834671E0BCE000001D
:101580000000000000005940D2E5F0ECEEE4E0F28B
:10159000F7E8EA0068050020C0D6CF2054454D503A
:1015A000203D202025302E32662056000000804746
:1015B00074203D202025302E326620E3F0E0E42028
:1015C000F6E5EBFCF1000000C0D6CF2C20E2EEEBFC
:1015D000FCF20000C0D6CF20492D503438203D20E9
:1015E0002025302E3266205600000000C0D6CF20C5
:1015F000434F4E2D494E203D202025302E3266206F
:1016000056000000C0D6CF20492D4C4F4144203D0C
:10161000202025302E3266205600000000000000F9
:10162000CC0200203EF8E0830F3EA840000080433B
:10163000C802002043414E204D6173746572204DF5
:101640006F6465000000C8427CF04145C7E0E4E0FB
:10165000EDE8E5203D202025302E326620252500AE
:10166000584601F010F900EE100AB8EE400AF3EE09
:10167000040A20EE200A5FED0C0A80EE201A11EE1B
:10168000107A304609F07CF841EC190B8DED009B87
:10169000FEA300221F21012006F08AF9384609F036
:1016A0006FF841EC190B8DED009BFDA30022292161
:1016B000012006F07DF90120FEF7D9FF044600EE77
:1016C000104AB8EE400AF3EE0F0A20EE200ADFEDD2
:1016D000FA0A80EE201A11EE108A404609F050F8FE
:1016E00041EC190B8DED009BAFF25C6300223321BE
:1016F000012006F05DF9D2E0F0A30022114601209E
:1017000006F056F9F148007800287CD100F0F5FE8B
:10171000EF4908800846008800EE100AB8EE400A3B
:101720005FED380A20EE200A5FED400A80EE201AB5
:10173000BCEEC10A10EE100A85B2284600F08CFFFC
:1017400000EE105AB8EE408A18EE100A09F018F8A8
:1017500041EC190B8DED009BAFF2E06300220B21F1
:10176000012006F025F9DB48008800EE100AB8EEEB
:10177000400AF3EE040A20EE200A5FED4D0A80EEE7
:10178000201A11EE106A0220FEF771FF82465046C1
:1017900001F042F88346584601F075F800EE100A51
:1017A000B8EE400AF3EE040A20EE200A5FED5A0A72
:1017B00080EE201A11EE107AC748007800EE100A69
:1017C000B8EE400A10EE100A08F0DAFF41EC190BEF
:1017D000C248007800EE100AB8EE400A10EE100A77
:1017E00008F0CEFF41EC1A0BBD48007800EE100A5D
:1017F000B8EE400A10EE100A08F0C2FF41EC1B0BD5
:101800008DED049B00E044E08DED02AB8DED00BB5F
:10181000B4A300221521012006F0CAF8304608F0D2
:10182000AFFF41EC190B8DED009B98A300221F2107
:10183000012006F0BDF8384608F0A2FF41EC190B74
:101840008DED009B96A300222921012006F0B0F81F
:101850000120FEF70CFF044600EE104AB8EE400AE5
:10186000F3EE0F0A20EE200ADFED930A80EE201A35
:1018700011EE108A404608F083FF41EC190B8DED04
:10188000009BAFF2F47300223321012006F090F8A0
:1018900005E09CA300220B21012006F089F807B087
:1018A000BDEC088BBDE8F08F10B59BA3012211465B
:1018B000104606F07DF810BD10B599A3012211461F
:1018C000104606F075F810BD10B597A30122114619
:1018D000104606F06DF810BD10B595A30122114613
:1018E000104606F065F810BD10B501209249088039
:1018F000052092490870002000F014FE10BD10B5BC
:101900002DED028B86B08E48006840F400508C4963
:1019100008600846006820F48040086089A300221F
:101920001146012006F044F800F0E7FD88490880E0
:1019300008460088FF2801DDFF20088085480088D0
:1019400085A300220B210090012006F031F8804889
:10195000008800EE100AB8EE400A5FEDC60A20EEDD
:10196000200A5FEDCE0A80EE201A11EE104A2046C2
:1019700008F006FF41EC180B8DED008BAFF234330D
:1019800000221521012006F013F8764801887648D8
:10199000028876480088764B1B88CDE90230CDE975
:1019A0000421744800887449098874A30022CDE991
:1019B00000101F21012005F0FBFF06B0BDEC028BDB
:1019C00010BD10B52DED048B84B05D48006840F467
:1019D00000505B4908600846006820F480400860B9
:1019E0003A48007800284FD16BA30022114601200D
:1019F00005F0DEFF6D48008800EE100AB8EE400AE0
:101A0000DFED6B0A20EE200ADFED6A0A80EE201A75
:101A100011EE104A204608F0B3FE41EC180B664860
:101A2000008800EE100AB8EE400A5FEDFA0A20EED8
:101A3000200ADFED600A80EE201A11EE104A2046DF
:101A400008F09EFE41EC190B8DED028B8DED009B95
:101A50005AA300220B21012005F0AAFF5D4800884F
:101A600000EE100AB8EE400ADFED510A20EE200A1F
:101A7000DFED500A80EE201A11EE104A204608F0E1
:101A80007FFE41EC180BA7E0F3E00000C7E0E4E0C4
:101A9000EDE8E5203D202025302E32662041200053
:101AA000D2E5ECEF2E20EAEEF0F02E203D202025AE
:101AB000302E3266204120000000804543414E20F8
:101AC000536C617665204D6F64650000AB020020A9
:101AD00068050020C8020020AA020020AE020020F3
:101AE000AC0200205265673D25302E3066205057ED
:101AF000523D25302E3066205354423D25302E3045
:101B0000662000004552524F522C204E4F20444137
:101B1000544120494E0000005445535420310000E8
:101B20005445535420320000544553542033000090
:101B30004552524F52000000D202002053000020B4
:101B40001404024054657374204D6F6465000000F6
:101B500056000020D402002050572D454E2020254D
:101B600075000000E2020020E0020020DE020020FA
:101B7000DC020020DA020020D8020020D8C8CC20E5
:101B80002025752C2025752C2025752C2025752CBD
:101B90002025752C2025750054657374204D6F64C5
:101BA000652C2043414E204F4B000000B80200201E
:101BB0003333534000007F43BA020020564C203D8F
:101BC0002025302E3066205641203D2025302E32F3
:101BD00066000000C40200208DED008BFDA30022F2
:101BE0001521012005F0E4FEFE48008800EE100AF1
:101BF000B8EE400A10EE100A08F0C2FD41EC180BD6
:101C0000F948008800EE100AB8EE400A10EE100AFB
:101C100008F0B6FD41EC190B8DED028B8DED009BAC
:101C2000F2A300221F21012005F0C2FEF548008822
:101C300000EE100AB8EE400A10EE100A08F0A0FDFF
:101C400041EC180BF048008800EE100AB8EE400A8C
:101C500010EE100A08F094FD41EC190B8DED028B8B
:101C60008DED009BE9A300222921012005F0A0FEB3
:101C700005E0ECA300220B21012005F099FE04B041
:101C8000BDEC048B10BD10B52DED048B84B0EB487A
:101C9000007800287DD100F030FC0446C01704EB2A
:101CA0009070E749098801EBA000E5490880002011
:101CB00000F038FCE2480088052802DB0020E049FB
:101CC0000880DF480088052872D2DFE800F0037240
:101CD000DFFEFD00DB48006840F48040D949086021
:101CE0000846006820F4005008600846006840F488
:101CF00000400860D4A300220121084605F058FEE8
:101D0000D6A300220B21012005F052FEB548008821
:101D100000EE100AB8EE400A10EE100A08F030FD8E
:101D200041EC180BB048008800EE100AB8EE400AEB
:101D300010EE100A08F024FD41EC190B8DED028B1A
:101D40008DED009BA9A300221521012005F030FE96
:101D5000AC48008800EE100AB8EE400A10EE100AF7
:101D600008F00EFD41EC180BA748008800EE100AA1
:101D7000B8EE400A10EE100A08F002FD41EC190B13
:101D80008DED028B8DED009BA0A300221F21012071
:101D900000E07EE205F00CFEB5A30022292101201F
:101DA00005F006FEB7A300223321012005F000FE56
:101DB0006EE2A448006820F48040A249086008460A
:101DC000006840F4005008600846006820F40040B5
:101DD0000860B1A300220121084605F0E9FD9FA398
:101DE00000220B21012005F0E3FD7E48008800EE73
:101DF000100AB8EE400A10EE100A08F0C1FC41ECDF
:101E0000180B7948008800EE100AB8EE400A10EE70
:101E1000100A08F0B5FC41EC190B8DED028B8DED2D
:101E2000009B72A300221521012005F0C1FD754819
:101E3000008800EE100AB8EE400A10EE100A08F012
:101E40009FFC41EC180B7048008800EE100AB8EEB9
:101E5000400A10EE100A08F093FC41EC190B8DEDCE
:101E6000028B8DED009B69A300221F21012005F04C
:101E70009FFD7FA300222921012005F099FD81A368
:101E800000223321012005F093FD01E2142000F02F
:101E9000E3FB40F2D941012000F0E1FA40F2D941E0
:101EA000022000F0DCFA81A300220121084605F09F
:101EB0007FFD6AA300220B21012005F079FD8148F6
:101EC000008800EE100A01E068E15AE0B8EE400A2E
:101ED0005FEDC90A20EE200A5FEDCA0A80EE201AE3
:101EE00011EE104A204608F04BFC41EC180B7648E6
:101EF000008800EE100AB8EE400ADFED740A20EE0A
:101F0000200A5FEDD40A80EE201A11EE104A204616
:101F100008F036FC41EC190B8DED028B8DED009B2A
:101F2000AFF2683300221521012005F041FD684819
:101F3000008800EE100AB8EE400A5FEDE30A20EEDA
:101F4000200A5FEDE40A80EE201A11EE104A2046C6
:101F500008F016FC41EC180B8DED008B1DA3002240
:101F60001F21012005F024FD41A300222921012089
:101F700005F01EFD43A300223321012005F018FDCA
:101F800086E1322000F068FB40F61F41012000F09E
:101F900066FA40F61F41022000F061FA4DA30022CC
:101FA0000121084605F004FD2CA300220B2101208D
:101FB00005F0FEFC4348008800EE100AB8EE400A27
:101FC000DFED4A0A20EE200ADFED490A80EE201AF2
:101FD00090E0000054656D706572203D2025302E24
:101FE00032660000BC020020C0020020564F464668
:101FF0003D25302E3066205354423D25302E30662C
:1020000020000000C2020020BE0200204D415354B7
:1020100045523D25302E3066204552523D25302E0A
:10202000306620004552524F522043414E2C204EE4
:102030004F204441544120494E000000AB02002093
:102040005800002014040240564F46463D45525267
:102050003D312C5354423D3000000000EFF0E8EDDC
:10206000FFF2FBE520E7EDE0F7E5EDE8FF3A0000E1
:10207000C2F0E0F9E0E9F2E520F0F3F7EAF320E45A
:10208000EBFF0000F1EBE5E4F3FEF9E5E3EE20F20F
:10209000E5F1F2E02E000000564F46463D45525213
:1020A0003D302C5354423D31000000004144433147
:1020B0003D414443323D312C2050574D3D32302C70
:1020C00000000000B8020020BA0200200000C84250
:1020D000C4020020414443313D414443323D322E4D
:1020E000352C2050574D3D35302C000033335340B4
:1020F00000007F4311EE104A204608F041FB41ECFE
:10210000180BAD48008800EE100AB8EE400A5FEDEB
:10211000110A20EE200A5FED0A0A80EE201A11EE65
:10212000104A204608F02CFB41EC190B8DED028B78
:102130008DED009BAFF27C5300221521012005F0AC
:1021400037FC9E48008800EE100AB8EE400A5FEDAA
:10215000190A20EE200A5FED1A0A80EE201A11EE0D
:10216000104A204608F00CFB41EC180B8DED008B5B
:10217000AFF2A01300221F21012005F019FCAFF2DD
:10218000101300222921012005F012FCAFF20C13DC
:1021900000223321012005F00BFC79E0502000F0F3
:1021A0005BFA0021012000F05AF90021022000F022
:1021B00056F983A300220121084605F0F9FBAFF28E
:1021C000641300220B21012005F0F2FB82480088F5
:1021D00000EE100AB8EE400A5FED3C0A20EE200A3D
:1021E0005FED3D0A80EE201A11EE104A204608F0FD
:1021F000C7FA41EC180B7048008800EE100AB8EEE0
:10220000400A5FED4E0A20EE200A5FED470A80EE9D
:10221000201A11EE104A204608F0B2FA41EC190BD0
:102220008DED028B8DED009BAFF2706300221521C6
:10223000012005F0BDFB6148008800EE100AB8EEF1
:10224000400A5FED560A20EE200A5FED570A80EE45
:10225000201A11EE104A204608F092FA41EC180BB1
:102260008DED008BAFF2942300221F21012005F099
:102270009FFBAFF2042300222921012005F098FBE7
:10228000AFF2002300223321012005F091FB00BFB3
:1022900009E0AFF2702300220B21012005F088FB3A
:1022A00000204E49088004B0BDEC048B10BD10B571
:1022B00000F0A2FE4A4909780844494908700846D6
:1022C0000078022801DD0020087000F098FE4448E4
:1022D000007820B1012805D0022809D105E0FFF7D8
:1022E0000EFB08E0FFF76DFB05E0FFF7CCFC02E01A
:1022F000FFF7F2FA00BF00BF10BD10B5002039494A
:10230000088000F079FE3849097808443649087099
:1023100008460078042801DD0020087000F06FFEF8
:1023200031480478042C00D10024304800782E492C
:102330000978884205D02E4931F8141008B200F00F
:10234000F1F82948007829490870274800780828BA
:102350001DD2DFE800F004070A0D10131619FEF76E
:10236000A0FC17E0FEF7C1FD14E0FEF75CFF11E0F2
:10237000FEF7FAFF0EE0FFF791F80BE0FFF794FA93
:1023800008E0FFF799FA05E0FFF79EFA02E0FFF791
:10239000A3FA00BF00BF10BD10B5002005F016FA6B
:1023A0001448008810B9FFF7A8FF01E0FFF77FFF8E
:1023B00005F032FA10BD0000BA020020C40200206D
:1023C000414443313D414443323D302C2050574D30
:1023D0003D38302C00000000B802002058000020DA
:1023E00054000020D20200205200002053000020A0
:1023F00068050020D00200201CB50121480702F02A
:1024000094FD224804F040FA2049002004F025FA07
:102410001E49102004F021FA0121002004F03AFAAC
:102420000121102004F036FA0021084604F080FA59
:102430000021084604F089FA0121084602F02EFD29
:1024400000208DF806008DF8070003208DF80400A9
:102450003020009069460E4801F006FA1CBDB1F527
:10246000805F01DB40F6FF71012802D0022807D10E
:1024700002E0084A116006E0064A0C32116002E0F0
:10248000044A116000BF00BF7047000078050020BB
:1024900000000240087400401CB50121084602F00B
:1024A00055FD0121084602F0F9FC4FF44070009000
:1024B00002208DF8040003208DF8050000208DF81F
:1024C00006008DF807006946214801F0CDF9012288
:1024D00008211F4801F053FA012209211C4801F08C
:1024E0004EFA03201B49088101211A4801F0E0FD42
:1024F0000121184802F0CDF91CBD1648406A40423F
:1025000001B2002903DA0020124A50627047B1F587
:10251000807F05DD6FF0FF000E4A50629015F5E7F1
:1025200088B2F3E7002803DA00210A4A51620AE080
:10253000B0F5807F04DD6FF0FF01064A516202E0D2
:102540004142044A51627047002002494862704784
:10255000000002400000014010B58EB0044641F278
:102560008830844201DA044604E042F2107084426A
:1025700000DD044600EE104AB8EE400ADFED460AE0
:1025800080EE801ABCEEC10A10EE100A43490880A2
:102590000121022002F082FC0120009002208DF82F
:1025A000040003208DF8050000208DF806008DF84A
:1025B000070069463A4801F057F9022200213848DD
:1025C00001F0DDF90121022002F0AFFC3348008860
:1025D0000C900020ADF82C00ADF834004020ADF890
:1025E0002E000BA92F4801F0DAFC6020ADF818008E
:1025F0000120ADF81A0000200890ADF824004FF437
:102600008070ADF8280006A9264801F0E3FD0020FF
:10261000ADF80800ADF80A00ADF80C00ADF80E00FA
:10262000ADF810004FF40050ADF812000020ADF8E6
:10263000140002A91B4802F013F918480188194830
:1026400001F09FFE0121174801F032FD01211548DC
:1026500002F01FF90EB010BD70B504460F4909888D
:1026600004FB01F000EE100AB8EEC00ADFED0E0A1E
:1026700080EE201ABCEEC10A10EE100A85B207489F
:102680000088411B074801F07CFE70BD10B5082191
:10269000044802F04DF910BDA037204C5A0000202C
:1026A00000040240000400400000C84210B5244865
:1026B000008808B9FFF718F92248018822480088E5
:1026C00000F05AFB10BD10B52048008878B12048B2
:1026D000008848B900201F490870012000F0ADFAB9
:1026E00001201B4908800BE000F02CFB08E0184893
:1026F000008828B1002000F0A0FA002014490880CA
:1027000010BD10B500F0DAFC1348008808B900F0DD
:102710007AFC12480088962810DB114800780128BE
:1027200004D1FFF739FE02200D4908700A480088DD
:1027300010B9FFF7C8FF01E0FFF7B8FF10BD0000B8
:10274000D2020020D602002056000020CC02002039
:10275000CE020020A6020020D0020020240000208B
:10276000550000201CB50121022002F097FB00203B
:102770008DF8060001208DF807008DF804004FF455
:102780006040009000208DF8050069461F4801F068
:102790006BF80121042002F081FB00208DF8060077
:1027A0008DF807008DF804004FF6FF7000900020B0
:1027B0008DF805006946164801F056F801210846D3
:1027C00002F06CFB00208DF806008DF807008DF8F4
:1027D00004004FF48060009000208DF805006946E9
:1027E0000C4801F041F809481430006840F480407A
:1027F0000649143108600846006820F4005008605B
:102800000846006840F4004008601CBD0004024017
:1028100000080240000002402DE9F04F2DED048B2E
:1028200083B005467E4802907E480190962D24DDB7
:10283000284607F09EFD9FED7C0B53EC102B07F014
:10284000A9FE07F069FD83465946284600F0FEF8C8
:102850008146484600F00BF9064642F2C7607043D5
:10286000C7136F4807EB000A51464FF0806000F035
:10287000EDF804466B49A4EB0108404603B0BDECFB
:10288000048BBDE8F08FF0B50446F2EE046AF0EE7A
:10289000663AF2EE046AB0EE666ADFED656AB0EEA3
:1028A000660ADFED636AB0EE664A06EE904AF8EE1D
:1028B000E66A9FED607AC6EE877AF0EE672A5E4E92
:1028C000368806EE906AF8EE666ADFED5C7A86EE90
:1028D000A77ADFED5B6A67EE266AF0EE661A0121E1
:1028E00001E04E1CF1B2574E06EB8106D6ED006AB0
:1028F000F4EEE26AF1EE10FAF3D30A461146561EE0
:10290000504F07EB8606D6ED006AF0EE663A3E467B
:1029100006EB8206D6ED006AB0EE666A012101E0A0
:102920004E1CF1B201EB4106464F07EB0616D6ED01
:10293000006AF4EEE16AF1EE10FAF1D30B461946A3
:102940005E1E06EB460607EB0616D6ED006AB0EEF5
:10295000660A03EB430607EB0616D6ED006AB0EEF7
:10296000664A5E1E06EB460607EB0617561E07EB89
:102970008606D6ED000A5E1E06EB4606314F07EBD3
:10298000061606EB820696ED002A03EB430607EBDC
:102990000617561E07EB8606D6ED004A03EB4306E4
:1029A000284F07EB061606EB820696ED005A71EEED
:1029B000C06A34EEE07A66EE876A74EE407A86EE9C
:1029C000A77A37EE201A71EEC06A35EE427A66EECB
:1029D000876A74EE407A86EEA77A77EE025A75EE31
:1029E000C16A32EEE37A66EE876A76EE637A86EE45
:1029F000A77A37EE013A9FED127AC3EE076A9FED90
:102A0000127A66EE876AFCEEE66A16EE906AB5B256
:102A100040F65226B54201DD304600E0A8B2F0BDD6
:102A2000AD6F0300000011013EF8E0830F3EA840A7
:102A30000000000000008047C80200207CF04145F3
:102A400000401C465C0000200020254570B5024671
:102A500011B94FF0FF3070BDB2FBF1F303FB11224F
:102A60001404B4FBF1F505EB03463046F3E70146E9
:102A70005348B1F5004F02D20904524BC01AB1F5C8
:102A8000000F02D20902504BC01AB1F1006F02D2FE
:102A900009014E4BC01AB1F1005F02D289004C4BC4
:102AA000C01AB1F1804F03D24900A0F5314072380D
:102AB00001EB510202F000431BB91146A0F5CE40D4
:102AC000CD3801EB910202F000431BB91146A0F58D
:102AD0006450203801EBD10202F000431BB91146CB
:102AE000A0F5F050273801EB111202F0004313B9A2
:102AF0001146A0F6857001EB511202F0004313B9A4
:102B00001146A0F2E17001EB911202F0004313B9FB
:102B10001146A0F57E7001EBD11202F0004313B90B
:102B20001146A0F5FF70C1F10041A0EBD130704714
:102B3000F0B502460B46002116E04E1C34B20FE001
:102B400032F9116032F91470BE4207DA32F91150CD
:102B500032F8146022F8116022F81450661C34B266
:102B60009C42EDDB4E1C31B29942E6DB1E4603EB84
:102B7000D6777F1032F91700F0BD30B50346002438
:102B8000002204E033F912502C44551C2AB28A4228
:102B9000F8DB94FBF1F528B230BD02460A80B1F9AA
:102BA0000000B1F90230C01A4B68184448600B7A33
:102BB0004868184100B24880B1F90200704700002F
:102BC000AF650A0021170B00918B0500C8C50200F4
:102BD000E462010000280DDB00BF00BF00F01F020F
:102BE000012191404209920002F1E022C2F8001155
:102BF00000BF00BF70471CB50121084602F04EF926
:102C00004FF4C050009002208DF804008DF80500AC
:102C100000208DF8060001208DF807006946D8488D
:102C200000F022FE09220B21D54800F0A8FE09225F
:102C30000C21D34800F0A3FE1CBD10B588B004469B
:102C400044B1D0480088D0490880D0480088D04995
:102C5000088007E0CB480088CD490880CB48008831
:102C6000C94908800121480602F05FF9C94802F00D
:102C700055FA0021C74802F09DFB05A802F072FB3F
:102C800000208DF81A0001208DF81B008DF81C0023
:102C90008DF81D0000208DF81E0001208DF81F000A
:102CA00000208DF816008DF8170002208DF818000E
:102CB0008DF819000620ADF8140005A9B54802F0FA
:102CC00046FA01208DF80E008DF80F008DF81000E7
:102CD000AF4800884FF6FF7101EA4010ADF80400DC
:102CE0000020ADF806000846ADF80800ADF80A006F
:102CF0000120ADF80C008DF8110001A802F0B1FA26
:102D0000A44814300068A3491431086008460068DC
:102D100040F0020008600846006840F004000860C7
:102D20000846006840F0100008600846006840F05F
:102D3000200008601520FFF74DFF1320FFF74AFF22
:102D400008B010BD10B594480078944909788842BD
:102D500011DB0020904908709149087001209149C9
:102D60000870914908709149087000F0C5F89049C1
:102D7000884802F065FB10BD70B504460D468648D4
:102D800000788649097888420ADB00208249087069
:102D90002946204600F0DDF885497E4802F050FBC8
:102DA00070BD10B501217B4802F0C2FD18B10121B0
:102DB000784802F058FE10BD10B50421754802F0A5
:102DC000B7FD18B10421734802F04DFE022171488D
:102DD00002F0AEFD18B102216E4802F044FE10BDB3
:102DE00010B520216B4802F0A3FD18B120216948DD
:102DF00002F039FE1021674802F09AFD18B1102147
:102E0000644802F030FE6B4A0121624802F00DFC7A
:102E100069480088002839D06648C07AAA286AD153
:102E20006448007BAB2866D16248407BAC2862D105
:102E3000002062490880624908705E48007C614950
:102E400008805C48407C604908805A48C07B5F49E4
:102E500008805848807C5E4908805C48007800F013
:102E600001005C49088059480078C0F340005A4985
:102E7000088056480078C0F38000584908805348BD
:102E80000078C0F3C0005649088034E055480088F7
:102E900088BB4848C07AAA282DD14648007BAB2879
:102EA00029D14448407BAC2825D1002043490880E3
:102EB000434908703F48C17B007C01EB00204A4930
:102EC00008803C48807C00F0010036490870394891
:102ED000807CC0F34000344908703648807CC0F3E1
:102EE0008000324908703348807B4049088031486F
:102EF000407C3F49088010BD234800882C49086069
:102F000000204872087208208872AA20C872AB217B
:102F100027480173AC21417321480178244881730B
:102F2000314801782248C1732F4800880112204897
:102F30000174002141741B4800781B49097840EA5C
:102F400041001A49097840EA8100C1B218488174E9
:102F50007047284A1288164B1A6000225A721A7259
:102F600008229A72AA22DA72AB23114A1373AC2395
:102F7000537300239373D373137450749174704715
:102F8000000002409C020020A2020020A4020020B7
:102F90009E02002000640040A6020020A70200203C
:102FA000AD020020AC020020AE020020AA020020E8
:102FB000880500209C050020D0020020A8020020E7
:102FC000AB020020B8020020BA020020CA02002092
:102FD000C4020020BC020020C2020020BE02002069
:102FE000C0020020CC020020C8020020B002002055
:102FF000B2020020A0020020F7480088704700209D
:10300000F54908807047F5480088002855D0F448F5
:1030100000884FF6FF7101EA4000F1490880F1484D
:10302000006800F0800020B10846008840F00100F0
:103030000880EB4800884FF6FF71884206D1EA48C5
:10304000006820F40050E849086008E0E44800887F
:1030500028B9E548006840F40050E3490860E348B7
:1030600000884FF6FF7101EA4000E0490880DD4822
:10307000006800F0400020B10846008840F00100E0
:103080000880DA48008848B90120D9490880D64824
:10309000006840F48040D44908600EE0D3480088BE
:1030A0004FF6FF71884208D10020D1490880CE48F0
:1030B000006820F48040CC4908607047CD48008803
:1030C0004FF6FF7101EA4000CA490880C548006810
:1030D00000F0010020B10846008840F0010008809F
:1030E000C54800884FF6FF7101EA4000C2490880D8
:1030F000BC48006800F0020020B10846008840F09B
:1031000001000880BD4800884FF6FF7101EA4000C9
:10311000BA490880B348006800F0040020B10846AE
:10312000008840F001000880B54800884FF6FF7124
:1031300001EA4000B2490880AA48006800F008008F
:1031400020B10846008840F001000880AD480088A2
:103150004FF6FF7101EA4000AA490880A1480068C3
:1031600000F0100020B10846008840F001000880FF
:10317000A54800884FF6FF7101EA4000A249088087
:103180009848006800F0200020B10846008840F010
:10319000010008809D4800884FF6FF7101EA400059
:1031A0009A4908808F48006800F4806020B1084682
:1031B000008840F001000880954800884FF6FF71B4
:1031C00001EA4000924908808648006800F40060E7
:1031D00020B10846008840F0010008808D48008832
:1031E0004FF6FF7101EA40008A4908807D48006877
:1031F00000F4805020B10846008840F001000880AB
:10320000764800884FF6FF7101EA40007349088054
:103210007448006800F4005020B10846008840F06F
:10322000010008807C4800884FF6FF7101EA4000E9
:10323000794908807948006900F4806020B1084627
:10324000008840F00100088073480088FF2804D1FE
:1032500061480088401C604908806D4800884FF62E
:10326000FF71884203D100206D49088005E068485D
:10327000008810B901206A490880664800884FF626
:10328000FF71884203D100206649088005E061484B
:10329000008810B90120634908806248008800282E
:1032A0007CD05448008848B95F48008840F001004D
:1032B0005D49088001205D4908800EE04D48008886
:1032C0004FF6FF71884208D15748008820F001006E
:1032D000554908800020554908804748008848B96A
:1032E0005148008840F002004F49088001205049B1
:1032F00008800EE0404800884FF6FF71884208D1F0
:103300004948008820F002004749088000204849C9
:1033100008803A48008848B94348008840F00400D3
:10332000414908800120434908800EE03348008865
:103330004FF6FF71884208D13B48008820F0040016
:103340003949088000203B4908802D48008848B949
:103350003548008840F0080033490880012036498C
:1033600008800EE0264800884FF6FF71884208D199
:103370002D48008820F008002B49088000202E49A5
:1033800008802048008850B92748008840F0100085
:10339000254908800120294908800FE061E019488B
:1033A00000884FF6FF71884208D11F48008820F03E
:1033B00010001D490880002020490880124800881C
:1033C00048B91948008840F02000174908800120BA
:1033D0001B49088045E035E0FE020020FA0200208B
:1033E000F20200201008024014040240F002002003
:1033F000D4020020E4020020E6020020E8020020BF
:10340000EA020020EC020020EE020020F40200207C
:10341000F6020020F8020020FC020020000002401A
:10342000CC020020D0020020D6020020D8020020CA
:10343000DA020020DC020020DE020020E002002090
:10344000E2020020074800884FF6FF71884208D149
:103450000548008820F02000034908800020034927
:1034600008807047EE020020D6020020E202002011
:1034700032490143324A1160704770B50021002380
:103480000F22C4781CB32E4C246804F4E064C4F505
:10349000E064C4F30721C1F10404E3B20A414478B3
:1034A0009C40E1B28478144021430C07210E254C46
:1034B00005786155047804F01F050124AC400578B7
:1034C0006D11AD0005F1E025C5F8004109E0047873
:1034D00004F01F050124AC401B4D0678761145F819
:1034E000264070BD194A0A400243154B1B1F1A6043
:1034F000704739B1124A121D12680243104B1B1D4E
:103500001A6006E00E4A121D126882430C4B1B1D06
:103510001A607047042808D14FF0E021096941F092
:1035200004014FF0E022116107E04FF0E02109694A
:1035300021F004014FF0E022116170470000FA050C
:103540000CED00E000E400E080E100E080FFFF1F00
:103550000CB50020019000907648006840F480305F
:103560007449086000BF7348006800F400300090A0
:103570000198401C0190009818B90198B0F5A04F2F
:10358000F1D16C48006800F4003010B101200090C7
:1035900001E0002000900098012846D165484030A5
:1035A000006840F08050634940310860624800681C
:1035B00040F44040604908605E48083000685D495A
:1035C000083108600846006840F40040086008467A
:1035D000006840F4A05008605848091F0860081FA0
:1035E000006840F08070091F086000BF5148006803
:1035F00000F000700028F9D040F2056050490860E2
:103600004C480830006820F003004A49083108603F
:103610000846006840F00200086000BF45480830D6
:10362000006800F00C000828F8D10CBD10B5454822
:10363000006840F47000434908603E48006840F06C
:1036400001003C49086000203A49083108603948C7
:1036500000683D490840374908603C48091D08603A
:10366000081F006820F48020091F086000203149ED
:103670000C310860FFF76CFF4FF000603149803972
:10368000086010BD70B50020002202230024022132
:10369000284D08352D6805F00C0020B1042806D00F
:1036A000082834D107E02A4D2A4E356033E0284DF2
:1036B000284E35602FE01F4D2D1D2D68C5F3805419
:1036C0001C4D2D1D2D6805F03F0154B1204DB5FB5B
:1036D000F1F5184E361D3668C6F3881605FB06F25E
:1036E00009E01B4DB5FBF1F5124E361D3668C6F3E9
:1036F000881605FB06F20F4D2D1D2D68C5F30145FB
:103700006D1C6B00B2FBF3F5124E356003E0104DFB
:10371000104E356000BF00BF064D08352D68C5F35B
:1037200003150D4E705D0B4D2D68C540094E35607B
:1037300070BD000000380240007000401054400787
:10374000003C024088ED00E0FFFFF6FE1030002450
:103750000024F400000300200403002010B50446F8
:103760009848844208D10121084601F000FC00215C
:10377000012001F0FCFB76E09348844208D101214E
:10378000022001F0F4FB0021022001F0F0FB6AE0CE
:103790008E48844208D10121042001F0E8FB002179
:1037A000042001F0E4FB5EE08948844208D1012155
:1037B000082001F0DCFB0021082001F0D8FB52E0DA
:1037C0008448844208D10121102001F0D0FB00215F
:1037D000102001F0CCFB46E07F48844208D1012153
:1037E000202001F0C4FB0021202001F0C0FB3AE0C2
:1037F0007A48844208D10121402001F0B8FB002121
:10380000402001F0B4FB2EE07548844208D101212C
:10381000802001F0ACFB0021802001F0A8FB22E019
:103820007048844208D10121801501F0A0FB0021DD
:10383000A01501F09CFB16E06B48844208D10121E1
:10384000401501F094FB0021601501F090FB0AE0A7
:103850006648844207D10121001501F088FB002150
:10386000201501F084FB10BDF0B50A4600210023AD
:10387000002400BF3DE0012505FA01F3156805EAC3
:1038800003049C4234D105684F000326BE40B54373
:10389000056015794E00B540066835430560157919
:1038A000012D02D01579022D16D185684F0003260F
:1038B000BE40B543856055794E00B54086683543B6
:1038C0008560456801268E40B54345604568967918
:1038D0008E40B6B235434560C5684F000326BE40F2
:1038E000B543C560D5794E00B540C6683543C5605F
:1038F000491C1029BFD3F0BD4FF6FF7101600021B4
:10390000017141718171C171704708B54FF4803206
:103910000092009A0A430092009AC261C161009A23
:10392000C261C2690092C269009208BD02460020CD
:1039300013690B400BB1012000E0002070470146E5
:10394000086980B270470246002053690B400BB1F2
:10395000012000E0002070470146486980B27047AE
:1039600001837047418370470AB1018300E04183BE
:1039700070474161704742694A4042617047F0B503
:10398000002300244D07ED0E02FA05F3CE1000F1DE
:10399000200555F826504E07F70E0F26BE40B543BA
:1039A000CF1000F1200646F82750CE1000F1200578
:1039B00055F8265045EA0304CE1000F1200545F8DD
:1039C0002640F0BD00000240000402400008024012
:1039D000000C024000100240001402400018024097
:1039E000001C024000200240002402400028024047
:1039F00010B50446FA48844208D10121102001F094
:103A0000FAFA0021102001F0F6FA57E0F548844256
:103A100009D10121480401F0DDFA00214FF4003002
:103A200001F0D8FA4AE0F048844209D10121880423
:103A300001F0D0FA00214FF4802001F0CBFA3DE0F4
:103A4000EA48844209D10121C80401F0C3FA0021E7
:103A50004FF4002001F0BEFA30E0E548844209D17D
:103A60000121080501F0B6FA00214FF4801001F0A1
:103A7000B1FA23E0DF48844208D10121202001F07F
:103A8000BAFA0021202001F0B6FA17E0DA488442A1
:103A900009D10121880701F09DFA00214FF08040F3
:103AA00001F098FA0AE0D548844207D10121400587
:103AB00001F090FA0021600501F08CFA10BD2DE9AB
:103AC000FF4705460E460024A14600BFA046B08928
:103AD00000B100BF2C8A24F44054F08804432C82A7
:103AE000AC8941F20C608443B08831890843718904
:103AF00008430443AC81AC8A24F44074B089044385
:103B0000AC82684601F0F9F8B548854202D0B94860
:103B1000854202D1DDF80C9001E0DDF80890A8891B
:103B200000F4004040B109EBC90000EB0910316816
:103B30004900B0FBF1F707E009EBC90000EB091001
:103B400031688900B0FBF1F76420B7FBF0F00401A5
:103B50002009642101FB1078A88900F4004040B1DD
:103B6000322000EBC800B0FBF1F000F00700044386
:103B700008E0322000EB08106421B0FBF1F000F007
:103B80000F0004432C81BDE8FF874FF416510160FC
:103B900000218180C18001810C214181002181812E
:103BA000704710B502460020108A20F470600B8820
:103BB0004C8823438C882343CC88234318431082AA
:103BC00010BD0021018041808180C180704721B1FA
:103BD000828942F40052828104E082894DF6FF73AB
:103BE0001A4082817047028B02F47F420283028B6B
:103BF0000A430283704721B1828942F400428281E4
:103C000003E08289C2F30E028281704721B1828A69
:103C100042F40062828204E0828A4FF2FF731A400B
:103C200082827047C1F3080282807047014688880B
:103C3000C0F308007047028A4FF6F0731A40028200
:103C4000028A0A430282704721B1828942F002024D
:103C5000828104E082894FF6FD731A4082817047A9
:103C600082894FF2FF731A40828182890A438281DE
:103C70007047028A4FF6DF731A400282028A0A43B3
:103C80000282704721B1028A42F48042028204E03B
:103C9000028A4BF6FF731A4002827047818941F015
:103CA00001018181704721B1828A42F0080282823B
:103CB00004E0828A4FF6F7731A4082827047028BC3
:103CC000D2B20283028B42EA01220283704721B101
:103CD000828A42F02002828204E0828A4FF6DF73F9
:103CE0001A408282704721B1828A42F01002828299
:103CF00004E0828A4FF6EF731A4082827047828A0C
:103D00004FF6FB731A408282828A0A43828270478E
:103D100021B1828A42F00202828204E0828A4FF656
:103D2000FD731A40828270471AB1838A0B438382E3
:103D300002E0838A8B4383827047F0B503460024F8
:103D400000260025002040F66A17B94200D100BFC6
:103D50001846C1F3421401F01F06012707FA06F5C1
:103D6000012C01D10C3004E0022C01D1103000E014
:103D700014301AB107682F43076002E00768AF43A9
:103D80000760F0BD02460020B1F5007F00D100BF02
:103D900013880B400BB1012000E00020704701F4B4
:103DA0000072B2F5007F00D100BFCA4302807047A5
:103DB00070B50246002400230025002040F66A1654
:103DC000B14200D100BFC1F3421501F01F0301262B
:103DD00006FA03F3012D13D19689334017E0000052
:103DE000001001400044004000480040004C0040EA
:103DF000005000400014014000780040007C00406A
:103E0000022D02D1168A334001E0968A33400C120B
:103E1000012606FA04F41688344013B10CB10120CF
:103E200000E0002070BD10B50022002340F66A14A7
:103E3000A14200D100BF0A1201249440A3B2DC4386
:103E4000048010BD10B50446FE48844208D101210B
:103E5000084601F0D0F80021012001F0CCF89DE0E7
:103E6000B4F1804F08D10121084601F0B3F80021D8
:103E7000012001F0AFF891E0F348844208D101211C
:103E8000022001F0A7F80021022001F0A3F885E04C
:103E9000EE48844208D10121042001F09BF8002162
:103EA000042001F097F879E0E948844208D1012123
:103EB000082001F08FF80021082001F08BF86DE058
:103EC000E448844208D10121102001F083F8002148
:103ED000102001F07FF861E0DF48844208D1012121
:103EE000202001F077F80021202001F073F855E040
:103EF000DA48844208D10121022001F07CF8002137
:103F0000022001F078F849E0D548844209D1012126
:103F1000080401F070F800214FF4803001F06BF8D4
:103F20003CE0D048844209D10121480401F063F803
:103F300000214FF4003001F05EF82FE0CA488442BF
:103F400009D10121880401F056F800214FF48020A6
:103F500001F051F822E0C548844208D101214020F7
:103F600001F038F80021402001F034F816E0C04894
:103F7000844208D10121802001F02CF8002180200A
:103F800001F028F80AE0BB48844207D101218015DE
:103F900001F020F80021A01501F01CF810BD00224E
:103FA0000288A84B98420ED0AC4B98420BD0B0F18F
:103FB000804F08D0A44B984205D0A44B984202D021
:103FC000A34B984204D14FF68F731A404B881A4383
:103FD000A04B984207D0A04B984204D04FF6FF4325
:103FE0001A400B891A4302804B68C3620B88038511
:103FF000944B984202D0994B984201D18B7A038618
:104000000123838270474FF0FF314160002101801E
:1040100001814180817270470185828270470A4622
:10402000002101884FF68F731940114301807047BA
:1040300041627047C16270470146486A7047014655
:10404000088D704721B1028842F00202028004E02C
:1040500002884FF6FD731A400280704721B1028832
:1040600042F00402028004E002884FF6FB731A401B
:104070000280704721B1028842F08002028004E091
:1040800002884FF67F731A400280704702884FF60D
:10409000F7731A40028002880A4302807047028840
:1040A0004FF6FF431A40028002880A43028070479D
:1040B00021B1028842F00102028004E002884FF63A
:1040C000FE731A400280704770B50024002200235E
:1040D000058C4FF6FE7635400584028C8388048B70
:1040E0004FF68F752C40B51E2C400D882C43751E45
:1040F0002A408D892A434D882A43524DA84202D036
:10410000564DA84213D14FF6F7752A40CD892A4360
:104110004FF6FB752A408D882A434FF6FF652B40EA
:104120004FF6FF552B400D8A2B434D8A2B4383803E
:1041300004838D684563028470BD70B5002400223D
:104140000023058C4FF6EF7635400584028C83887A
:10415000048B48F6FF752C404FF6FF452C400D8828
:104160004FF6FF7606EA05252C434FF6DF752A4009
:104170008D8906EA05152A434D8806EA05152A4366
:10418000304DA84202D0354DA8421DD14FF67F7563
:104190002A40CD894FF6FF7606EA05152A434FF6E9
:1041A000BF752A408D8806EA05152A434FF6FF356C
:1041B0002B404FF2FF752B400D8A06EA85052B43F5
:1041C0004D8A06EA85052B43838004838D688563C9
:1041D000028470BD70B5002400220023058C4FF6C8
:1041E000FF6635400584028C8388848B4FF68F757B
:1041F0002C404FF6FC752C400D882C434FF6FF5594
:104200002A408D894FF6FF7606EA05252A434D8818
:1042100006EA05252A430B4DA84202D00F4DA842BD
:1042200038D14FF2FF752A40CD894FF6FF7606EA66
:1042300005252A434FF6FF352A408D8806EA0525D5
:104240002A4319E00000014000040040000800403B
:10425000000C004000100040001400400004014029
:104260000040014000440140004801400018004067
:10427000001C0040002000404EF6FF752B404DF61C
:10428000FF752B400D8A06EA05152B434D8A06EA79
:1042900005152B43838084838D68C563028470BDBC
:1042A00070B5002200230024058C4EF6FF763540C1
:1042B0000584038C8488828B48F6FF752A404FF66C
:1042C000FF452A400D884FF6FF7606EA05252A436A
:1042D0004DF6FF752B408D8906EA05352B434D8839
:1042E00006EA05352B43FE4DA84202D0FD4DA842FB
:1042F00008D14BF6FF752C400D8A4FF6FF7606EA83
:1043000085152C43848082838D680564038470BD89
:10431000002101804180818081608181C181018291
:104320004182704770B503460020002418461830BB
:1043300001258D40ACB21D8CA5431D8409B108290F
:104340000AD100EB610005684FF68F7635400560B5
:104350000568154305600FE00D1FC5F34E052844A1
:10436000056848F6FF763540056005684FF6FF762C
:1043700006EA02263543056070BD416370478163DC
:104380007047C1637047016470470A460021018B82
:104390004FF68F7319401143018370470A4600217D
:1043A000018B48F6FF7319404FF6FF7303EA0223AF
:1043B0001943018370470A460021818B4FF68F73A2
:1043C00019401143818370470A460021818B48F6CA
:1043D000FF7319404FF6FF7303EA022319438183E9
:1043E00070470A460021018B4FF6F77319401143BD
:1043F000018370470A460021018B4FF2FF73194079
:104400004FF6FF7303EA02231943018370470A46FC
:104410000021818B4FF6F773194011438183704758
:104420000A460021818B4FF2FF7319404FF6FF734C
:1044300003EA02231943818370470A460021018B56
:104440004FF6FB7319401143018370470A46002160
:10445000018B4FF6FF3319404FF6FF7303EA022337
:104460001943018370470A460021818B4FF6FB7385
:1044700019401143818370470A460021818B4FF612
:10448000FF3319404FF6FF7303EA02231943818378
:1044900070470A460021018B4FF67F731940114384
:1044A000018370470A460021018BC1F30E014FF6CC
:1044B000FF7303EA02231943018370470A46002170
:1044C000818B4FF67F7319401143818370470A46F1
:1044D0000021818BC1F30E014FF6FF7303EA022323
:1044E0001943818370470A460021018C4FF6FD7302
:1044F00019401143018470470A460021018C4FF690
:10450000F77319401143018470470A460021018C5A
:104510004FF6DF7319404FF6FF7303EA0213194396
:10452000018470470A460021018C4FF67F731940C1
:104530004FF6FF7303EA02131943018470470A46DA
:104540000021018C4FF6FF5319404FF6FF7303EA29
:1045500002231943018470470A460021018C4FF25F
:10456000FF7319404FF6FF7303EA022319430184D6
:1045700070470A460021018C4DF6FF7319404FF633
:10458000FF7303EA023319430184704730B50023F7
:1045900001248C40A3B2048C9C430484048C02FA52
:1045A00001F5ADB22C43048430BD30B500230424A2
:1045B0008C40A3B2048C9C430484048C02FA01F561
:1045C000ADB22C43048430BD828B4FF2FF331A40CE
:1045D0008283828B4FF6FF7303EA01231A4382839F
:1045E0007047F0B50C461546002100220026078CC6
:1045F0004EF6FF7C07EA0C070784818B028C4FF68E
:10460000FF7707EA043640F6FF4739404FF6FF7759
:1046100007EA052739434FF6FF7707EA033739439F
:1046200045F6FF773A4046F480573A438183028447
:10463000F0BD828B4FF6F3731A408283828B0A435C
:1046400082837047F0B50C461546002100220026F3
:10465000078C4FF6FF6C07EA0C070784818B028CEE
:104660004FF6FF7707EA04264FF60C7739404FF6EE
:10467000FF7707EA03172F4339434FF2FF573A40BA
:1046800046F480773A4381830284F0BD028B4FF277
:10469000FF331A400283028B4FF6FF7303EA0123B4
:1046A0001A4302837047F0B50C46154600210022DC
:1046B0000026078C4FF6EF7C07EA0C070784018B76
:1046C000028C4FF6FF7707EA041640F6FF473940A1
:1046D0004FF6FF7707EA033739434FF6FF7703E0DA
:1046E000000001400004014007EA052739434FF666
:1046F0005F773A4046F010073A4301830284F0BDE9
:10470000028B4FF6F3731A400283028B0A43028333
:104710007047F0B50C46154600210022068C4FF676
:10472000FE773E400684018B028C4FF60C763140BA
:104730007E1C06EA03162E4331434FF6F5763240CF
:1047400044F00106324301830284F0BD70B5054692
:104750000C46208850B92389A28861882846FFF733
:10476000D8FFE1882846FFF7CBFF25E02088042802
:104770000AD12389A28861882846FFF794FFE1883F
:104780002846FFF783FF17E0208808280AD12389ED
:10479000A28861882846FFF755FFE1882846FFF781
:1047A00048FF09E02389A28861882846FFF719FF9E
:1047B000E1882846FFF708FF70BD00210180418095
:1047C000012181800021C180018170472DE9F041E4
:1047D00005460C4600260127608808B9022600E03D
:1047E0000026A088012801D1022700E001272088A7
:1047F000A0B92389A28861882846FFF78AFFE1884B
:104800002846FFF77DFF23893A4631462846FFF7C1
:104810004AFFE1882846FFF739FF13E02389A28881
:1048200061882846FFF73FFFE1882846FFF72EFF03
:1048300023893A4631462846FFF76BFFE188284630
:10484000FFF75EFFBDE8F0810146486B7047014607
:10485000886B70470146C86B70470146086C70470B
:104860000A884B881A438B881A43CB881A430B89D2
:104870001A434B891A438B891A43A0F84420704786
:104880000021018041808180C1800181418181813D
:10489000704731B1B0F8442042F40042A0F84420FF
:1048A00005E0B0F84420C2F30E02A0F8442070479F
:1048B00021B1828842F00402828004E082884FF6AF
:1048C000FB731A408280704721B1828842F0010256
:1048D000828004E082884FF6FE731A40828070471F
:1048E0001AB183890B43838102E083898B438381DF
:1048F00070478182704702460020138A0B400BB13B
:10490000012000E000207047CA430282704730B5A2
:104910000246002000230024158A05EA0103958938
:1049200005EA010413B10CB1012000E0002030BD04
:10493000CA430282704741EA0203A0F84830704738
:104940001AB183890B43838102E083898B4383817E
:10495000704721B1828842F00802828004E0828898
:104960004FF6F7731A408280704701894FF6F8724C
:104970001140018170470A46002101894FF68F736B
:10498000194011430181704730B504460D46294650
:104990002046FFF7F0FF208940F00700208130BD5E
:1049A0002DE9F04104460D4616461F46602D06D1FE
:1049B0003B46012231462046FFF775FE05E03B46A7
:1049C000012231462046FFF7A4FE29462046FFF784
:1049D000D2FF208940F007002081BDE8F08130B58A
:1049E0000C4600210189C9B24FF6FF7505EA03257F
:1049F000154325432943018130BD2DE9F04105468A
:104A00000E4617469846002443463A463146284605
:104A1000FFF7E5FF2C894FF6F870044044F00704D7
:104A20004FF68F70044044F070042C81BDE8F08193
:104A3000F0B504460D4616461F463B46324629460B
:104A40002046FFF7CCFF208940F480402081F0BD54
:104A500082884FF68F731A40828082880A43828050
:104A6000704702894FF6F8731A40028102890A439F
:104A70000281704702894FF67F731A4002810289D2
:104A80000A4302817047F0B50C4615461E460021C8
:104A9000002200230189028B038C4FF6F8773940FE
:104AA00021434FF6FC473A4040F201173A434FF694
:104AB000DD773B404FF6FF7707EA06172F433B436E
:104AC000018102830384F0BD21B1828842F080021B
:104AD000828004E082884FF67F731A40828070479C
:104AE000A0F8501070470000F948006840F001003D
:104AF000F74908600020F64908310860F44800686A
:104B0000F4490840F2490860F348091D0860F34879
:104B1000EF4984310860F0481038091D0860EC48FE
:104B2000006820F48020EA4908600020E8490C3140
:104B30000860E7498C31086070470021E44A921C04
:104B4000117011460870704710B50146002200230D
:104B500000204A11012A02D1DD4C236808E0022A14
:104B600003D1DB4C7034236802E0D94C74342368E1
:104B700001F01F02012494401C400CB1012000E010
:104B8000002010BD38B5002000900024002500BF93
:104B90003120FFF7D9FF05460098401C009000988F
:104BA000B0F5A04F01D0002DF2D03120FFF7CCFF9F
:104BB00008B1012400E00024204638BD0146002051
:104BC000C34A106820F0F80040EAC1001060704746
:104BD000C349086070470021BD4A703211701170DE
:104BE000012802D004280AD104E00121B84A703219
:104BF000117005E00521B64A7032117000E000BF67
:104C000000BF7047B7490860704770B5049C41EA1F
:104C100082150126C6EB530645EA0645054345EADB
:104C20000465AB4E361D356070BDAD4908667047F2
:104C3000820142EA0172A64B84331A607047A84988
:104C40008866704710B5830143EA016343EA027343
:104C50009F4C8834236010BDA14908677047A04964
:104C6000C864704702460020994B0833186820F04A
:104C7000EC6042EA01031843954B08331860704713
:104C800002460020924B0833186820F0784042EA30
:104C9000010318438E4B083318607047014600200B
:104CA0008B4A0832106820F00300084310607047F8
:104CB00087480830006800F00C007047014600206B
:104CC000834A0832106820F0F000084310607047F3
:104CD000014600207E4A0832106820F4E050084364
:104CE0001060704701460020794A0832106820F4AD
:104CF000604040EAC10010607047F0B5002100221A
:104D00000024022500260223714F08373F6807F070
:104D10000C0121B1042905D0082937D105E0724FD3
:104D2000076036E0704F076033E0694F3F1D3F6812
:104D3000C7F38056664F3F1D3F6807F03F036EB1D3
:104D4000694FB7FBF3F7DFF888C10CF1040CDCF80E
:104D500000C0CCF3881C07FB0CF40CE0624FB7FBDF
:104D6000F3F7DFF86CC10CF1040CDCF800C0CCF3F5
:104D7000881C07FB0CF4564F3F1D3F68C7F30147E3
:104D80007F1C7D00B4FBF5F7076002E0564F07601B
:104D900000BF00BF4E4F08373F6807F0F001090918
:104DA000524F7A5C0768D7404760494F08373F68E1
:104DB00007F4E051890A4D4F7A5C4768D740876015
:104DC000434F08373F6807F46041490B474F7A5C0F
:104DD0004768D740C760F0BD002100F44072B2F5CB
:104DE000407F0AD13A4A0832116821F4F811404A4A
:104DF00002401143364A08321160354A7032126857
:104E0000C0F30B031A43324B70331A6070473549B5
:104E10004439086070473349403908607047354964
:104E20000860704701460020294A8C32106820F043
:104E30001F004A1E1043264A8C32106070470146FC
:104E40000020234A8C32106820F4F8504A1E40EAB1
:104E500002201F4A8C3210607047014600201C4A15
:104E60008C32106820F440100843106070470146EF
:104E70000020174A8C32106820F44000084310606C
:104E8000704701460020124A8C32106820F44030EE
:104E900008431060704718490860704739B10C4AE0
:104EA0003032126802430A4B30331A6006E0084A77
:104EB000303212688243064B30331A607047E9B1D2
:104EC000034A343212680243014B34331A601AE049
:104ED00000380240FFFFF6EA1030002400300020C6
:104EE00000004742800E47420024F40014030020D3
:104EF000FFFCFF0F5C014742E0114742864A1268FF
:104F00008243854B1A60704739B1834A121D12687B
:104F10000243814B1B1D1A6006E07F4A121D126876
:104F200082437D4B1B1D1A60704739B17A4A0C329F
:104F300012680243784B0C331A6006E0764A0C3252
:104F400012688243744B0C331A60704739B1724A4D
:104F5000103212680243704B10331A6006E06E4A3A
:104F60001032126882436C4B10331A60704739B1AB
:104F7000694A243A12680243674B243B1A6006E0F0
:104F8000654A243A12688243634B243B1A60704797
:104F900039B1614A203A126802435F4B203B1A60E4
:104FA00006E05D4A203A126882435B4B203B1A6060
:104FB000704739B1584A1C3A12680243564B1C3BA1
:104FC0001A6006E0544A1C3A12688243524B1C3B5A
:104FD0001A60704739B1504A143A126802434E4B76
:104FE000143B1A6006E04C4A143A126882434A4B5A
:104FF000143B1A60704739B1474A103A12680243AD
:10500000454B103B1A6006E0434A103A126882434F
:10501000414B103B1A60704739B13F4A1C3212684D
:1050200002433D4B1C331A6006E03B4A1C321268B7
:105030008243394B1C331A60704739B1364A2032EB
:1050400012680243344B20331A6006E0324A2032A1
:1050500012688243304B20331A60704739B12E4AB0
:105060002432126802432C4B24331A6006E02A4A89
:10507000243212688243284B24331A60704739B1B6
:10508000254A2C3212680243234B2C331A6006E067
:10509000214A2C32126882431F4B2C331A6070470E
:1050A00039B11D4A3032126802431B4B30331A604B
:1050B00006E0194A303212688243174B30331A60C7
:1050C0007047704739B1144A273A12780243124B9D
:1050D000273B1A7006E0104A273A127882430E4B9B
:1050E000273B1A7070470C484030006840F08070D1
:1050F000094940310860704701460020064A283AB5
:1051000012680A400AB1012000E0002070470249FD
:1051100026390870704700003438024010B5044644
:10512000FE48844209D101214806FFF753FF0021C0
:105130004FF00070FFF74EFF08E001218806FFF7EF
:1051400049FF00214FF08060FFF744FF10BD30B5EC
:10515000024600200023146824F00204146014683E
:1051600044F00104146000E05B1C546804F0010486
:105170001CB94FF6FF74A342F6D1546804F0010441
:105180000CB900206CE08C79012C04D1146844F037
:105190008004146003E0146824F080041460CC7967
:1051A000012C04D1146844F04004146003E0146836
:1051B00024F0400414600C7A012C04D1146844F0EB
:1051C0002004146003E0146824F0200414604C7A76
:1051D000012C04D1146844F01004146003E0146836
:1051E00024F0100414608C7A012C04D1146844F06B
:1051F0000804146003E0146824F008041460CC7AF6
:10520000012C04D1146844F00404146003E0146811
:1052100024F0040414608C78A407CD7844EA056473
:105220000D7944EA05444D7944EA05540D886D1E14
:105230002C43D461146824F001041460002300E0BE
:105240005B1C546804F001041CB14FF6FF74A342C8
:10525000F6D1546804F001040CB1002000E00120F4
:1052600030BD10B50021837A012202FA03F1AC4A65
:10527000126842F00102AA4B1A60A94A1C32126855
:105280008A43A74B1C331A60027BCAB9A44A0C326A
:1052900012688A43A24B0C331A604288C38842EAE0
:1052A00003439F4A4032847A42F83430028883882C
:1052B00042EA03439A4A4032847A02EBC4025360C2
:1052C000027B012A19D1964A0C3212680A43944B88
:1052D0000C331A604288038842EA0343904A403202
:1052E000847A42F83430C288838842EA03438C4A85
:1052F0004032847A02EBC4025360C27A3AB9884AD7
:10530000121D12688A43864B1B1D1A6006E0844AF0
:10531000121D12680A43824B1B1D1A60028932B9A2
:105320007F4A143212688A437D4B14331A60028913
:10533000012A06D17A4A143212680A43784B143390
:105340001A60427B012A06D1754A1C3212680A4350
:10535000734B1C331A60724A126822F00102704BC0
:105360001A6010BD00218171C17101724172817298
:10537000C1728170C170032101710221417101214B
:10538000018070476649096841F00101644A116073
:105390001146096843F60E729143614A1160114645
:1053A000096841EA002111601146096821F00101F4
:1053B0001160704721B1026842F48032026003E05C
:1053C000026822F4803202607047E1B1026842F064
:1053D000800202604FF4C272125842F480734FF49C
:1053E000C27213504FF4CA72125842F480734FF4D1
:1053F000CA7213504FF4D272125842F480734FF4B1
:10540000D27213501BE0026822F0800202604FF457
:10541000C272125822F480734FF4C27213504FF4C8
:10542000CA72125822F480734FF4CA7213504FF4A8
:10543000D272125822F480734FF4D2721350704714
:1054400010B502460020936803F08063B3F1806FCB
:1054500000D110E0936803F00063B3F1006F01D155
:10546000012008E0936803F08053B3F1805F01D11D
:10547000022000E00420042879D002F5C07303EB79
:1054800000131B6803F0010402F5C07303EB001363
:105490001C600B7A7BB94B7A0C8843EA445302F5C3
:1054A000C07404EB00142468234302F5C07404EBB9
:1054B0000014236010E00B7A4C6843EAC4034C7A72
:1054C000234302F5C07404EB00142468234302F55F
:1054D000C07404EB001423608B7A03F00F038B720B
:1054E00002F5C07303EB00135B6823F00F0402F5B1
:1054F000C07303EB00135C6002F5C07303EB001391
:105500005B688C7A234302F5C07404EB001463607B
:105510008B7B1C064B7B44EA034403E000640040A1
:10552000006600400B7B44EA0323CC7A234302F558
:10553000C07404EB0014A3608B7C1C064B7C44EA13
:1055400003440B7C44EA0323CC7B234302F5C07461
:1055500004EB0014E36002F5C07303EB00131B6857
:1055600043F0010402F5C07303EB00131C6010BD8F
:1055700010B50246002321B1012907D002290FD11D
:1055800009E09068F94C00EA04030BE09068F84CDD
:1055900000EA040306E09068F64C00EA040301E028
:1055A000002300BF00BFF44C181BA34216D007DC39
:1055B00083B16FF08060184470B1022818D111E0F7
:1055C000B0F5007F10D0ED4C204448B1B0F5003F5D
:1055D0000ED10BE002230DE000230BE0002309E0D5
:1055E000002307E0012305E0012303E0012301E09C
:1055F000002300BF00BFD8B210BD21B1012907D0E0
:1056000002290FD109E0826842F0800282600AE03C
:10561000826842F40042826005E0826842F400023F
:10562000826000E000BF00BF704710B500F5D8737E
:1056300003EB01131B6803F004031372137A53B9CD
:1056400000F5D87303EB01131B6840F2FF7404EA02
:105650005353136009E000F5D87303EB01131B6883
:105660006FF0604404EAD303536000F5D87303EB92
:1056700001131B6803F00203537200F5D87303EBA8
:1056800001135B6803F00F03937200F5D87303EB0B
:1056900001135B681B0AD37400F5D87303EB011385
:1056A0009B68D37200F5D87303EB01139B681C0A47
:1056B000147300F5D87303EB01139B681C0C54732F
:1056C00000F5D87303EB01139B681B0E937300F571
:1056D000D87303EB0113DB68D37300F5D87303EBC6
:1056E0000113DB681C0A147400F5D87303EB011373
:1056F000DB681C0C547400F5D87303EB0113DB68F2
:105700001B0E937421B9C36843F02003C36003E008
:10571000036943F02003036110BD21B9C26842F060
:105720002002C26003E0026942F020020261704779
:105730000246002019B9D36803F0030006E00129EE
:1057400003D1136903F0030000E00020704710B597
:1057500002460B4600204FF6FF71BBB9146824F0D7
:10576000020444F00104146000E0491E546804F08F
:105770000304012C01D00029F7D1546804F003047C
:10578000012C01D0002032E0012030E0012B13D1A8
:10579000146824F00304146000E0491E546804F007
:1057A00003040CB10029F8D1546804F003040CB1CF
:1057B00000201CE001201AE0022B17D1146824F00D
:1057C000010444F00204146000E0491E546804F02F
:1057D0000304022C01D00029F7D1546804F003041B
:1057E000022C01D0002002E0012000E0002010BDCA
:1057F000014600200A6822F0010242F002020A601B
:105800004A6802F00302022A00D1012070470146D3
:105810004FF6FF7200200B6823F002030B6000E0DC
:10582000521E4B6803F00203022B01D1002AF7D16C
:105830004B6803F00203022B00D0012070470146A1
:1058400000208A6902F070007047014600208A69D2
:10585000100E7047014600208A69C2F30740704766
:105860001AB143690B43436102E043698B434361CF
:10587000704710B50246002001F4700343B19369EC
:10588000C1F3130423400BB101202DE000202BE0D5
:1058900001F0807343B15368C1F3130423400BB18B
:1058A000012021E000201FE001F0006343B1936874
:1058B000C1F3130423400BB1012015E0002013E0D5
:1058C00001F0007343B1D368C1F3130423400BB15B
:1058D000012009E0002007E01369C1F3130423400D
:1058E0000BB1012000E0002010BD0022244B9942A2
:1058F00002D10023836111E0C1F3130201F00073B0
:105900000BB1C2600AE001F080630BB1026105E0F7
:1059100001F000630BB1826000E042607047024614
:10592000002002EA01030BB1012000E000207047D3
:1059300070B504460D46002660692840002872D0E4
:10594000B5F5807F69D01DDC082D42D006DC012D25
:105950002DD0022D31D0042D7FD134E0102D3ED03A
:10596000202D42D0402D78D145E0000003000004F6
:105970000003000800000310000100080001FFF709
:105980007000F030B5F5004F61D009DCB5F5007F4F
:105990004AD0B5F5806F4DD0B5F5006F5DD150E0C0
:1059A000B5F5803F2DD0B5F5003F56D12FE0A0686A
:1059B0005549FFF7B4FF064651E0E0680321FFF7C1
:1059C000AEFF06464BE0E0680821FFF7A8FF064659
:1059D00045E0E0681021FFF7A2FF06463FE020699E
:1059E0000321FFF79CFF064639E020690821FFF7F5
:1059F00096FF064633E020691021FFF790FF064628
:105A00002DE060680821FFF78AFF064627E06068FE
:105A10001021FFF784FF064621E0A0690121FFF76E
:105A20007EFF06461BE01BE0A0690221FFF777FF1F
:105A3000064614E0A0690421FFF771FF06460EE058
:105A40000BE0A0697021FFF76AFF064607E0606877
:105A50000421FFF764FF064601E0002600BF00E0D6
:105A60000026304670BDB1F5007F3AD00FDC20290A
:105A700028D006DC01291CD004291DD0082940D1DA
:105A80001DE0402921D0B1F5807F3AD126E0B1F563
:105A9000004F31D006DCB1F5806F25D0B1F5006F35
:105AA0002FD124E0B1F5803F12D0B1F5003F28D1CD
:105AB00011E0154A826025E00822C26022E010222F
:105AC000C2601FE0082202611CE01022026119E09E
:105AD0000822426016E01022426013E00422426075
