:020000040800F2
:10000000C8180020150300081D0300081F0300087E
:100010002103000823030008250300080000000056
:10002000000000000000000000000000270300089E
:1000300029030008000000002B0300082D0300081E
:100040002F0300082F0300082F0300082F030008C8
:100050002F0300082F0300082F0300082F030008B8
:100060002F0300082F0300082F0300082F030008A8
:100070002F0300082F0300082F0300082F03000898
:100080002F0300082F030008F3050008CB2E0008FB
:10009000E12E0008092F00082F0300082F03000895
:1000A0002F0300082F0300082F0300082F03000868
:1000B00011040008C1270008C70B0008B508000894
:1000C0002F0300082F0300082F0300082F03000848
:1000D000F70900082F030008FF0700082F03000896
:1000E0002F0300082F0300082F0300082F03000828
:1000F0002F0300082F0300082F0300082F03000818
:100100002F0300082F0300082F0300082F03000807
:100110002F0300082F0300082F0300082F030008F7
:100120002F0300082F0300082F0300082F030008E7
:100130002F0300082F0300082F0300082F030008D7
:100140002F0300082F0300082F0300082F030008C7
:100150002F0300082F0300082F0300082F030008B7
:100160002F0300082F0300082F0300082F030008A7
:100170002F0300082F0300082F0300082F03000897
:100180002F0300082F03000800F002F800F0B2F877
:100190000AA090E8000C82448344AAF10107DA45E2
:1001A00001D100F0A7F8AFF2090EBAE80F0013F082
:1001B000010F18BFFB1A43F00103184748D3000092
:1001C00068D300000A444FF0000C10F8013B13F014
:1001D000070408BF10F8014B1D1108BF10F8015BA0
:1001E000641E05D010F8016B641E01F8016BF9D193
:1001F00013F0080F1EBF10F8014BAD1C0C1B09D1EA
:100200006D1E58BF01F801CBFAD505E014F8016B5B
:1002100001F8016B6D1EF9D59142D6D370470000ED
:100220000023002400250026103A28BF78C1FBD8FF
:10023000520728BF30C148BF0B6070476E2908F0D5
:10024000B381702908F0FD8266290AF0D4826529FD
:100250000AF0D18267290AF0CE8261290AF0CD82A4
:1002600003681B0A28BF41F08001692908F06081FA
:10027000642908F05D81752908F05A816F2908F01A
:100280008A82782908F0C982E92908F02582E429C0
:1002900008F02282F52908F01F82EF2908F08782F2
:1002A000F82908F0C8820368DB0928BF41F0800103
:1002B000632908F0ED87732908F0F287E32908F035
:1002C000FD87F32909F00280002070471FB50AF06E
:1002D00088FA09F073F804000020002109F094FD69
:1002E000401C60600020002109F078FDE0601FBD27
:1002F00010B510BD09F035F81146FFF7E7FF00F023
:1003000029F809F011F903B4FFF7F2FF03BC09F073
:1003100059F900000948804709480047FEE7FEE711
:10032000FEE7FEE7FEE7FEE7FEE7FEE7FEE7FEE7A5
:1003300004480549054A064B70470000A5360008E9
:1003400089010008C8120020C8180020C814002025
:10035000C814002003F0A6F903F0D0F9134804F004
:1003600008FD02F093FA41F6583002F08FF900F0E0
:1003700021F802F02BF907F013F900F0DFF802F092
:10038000D5F807F068FA00F072FC02F0C8FC0849E2
:10039000087802F0E6FC00F027FC62B6002080F34B
:1003A000108800BF01E002F046FAFCE77803002065
:1003B000CC02002010B50121084604F0F2FD002017
:1003C000504948805320088064204860000703F0AB
:1003D00022FE01221146900704F0BEFA1C200028DC
:1003E0000DDB00BF00BF00F01F0201219140420958
:1003F000920002F1E022C2F8001100BF00BF00BF6E
:100400000121880703F090FE10BD3F480088704727
:1004100010B50121880704F0C7FA3B480088401C4A
:100420003949088039480078401C3849087000BFB5
:1004300037480078022814D1002035490870354823
:10044000008800EBC00101EB00103349098801EB83
:100450008000324908803248806840F0804030494E
:10046000886000BF00F003F807F0D3F910BD2A48F8
:100470000088642805DA28480088401C264908803E
:100480003EE02848008810B12748008880B12748FE
:100490000088401C00B2254908800846B0F90000D9
:1004A000322805DB2248007840F00100204908701E
:1004B00000201949088000BF164800881E2805DA68
:1004C00014480088401C134908800EE000201149A0
:1004D00008800F48007818B901200D49087004E021
:1004E00014480088401C1349088013480088962847
:1004F00004DA11480088401C0F49088000BF00BF83
:10050000704700008803002022000020A60200207F
:1005100055000020200000201E00002018000020B0
:1005200000200140CC020020D0020020A8020020C0
:10053000AB0200201A0000202400002000B58DB07E
:1005400003A805F06AFB002003900590049003A81F
:1005500005F052FB0121080204F034FD07A805F064
:1005600041FB0020079001208DF8200000208DF82D
:10057000210009900A900B9001208DF8300007A906
:100580003D4805F00AFB01213B4805F04CFB0122E8
:1005900040F20521384805F0E7FC122000280DDB69
:1005A00000BF00BF00F01F020121914042099200EC
:1005B00002F1E022C2F8001100BF00BF00BF042317
:1005C000012200212C4805F06EFB0121084604F0B1
:1005D000A1FC00208DF80A008DF80B0003208DF897
:1005E0000800C320019001A9244803F079F90DB057
:1005F00000BD10B540F205211F4805F0DDFC0128C3
:1006000034D11D48C06C1E491E4A127821F81200D0
:100610001C480078042814DA1A480078401C19494C
:10062000087019480A461278815C04230122124896
:1006300005F039FB1048806840F080400E49886022
:100640000EE000200F4908700F480A461278815CBE
:1006500004230122084805F026FB01200B490870FD
:100660000548006820F002000349086010BD0146FB
:10067000034830F81100704700200140000002409C
:100680003C00002029000020380000202800002025
:100690005B49088070475A480088704710B5584831
:1006A0000830008840F004005549083108800122D4
:1006B00040F225515248001F03F07BFB10BD10B5DE
:1006C0004F480830008820F004004D490831088068
:1006D000002240F225514A48001F03F06AFB10BD7A
:1006E00010B547480830008840F0080044490831F8
:1006F0000880012240F226614148001F03F059FBA7
:1007000010BD10B53E480830008820F008003C4974
:1007100008310880002240F226613948001F03F0AA
:1007200048FB10BD10B5002440F225513448001F8D
:1007300003F07AFB08B14FF4005440F226613048D0
:10074000001F03F071FB08B144F40044204610BDC3
:100750001CB50121084604F0DDFB072202212948CF
:1007600003F049F900208DF8060001208DF80700FC
:1007700002208DF804000420009002208DF805006E
:100780006946204803F0ACF80121084604F0C2FB9A
:10079000072203211B4803F02EF900208DF80600E4
:1007A00001208DF8070002208DF804000820009039
:1007B00002208DF805006946124803F091F80121E6
:1007C000480404F0EEFB4FF461400F49086000203C
:1007D0008880C880088188810C2048810848001FD3
:1007E00003F0A9F901210648001F03F02CFA0122A9
:1007F00040F225510248001F03F0DBFA1CBD704790
:100800000444004000000240940300201CB5012174
:10081000022004F07FFBC020009002208DF804002D
:1008200003208DF8050001208DF8060000208DF8CA
:1008300007006946254803F053F80422062123489F
:1008400003F0D9F804220721204803F0D4F801214D
:10085000480504F0A6FB01211D4805F06AFC1C4870
:1008600005F0C2FB4FF480601A494881000188817D
:10087000194808604BF6FF70C88000208880FF2070
:100880000881134805F0D9FB00BF4FF40031104830
:1008900005F08CFD0028F8D1012291020C4805F0EA
:1008A0005AFD1F200D4908700020487001208870F3
:1008B000C8701CBD10B50A49054805F0BAFD0849C5
:1008C0004031034805F0B5FD10BD000000040240B2
:1008D00000540040A4030020E093040048000020DE
:1008E0004000000600B587B00121022004F012FB91
:1008F0000121042004F00EFB4FF480400090012001
:100900008DF8040003208DF8050000208DF8060006
:100910008DF807006946684802F0E2FF0C2000905D
:1009200002208DF8040003208DF8050000208DF8CA
:1009300006008DF807006946604802F0D1FF4FF4C9
:100940008060009002208DF8040003208DF80500DF
:1009500000208DF806008DF807006946564802F021
:10096000BFFF05220A21544803F045F80522022161
:10097000524803F040F805220321504803F03BF8A9
:100980000121880304F00DFB4D4805F059FD0020BE
:10099000ADF80800ADF80C00ADF80E00ADF8100091
:1009A0004FF40070ADF812003820ADF814000020AC
:1009B000ADF816000720ADF818004FF48270ADF8BE
:1009C0000A0002A93E4805F087FD01213C4805F0D8
:1009D0007DFE012260213A4805F020FF242039499C
:1009E00008700020487001208870C870084602F026
:1009F00080FD07B000BD10B56021314805F03AFF19
:100A0000012824D12E4805F0DFFE2F492F4A1288F5
:100A100021F812002D480088401C2C4908802C48E1
:100A20000088401C2A4908802A4800880988884292
:100A300008DD2848264A128830F81210204805F0B0
:100A4000C6FE04E00020214908802149088010BD2D
:100A500070B50124AA201F4921F81400641CF1205C
:100A600021F81400641C002021F81400641CFF20ED
:100A700021F81400641C022021F81400641C0846AC
:100A800004800120114908801149088011480A4654
:100A9000128830F812100A4805F099FE0D480088B7
:100AA0004FF6FF7101EA400500BF0948008808B110
:100AB000002DFAD1284670BD000402400008024013
:100AC0000038004044000020B40300204E00002005
:100AD000500000207C0400201CB50121022004F0FD
:100AE00019FAC020009002208DF8040003208DF830
:100AF000050000208DF806008DF80700694635488E
:100B000002F0EEFE02220621324802F074FF0222B9
:100B10000721304802F06FFF0121042004F041FA60
:100B20004FF47A702C494860012008800020088129
:100B300040204880294803F06EFA60202849088048
:100B4000012048800020886088814FF480700882EE
:100B5000224803F0F5FA0020214988811F4803F05C
:100B600028FB00201F49088048808880C8800881B1
:100B70004FF40050488100208881184803F0ACFEF3
:100B80000021164803F035FC0021144803F033FC23
:100B90000021124803F031FC0121104803F0B5FE9A
:100BA0001E2000280DDB00BF00BF00F01F02012146
:100BB00091404209920002F1E022C2F8001100BF08
:100BC00000BF00BF1CBD10B50821044803F0ECFEB7
:100BD00010BD000000040240440500200008004051
:100BE000500500206E05002010B5FF2006F04AFEDB
:100BF000002006F027FE06F04BFE642007F0CBFA3B
:100C00003F237F220021084606F0B0FF06F040FE99
:100C1000642007F0C0FA012007F07CF9012007F0FA
:100C20002CF9002006F00EFE3F237F22002108460B
:100C300006F07EFFFDA301221146052006F0F4FE1A
:100C4000FEA301221521052006F0EEFEFEA30122DF
:100C50002921052006F0E8FE06F01AFE642007F0C0
:100C60009AFA10BD0146FB4830F81100704710B5E4
:100C70004520F849888008468088C0EB003000EEA7
:100C8000100AB8EEC00ADFEDF40A80EE201ABCEEBE
:100C9000C10A10EE100A84B22146022001F079FC4C
:100CA00010BD2DE9F0432DED0A8B85B09FEDEB0AC9
:100CB00010EE108A9FEDE90A10EE109AE8480068DD
:100CC00020F40050E64908600846006840F480407F
:100CD000086040F6FF71012001F05BFC4FF480706A
:100CE000DC494880DFA300221146012006F09CFE6B
:100CF000E148008800287CD1E0480088002879D0AD
:100D000001F095FCD34908800846008800EE100ADF
:100D1000B8EE400ADFEDDA0A20EE200ADFEDCE0A57
:100D200080EE201ABCEEC10A10EE100A84B22046F2
:100D300001F02CFD00EE104AB8EE408A18EE100AC1
:100D400009F0DEFC41EC190B8DED009BCDA30022D8
:100D50000A21012006F068FE0120FFF788FC054605
:100D600000EE105AB8EE400AF3EE0F0A20EE200A09
:100D7000DFEDC80A80EE201A11EE108A404609F015
:100D8000BFFC41EC190B8DED009BC3A30022142185
:100D9000012006F049FE0020FFF769FC064600EE40
:100DA000106AB8EE400AF3EE0F0A20EE200ADFEDDB
:100DB000B90A80EE201A11EE109A484609F0A0FCFC
:100DC00041EC190B8DED009BB8A300221E210120E0
:100DD00006F02AFE9F484088C0EB003000EE100A63
:100DE000B8EEC00ADFED9C0A80EE201ABCEEC10A04
:100DF00001E07FE05FE010EE100A87B200EE107AAB
:100E0000B8EE400ADFEDAE0A20EE200ADFEDA10ABF
:100E1000C0EE208A18EE900A09F072FC41EC190B22
:100E20008DED009BA7A300222821012006F0FCFDE8
:100E3000AA48008800EE100AB8EE400A10EE100A28
:100E400009F05EFC41EC1C0B9FEDA50B53EC102B45
:100E500009F062FA41EC1B0B9FEDA30B53EC102B36
:100E600009F0C2F841EC190BA148008800EE100A05
:100E7000B8EE400A10EE100A09F042FC41EC1C0BDF
:100E80009FED970B53EC102B09F046FA41EC1B0B2E
:100E90009FED950B53EC102B09F0A6F841EC1A0BC3
:100EA0008DED029B8DED00AB92A30022322101203B
:100EB00006F0BAFD43E095A300220A21012006F0C6
:100EC000B3FD96A300221421012006F0ADFD98A3E6
:100ED00000221E21012006F0A7FD9BA3002228214D
:100EE000012006F0A1FD9DA300223221012006F081
:100EF0009BFD24E0002001F049FC0021012001F0CD
:100F000048FB9CA300220A21012006F08DFD9DA331
:100F100000221421012006F087FD9FA300221E213C
:100F2000012006F081FDA1A300222821012006F066
:100F30007BFDA4A300223221012006F075FD05B03F
:100F4000BDEC0A8BBDE8F0832DE9F0432DED068B57
:100F500083B09FED420A10EE108A9FED400A10EE1A
:100F6000109A3F48006820F400503D490860084648
:100F7000006840F480400860642001F007FC4FF4F2
:100F800080703449088093A300221146012006F0A6
:100F90004BFD39480088002846D101F048FB2D4917
:100FA000488008464088C0EB003000EE100AB8EEDA
:100FB000C00ADFED290A80EE201ABCEEC10A10EE4D
:100FC000100A84B22146012001F0E3FA00EE104A33
:100FD000B8EE400ADFED3A0A20EE200ADFED2D0AD6
:100FE00080EE208A18EE100A09F08AFB41EC190BFA
:100FF0008DED009B7BA300220C21012006F014FD47
:101000000120FFF734FB054600EE105AB8EE400A07
:10101000F3EE0F0A20EE200ADFED1E0A80EE201A02
:1010200011EE108A4046E5E040E10000C2FBE1EE2F
:10103000F020F0E5E6E8ECE000000000EDE0E6E09E
:10104000F2E8E5EC00000000E5EDEAEEE4E5F0E0B2
:10105000000000007C05002000008043000000002C
:1010600014040240564C2D494E2850574D29204318
:101070006F6E74726F6C0000CC020020D4020020EE
:101080000000C84250574D203D2025302E306620AC
:101090002525000000008045492D4C4F4144203D4E
:1010A000202025302E32662041000000492D50348A
:1010B00038203D202025302E3266204100000000DF
:1010C00033335340D6C0CF2056412D494E203D20CA
:1010D0002025302E3266205600000000B20200208B
:1010E0006666666666A64F4000000000000070401D
:1010F000B0020020562D4C45443D25302E3166204F
:10110000562D4255533D25302E316600C220F0E564
:10111000E6E8ECE5204D414E55414C00D8C8CC20C6
:10112000E2FBF1F2E0E2EBFFE5F2F1FF000000008C
:10113000F2F3ECE1EBE5F0EEEC20564C283020E841
:10114000EBE8203129000000EFE5F0E5EAEBFEF7DF
:10115000E8F2E520E2204155544F0000E4EBFF2087
:10116000F3EFF0E0E2EBE5EDE8FF20F0F3F7EAEE75
:10117000E9000000C8F1F2EEF7EDE8EA20534C4137
:1011800056450000E820EDE520F0E5E3F3EBE8F05C
:10119000F3E5F2F1FF000000E2EDE5F8EDE8ECE840
:1011A00020F1E8E3EDE0EBE0ECE80000CFE5F0E56E
:1011B000E9E4E8F2E520E220EEEAEDEE2043414EDC
:1011C00000000000F7F2EEE1FB20F3EFF0E0E2EBCD
:1011D000FFF2FC0056412D494E20436F6E74726F32
:1011E0006C000000D6C0CF203D202025302E326676
:1011F0002056000009F084FA41EC190B8DED009B9C
:10120000AFF26C1300221821012006F00DFC002023
:10121000FFF72DFA064600EE106AB8EE400AF3EE2C
:101220000F0A20EE200A5FED650A80EE201A11EE0B
:10123000109A484609F064FA41EC190B8DED009BB9
:10124000AFF2981300222421012006F0EDFBFD49A6
:10125000088809F04EF841EC1A0B9FEDFB0B53EC9C
:10126000102B09F059F841EC190B08F0E3FD00EEE2
:10127000100A5FED870A80EE201ABCEEC10A10EE5C
:10128000100A87B200EE107AF8EE408A18EE900A43
:1012900009F036FA41EC190B8DED009BAFF21C23DF
:1012A00000223021012006F0BFFB29E0002001F0E0
:1012B0006DFA0021012001F06CF9AFF24813002211
:1012C0000A21012006F0B0FBAFF2481300221421DE
:1012D000012006F0A9FBAFF2401300221E210120DD
:1012E00006F0A2FBAFF23C1300222821012006F0F9
:1012F0009BFBAFF2301300223221012006F094FB59
:1013000003B0BDEC068BBDE8F0832DE9F0432DED75
:10131000048B83B01FEDAF0A10EE109ACCA300220D
:101320001146012006F080FB01F081F9C549888053
:1013300008468088C0EB003000EE100AB8EEC00A04
:101340005FEDBB0A80EE201ABCEEC10A10EE100A57
:1013500084B22146022001F01CF900EE104AB8EEDA
:10136000400A5FEDA90A20EE200A5FEDB60A80EE82
:10137000201A11EE106A304609F0C2F941EC190B3F
:101380008DED009BAFF2A41300220C21012006F08A
:101390004BFB0220FFF76BF9054600EE105AB8EE42
:1013A000400A5FEDB90A20EE200A5FEDC60A80EE22
:1013B000201A11EE107A384609F0A2F941EC190B07
:1013C0008DED009BA5A300221821012006F02CFB27
:1013D000284601F0B5FA08EE100AB8EEC80ADFEDAB
:1013E000A40A80EE201A11EE108A404609F088F90E
:1013F00041EC190B8DED009B9EA3002224210120BE
:1014000006F012FB0120FFF732F908EE900AB8EE61
:10141000680AF3EE0F0A20EE200A5FEDE20A80EE82
:10142000201A11EE109A484609F06AF941EC190B9E
:101430008DED009BAFF2A03300223021012006F099
:10144000F3FA03B0BDEC048BBDE8F083F0B52DEDED
:10145000068B83B09FED8D0A10EE104A9FED8B0A2C
:1014600010EE105A9FED890A10EE106A9FED870A60
:1014700010EE107A86A300221146012006F0D4FA5D
:1014800001F0D5F86F49C8800020FFF7F0F808EEAA
:10149000100A0320FFF7EBF808EE900A0220FFF78E
:1014A000E6F809EE100A0120FFF7E1F809EE900ACC
:1014B000B8EE480ADFED790A20EE200ADFED780A5F
:1014C00080EE201A11EE104AB8EE680ADFED730ABA
:1014D00020EE200ADFED720A80EE201A11EE105A7B
:1014E000B8EE490ADFED6D0A20EE200ADFED6C0A46
:1014F00080EE201A11EE107AB8EE690ADFED670A65
:1015000020EE200ADFED660A80EE201A11EE106A46
:10151000204609F0F5F841EC1A0B8DED00AB61A304
:1015200000220C21012006F07FFA284609F0E8F895
:1015300041EC1A0B8DED00AB60A3002218210120B5
:1015400006F072FA384609F0DBF841EC1A0B8DED23
:1015500000AB42A300222421012006F065FA3046A8
:1015600009F0CEF841EC1A0B8DED00AB59A3002227
:101570003021012006F058FA03B0BDEC068BF0BD17
:101580002DE9F04F2DED088B87B09FED400A10EE4E
:10159000106A9FED3E0A10EE107A9FED3C0A10EEA5
:1015A000108A5248008801284BD1002001F0EEF843
:1015B0000021012000F0EDFF01F039F821490881F8
:1015C000088908F096FE41EC1A0B9FED490B53EC8D
:1015D000102B08F0A1FE41EC190B08F02BFC00EEDB
:1015E000100ADFED450A80EE201ABCEEC10A10EEAB
:1015F000100A4249088042A300220A21012006F075
:1016000013FA3E48008800EE100AB8EE400ADFEDFB
:101610003F0A20EE200ADFED3E0A80EE201A11EE8E
:10162000109A484609F06CF841EC190B8DED009BBF
:1016300038A300221521012006F0F6F92F48008872
:1016400072E0D3E07C05002000000000000059405B
:10165000D2E5F0ECEEE4E0F2F7E8EA00C0D6CF2005
:1016600054454D50203D202025302E326620560016
:101670000000804774203D202025302E326620E374
:10168000F0E0E420F6E5EBFCF100000000000000D3
:10169000C0D6CF2C20E2EEEBFCF2000033335340F7
:1016A00000008045C0D6CF20492D503438203D2041
:1016B0002025302E3266205600000000C0D6CF20F4
:1016C000434F4E2D494E203D202025302E3266209E
:1016D00056000000C0D6CF20492D4C4F4144203D3C
:1016E000202025302E32662056000000CC0200203B
:1016F0003EF8E0830F3EA84000008043C80200206F
:1017000043414E20536C6176650000000000C842E2
:101710007CF04145C7E0E4E0EDE8E5203D202025F0
:10172000302E32662025250000EE100AB8EE400A61
:10173000F3EE040A20EE200A5FED0B0A80EE201A79
:1017400011EE106A0220FEF792FF8246504601F029
:10175000F7F88346584601F02AF900EE100AB8EE71
:10176000400AF3EE040A20EE200A5FED170A80EE2D
:10177000201A11EE107A304608F0C2FF41EC190B26
:101780008DED009BF5A300221F21012006F04CF9EE
:10179000384608F0B5FF41EC190B8DED009BF4A322
:1017A00000222921012006F03FF90120FEF75FFF0A
:1017B000044600EE104AB8EE400AF3EE0F0A20EE9F
:1017C000200A5FED490A80EE201A11EE108A404689
:1017D00008F096FF41EC190B8DED009BAFF24873BA
:1017E00000223321012006F01FF9DBE0E6A30022EE
:1017F0001146012006F018F9E648007800287DD14E
:1018000040F6FF71012000F0C4FE4FF48070E24901
:10181000488000F00CFFE04908810846008900EE8E
:10182000100AB8EE400A5FED470A20EE200A5FED8D
:101830004E0A80EE201ABCEEC10A10EE100A85B2E4
:10184000284600F0A3FF00EE105AB8EE408A18EECA
:10185000100A08F055FF41EC190B8DED009BAFF21B
:10186000DC7300220B21012006F0DEF8CB48008853
:1018700000EE100AB8EE400AF3EE040A20EE200A49
:101880005FED5D0A80EE201A11EE106A0220FEF76D
:10189000EEFE8246504601F053F88346584601F06A
:1018A00086F800EE100AB8EE400AF3EE040A20EEC5
:1018B000200A5FED690A80EE201A11EE107AB8480E
:1018C000007800EE100AB8EE400A10EE100A08F098
:1018D00017FF41EC190BB348007800EE100AB8EE80
:1018E000400A10EE100A08F00BFF41EC1A0BAE484C
:1018F000007800EE100AB8EE400A00E04CE010EE6E
:10190000100A08F0FDFE41EC1B0B8DED049B8DEDE4
:1019100002AB8DED00BBA5A300221521012006F02E
:1019200083F8304608F0ECFE41EC190B8DED009B7E
:101930008AA300221F21012006F076F8384608F01D
:10194000DFFE41EC190B8DED009B89A300222921BC
:10195000012006F069F80120FEF789FE044600EE3A
:10196000104AB8EE400AF3EE0F0A20EE200A5FEDAF
:10197000B40A80EE201A11EE108A404608F0C0FE2C
:1019800041EC190B8DED009BAFF6F40300223321DF
:10199000012006F049F805E08CA300220B2101206C
:1019A00006F042F807B0BDEC088BBDE8F08F10B52B
:1019B0008BA301221146104606F036F810BD10B573
:1019C00089A301221146104606F02EF810BD10B56D
:1019D00087A301221146104606F026F810BD10B567
:1019E00085A301221146104606F01EF810BD10B561
:1019F000012083490880052082490870002000F0FA
:101A00002BFE10BD10B52DED028B86B07E48006810
:101A100020F400507C4908600846006840F480408B
:101A200008607AA300221146012005F0FDFF00F0B6
:101A3000FEFD7949088008460088FF2801DDFF2067
:101A400008807648008876A300220B2100900120B0
:101A500005F0EAFF7048008800EE100AB8EE400A70
:101A60005FEDD60A20EE200A5FEDDD0A80EE201A37
:101A700011EE104A204608F043FE41EC180B8DEDA4
:101A8000008BAFF2703300221521012005F0CCFF4E
:101A9000664801886648028866480088664B1B884D
:101AA000CDE90230CDE90421644800886449098801
:101AB00064A30022CDE900101F21012005F0B4FF2E
:101AC00006B0BDEC028B10BD10B52DED048B84B0BB
:101AD0004D48006820F400504B49086008460068F3
:101AE00040F4804008602B480078002834D15CA383
:101AF00000221146012005F097FF5E48008800EEA5
:101B0000100AB8EE400ADFED5C0A20EE200ADFED95
:101B10005B0A80EE201A11EE104A204608F0F0FD14
:101B200041EC180B5648008800EE100AB8EE400A47
:101B3000DFED540A20EE200ADFED500A80EE201A75
:101B400011EE104A204608F0DBFD41EC190B8DED3B
:101B5000028B8DED009B97E0FEE00000C7E0E4E023
:101B6000EDE8E5203D202025302E32662041200082
:101B7000D2E5ECEF2E20EAEEF0F02E203D202025DD
:101B8000302E32662041200043414E204D61737457
:101B900065720000AB0200207C050020C802002016
:101BA000AA020020AE020020AC0200205265673D70
:101BB00025302E3066205057523D25302E3066207D
:101BC0005354423D25302E30662000004552524F7E
:101BD000522C204E4F204441544120494E000000D9
:101BE00054455354203100005445535420320000D2
:101BF00054455354203300004552524F52000000C8
:101C0000D202002053000020140402405465737473
:101C1000204D6F646500000056000020D6020020B1
:101C200050572D454E20202575000000E40200206D
:101C3000E2020020E0020020DE020020DC020020A0
:101C4000DA020020D8C8CC202025752C2025752C40
:101C50002025752C2025752C2025752C2025750018
:101C600054657374204D6F64652C2043414E204FA2
:101C70004B000000B80200203333534000007F4384
:101C8000BA0200200000C842F7A300220B21012065
:101C900005F0CAFEFA48008800EE100AB8EE400AC5
:101CA0005FED0B0A20EE200A5FED0C0A80EE201A91
:101CB00011EE104A204608F023FD41EC180B8DED83
:101CC000008BF0A300221521012005F0ADFEF148A4
:101CD000008800EE100AB8EE400A10EE100A08F074
:101CE0000FFD41EC180BEC48008800EE100AB8EE2E
:101CF000400A10EE100A08F003FD41EC190B8DEDBF
:101D0000028B8DED009BE5A300221F21012005F031
:101D10008BFEE848008800EE100AB8EE400A10EE8C
:101D2000100A08F0EDFC41EC180BE348008800EEC7
:101D3000100AB8EE400A10EE100A08F0E1FC41EC7F
:101D4000190B8DED028B8DED009BDCA30022292168
:101D5000012005F069FE05E0DEA300220B21012031
:101D600005F062FE04B0BDEC048B10BD10B52DED86
:101D7000048B84B0DD48007800287DD100F057FC4A
:101D80000446C01704EB9070D949098801EBA00004
:101D9000D7490880002000F05FFCD548008805285E
:101DA00002DB0020D2490880D1480088052872D281
:101DB000DFE800F00372DFFCFB00CE48006840F46F
:101DC0008040CC4908600846006820F40050086054
:101DD0000846006840F400400860C7A300220121C3
:101DE000084605F021FEC9A300220B21012005F0C1
:101DF0001BFEA848008800EE100AB8EE400A10EE5C
:101E0000100A08F07DFC41EC180BA348008800EE96
:101E1000100AB8EE400A10EE100A08F071FC41EC0E
:101E2000190B8DED028B8DED009B9CA300221521DB
:101E3000012005F0F9FD9F48008800EE100AB8EE79
:101E4000400A10EE100A08F05BFC41EC180B9A48AF
:101E5000008800EE100AB8EE400A10EE100A08F0F2
:101E60004FFC41EC190B8DED028B8DED009B93A384
:101E700000221F21012000E077E205F0D5FDA8A394
:101E800000222921012005F0CFFDAAA30022332141
:101E9000012005F0C9FD67E29648006820F4804003
:101EA000944908600846006840F4005008600846FD
:101EB000006820F400400860A3A300220121084626
:101EC00005F0B2FD91A300220B21012005F0ACFD2D
:101ED0007048008800EE100AB8EE400A10EE100AB2
:101EE00008F00EFC41EC180B6B48008800EE100A5D
:101EF000B8EE400A10EE100A08F002FC41EC190B93
:101F00008DED028B8DED009B64A300221521012035
:101F100005F08AFD6748008800EE100AB8EE400A16
:101F200010EE100A08F0ECFB41EC180B6248008838
:101F300000EE100AB8EE400A10EE100A08F0E0FBBE
:101F400041EC190B8DED028B8DED009B5BA3002204
:101F50001F21012005F068FD71A300222921012025
:101F600005F062FD73A300223321012005F05CFD22
:101F7000FAE1142000F00AFC40F2D941012000F0FF
:101F800008FB40F2D941022000F003FB73A30022BA
:101F90000121084605F048FD5CA300220B21012029
:101FA00005F042FD7348008801E063E1E6E000EEE1
:101FB000100AB8EE400A5FEDD00A20EE200A5FED6D
:101FC000D10A80EE201A11EE104A204608F098FB44
:101FD00041EC180B6848008800EE100AB8EE400A81
:101FE0005FEDD80A20EE200A5FEDDC0A80EE201AB1
:101FF00011EE104A204608F083FB41EC190B8DEDE1
:10200000028B8DED009B18A300221521012005F005
:102010000BFD1B48008800EE100AB8EE400A5FED89
:10202000EA0A20EE200A5FEDEB0A80EE201A11EE9C
:10203000104A204608F064FB41EC180B8DED008B34
:1020400010A300221F21012005F0EEFC34A3002282
:102050002921012005F0E8FC36A3002233210120CC
:1020600005F0E2FC80E10000564C203D2025302E9A
:102070003066205641203D2025302E32660000007B
:10208000C402002054656D706572203D2025302EFD
:1020900032660000BC020020C0020020564F4646B7
:1020A0003D25302E3066205354423D25302E30667B
:1020B00020000000C2020020BE0200204D41535407
:1020C00045523D25302E3066204552523D25302E5A
:1020D000306620004552524F522043414E2C204E34
:1020E0004F204441544120494E000000AB020020E3
:1020F0005800002014040240564F46463D455252B7
:102100003D312C5354423D3000000000EFF0E8ED2B
:10211000FFF2FBE520E7EDE0F7E5EDE8FF3A000030
:10212000C2F0E0F9E0E9F2E520F0F3F7EAF320E4A9
:10213000EBFF0000F1EBE5E4F3FEF9E5E3EE20F25E
:10214000E5F1F2E02E000000564F46463D45525262
:102150003D302C5354423D31000000004144433196
:102160003D414443323D312C2050574D3D32302CBF
:1021700000000000B8020020BA020020322000F067
:1021800005FB40F61F41012000F003FA40F61F4115
:10219000022000F0FEF9CBA300220121084605F041
:1021A00043FCAFF2980300220B21012005F03CFC18
:1021B000CA48008800EE100AB8EE400ADFEDC80AEF
:1021C00020EE200ADFEDC70A80EE201A11EE104A39
:1021D000204608F095FA41EC180BC348008800EE41
:1021E000100AB8EE400ADFEDC10A20EE200ADFED4A
:1021F000BD0A80EE201A11EE104A204608F080FA3F
:1022000041EC190B8DED028B8DED009BAFF2A81305
:1022100000221521012005F007FCB548008800EEDA
:10222000100AB8EE400ADFEDAE0A20EE200ADFED1C
:10223000AD0A80EE201A11EE104A204608F060FA2E
:1022400041EC180B8DED008BAFF2C81300221F215B
:10225000012005F0E9FBAFF238130022292101200B
:1022600005F0E2FBAFF2341300223321012005F028
:10227000DBFB79E0502000F089FA0021012000F01A
:1022800088F90021022000F084F99AA3002201219C
:10229000084605F0C9FBAFF28C1300220B21012088
:1022A00005F0C2FB8D48008800EE100AB8EE400A27
:1022B000DFED8B0A20EE200ADFED8A0A80EE201A7D
:1022C00011EE104A204608F01BFA41EC180B864824
:1022D000008800EE100AB8EE400ADFED840A20EE16
:1022E000200ADFED800A80EE201A11EE104A204607
:1022F00008F006FA41EC190B8DED028B8DED009B79
:10230000AFF29C2300221521012005F08DFB7848B7
:10231000008800EE100AB8EE400ADFED710A20EEE8
:10232000200ADFED700A80EE201A11EE104A2046D6
:1023300008F0E6F941EC180B8DED008BAFF2BC23F1
:1023400000221F21012005F06FFBAFF22C23002299
:102350002921012005F068FBAFF228230022332158
:10236000012005F061FB00BF09E0AFF298230022D5
:102370000B21012005F058FB00206449088004B0BF
:10238000BDEC048B10BD10B500F0CAFE60490978A1
:1023900008445F49087008460078022801DD0020E3
:1023A000087000F0C0FE5A48007820B1012805D01E
:1023B000022809D105E0FFF725FB08E0FFF784FBC1
:1023C00005E0FFF7D3FC02E0FFF709FB00BF00BF09
:1023D00010BD10B54F480088012806D1002000F03C
:1023E000D5F90021012000F0D4F800204A490880E6
:1023F00000F096FE494909780844484908700846A3
:102400000078042801DD0020087000F08CFE4348AD
:1024100004784348007841490978884218D03F48F9
:10242000007828B9002000F0B1F900203D4908806B
:102430003A480078012805D1002100F0AAF80020D0
:1024400038494880374931F8141008B200F004F9CF
:1024500032480078324908703048007808281DD288
:10246000DFE800F004070A0D10131619FEF719FC37
:1024700017E0FEF769FD14E0FEF747FF11E0FEF7F5
:10248000E5FF0EE0FFF77CF80BE0FFF790FA08E0BD
:10249000FFF795FA05E0FFF79AFA02E0FFF79FFAD7
:1024A00000BF00BF10BD10B5002005F0CBF91E48DD
:1024B000008810B9FFF78DFF01E0FFF764FF05F01A
:1024C000E7F910BD414443313D414443323D322E92
:1024D000352C2050574D3D35302C0000B8020020DF
:1024E0003333534000007F43BA0200200000C8424B
:1024F000C4020020414443313D414443323D302C2D
:102500002050574D3D38302C00000000580000206E
:1025100054000020CC020020D202002052000020F3
:10252000530000207C050020D00200201CB50121B2
:10253000480702F036FD224804F0E2F92049002065
:1025400004F0C7F91E49102004F0C3F9012100204E
:1025500004F0DCF90121102004F0D8F9002108462C
:1025600004F022FA0021084604F02BFA0121084663
:1025700002F0D0FC00208DF806008DF80700032043
:102580008DF804003020009069460E4801F0A8F94B
:102590001CBDB1F5805F01DB40F6FF71012802D060
:1025A000022807D102E0084A116006E0064A0C3210
:1025B000116002E0044A116000BF00BF70470000D4
:1025C0008C05002000000240087400401CB5012169
:1025D000084602F0F7FC0121084602F09BFC4FF48C
:1025E0004070009002208DF8040003208DF8050053
:1025F00000208DF806008DF807006946214801F09B
:102600006FF9012208211F4801F0F5F90122092183
:102610001C4801F0F0F903201B49088101211A48E8
:1026200001F082FD0121184802F06FF91CBD164827
:10263000406A404201B2002903DA0020124A506287
:102640007047B1F5807F05DD6FF0FF000E4A5062E4
:102650009015F5E788B2F3E7002803DA00210A4A6B
:1026600051620AE0B0F5807F04DD6FF0FF01064A99
:10267000516202E04142044A51627047002002491F
:1026800048627047000002400000014010B58EB063
:10269000044641F28830844201DA044604E042F202
:1026A0001070844200DD044600EE104AB8EE400A85
:1026B000DFED460A80EE801ABCEEC10A10EE100A69
:1026C000434908800121022002F024FC01200090EF
:1026D00002208DF8040003208DF8050000208DF8FD
:1026E00006008DF8070069463A4801F0F9F8022221
:1026F0000021384801F07FF90121022002F051FC4D
:10270000334800880C900020ADF82C00ADF8340060
:102710004020ADF82E000BA92F4801F07CFC602072
:10272000ADF818000120ADF81A0000200890ADF8AF
:1027300024004FF48070ADF8280006A9264801F067
:1027400085FD0020ADF80800ADF80A00ADF80C00DA
:10275000ADF80E00ADF810004FF40050ADF81200C7
:102760000020ADF8140002A91B4802F0B5F8184883
:102770000188194801F041FE0121174801F0D4FCFD
:102780000121154802F0C1F80EB010BD70B5044625
:102790000F49098804FB01F000EE100AB8EEC00AE8
:1027A000DFED0E0A80EE201ABCEEC10A10EE100A10
:1027B00085B207480088411B074801F01EFE70BD26
:1027C00010B50821044802F0EFF810BDA037204CE6
:1027D0005A00002000040240000400400000C842EB
:1027E00010B52148008808B9FFF701F91F48018892
:1027F0001F48008800F054FB10BD10B51D4800882C
:1028000078B11D48008848B900201C490870012093
:1028100000F0A7FA0120184908800BE000F026FB21
:1028200008E01548008828B1002000F09AFA00203E
:102830001149088010BD10B500F079FC10480088DF
:10284000962810DB0F480078012804D1FFF72BFEF3
:1028500002200C4908700C48008810B9FFF7CDFF22
:1028600001E0FFF7BDFF10BDD2020020D80200201A
:1028700056000020CC020020CE020020A60200203C
:102880002400002055000020D00200201CB50121AA
:10289000022002F03FFB00208DF8060001208DF899
:1028A00007008DF804004FF46040009000208DF880
:1028B000050069461F4801F013F80121042002F0C9
:1028C00029FB00208DF806008DF807008DF8040024
:1028D0004FF6FF70009000208DF8050069461648FD
:1028E00000F0FEFF0121084602F014FB00208DF8E5
:1028F00006008DF807008DF804004FF4806000900A
:1029000000208DF8050069460C4800F0E9FF0948F1
:102910001430006840F480400649143108600846CD
:10292000006820F4005008600846006840F4004049
:1029300008601CBD00040240000802400000024084
:102940002DE9F04F2DED048B83B005467E480290B3
:102950007E480190962D24DD284607F0CAFC9FEDA5
:102960007C0B53EC102B07F0D5FD07F095FC83464C
:102970005946284600F0FEF88146484600F00BF91B
:10298000064642F2C7607043C7136F4807EB000A60
:1029900051464FF0806000F0EDF804466B49A4EB1F
:1029A0000108404603B0BDEC048BBDE8F08FF0B5E4
:1029B0000446F2EE046AF0EE663AF2EE046AB0EE15
:1029C000666ADFED656AB0EE660ADFED636AB0EE57
:1029D000664A06EE904AF8EEE66A9FED607AC6EE29
:1029E000877AF0EE672A5E4E368806EE906AF8EE39
:1029F000666ADFED5C7A86EEA77ADFED5B6A67EEEA
:102A0000266AF0EE661A012101E04E1CF1B2574E23
:102A100006EB8106D6ED006AF4EEE26AF1EE10FAFA
:102A2000F3D30A461146561E504F07EB8606D6EDE5
:102A3000006AF0EE663A3E4606EB8206D6ED006A84
:102A4000B0EE666A012101E04E1CF1B201EB4106D5
:102A5000464F07EB0616D6ED006AF4EEE16AF1EE9A
:102A600010FAF1D30B4619465E1E06EB460607EB3D
:102A70000616D6ED006AB0EE660A03EB430607EBD6
:102A80000616D6ED006AB0EE664A5E1E06EB4606F6
:102A900007EB0617561E07EB8606D6ED000A5E1EEC
:102AA00006EB4606314F07EB061606EB820696ED5F
:102AB000002A03EB430607EB0617561E07EB8606B4
:102AC000D6ED004A03EB4306284F07EB061606EB4C
:102AD000820696ED005A71EEC06A34EEE07A66EE38
:102AE000876A74EE407A86EEA77A37EE201A71EE86
:102AF000C06A35EE427A66EE876A74EE407A86EEF8
:102B0000A77A77EE025A75EEC16A32EEE37A66EE84
:102B1000876A76EE637A86EEA77A37EE013A9FED02
:102B2000127AC3EE076A9FED127A66EE876AFCEEB0
:102B3000E66A16EE906AB5B240F65226B54201DD5D
:102B4000304600E0A8B2F0BDAD6F030000001101F7
:102B50003EF8E0830F3EA8400000000000008047E0
:102B6000C80200207CF0414500401C465C0000206B
:102B70000020254570B5024611B94FF0FF3070BDF9
:102B8000B2FBF1F303FB11221404B4FBF1F505EBE6
:102B900003463046F3E701465348B1F5004F02D2F1
:102BA0000904524BC01AB1F5000F02D20902504B72
:102BB000C01AB1F1006F02D209014E4BC01AB1F137
:102BC000005F02D289004C4BC01AB1F1804F03D292
:102BD0004900A0F53140723801EB510202F0004388
:102BE0001BB91146A0F5CE40CD3801EB910202F0A1
:102BF00000431BB91146A0F56450203801EBD10207
:102C000002F000431BB91146A0F5F050273801EB44
:102C1000111202F0004313B91146A0F6857001EBC2
:102C2000511202F0004313B91146A0F2E17001EB1A
:102C3000911202F0004313B91146A0F57E7001EB2A
:102C4000D11202F0004313B91146A0F5FF70C1F193
:102C50000041A0EBD1307047F0B502460B46002191
:102C600016E04E1C34B20FE032F9116032F91470E4
:102C7000BE4207DA32F9115032F8146022F81160BE
:102C800022F81450661C34B29C42EDDB4E1C31B26B
:102C90009942E6DB1E4603EBD6777F1032F9170028
:102CA000F0BD30B503460024002204E033F9125091
:102CB0002C44551C2AB28A42F8DB94FBF1F528B269
:102CC00030BD02460A80B1F90000B1F90230C01AE5
:102CD0004B68184448600B7A4868184100B2488035
:102CE000B1F9020070470000AF650A0021170B0020
:102CF000918B0500C8C50200E462010000280DDBCD
:102D000000BF00BF00F01F02012191404209920064
:102D100002F1E022C2F8001100BF00BF70471CB5ED
:102D20000121084602F0F6F84FF4C050009002204E
:102D30008DF804008DF8050000208DF806000120B4
:102D40008DF807006946D84800F0CAFD09220B211A
:102D5000D54800F050FE09220C21D34800F04BFE6C
:102D60001CBD10B588B0044644B1D0480088D04995
:102D70000880D0480088D049088007E0CB48008808
:102D8000CD490880CB480088C94908800121480600
:102D900002F007F9C94802F0FDF90021C74802F026
:102DA00045FB05A802F01AFB00208DF81A0001204F
:102DB0008DF81B008DF81C008DF81D0000208DF88B
:102DC0001E0001208DF81F0000208DF816008DF8E0
:102DD000170002208DF818008DF819000620ADF8B4
:102DE000140005A9B54802F0EEF901208DF80E0097
:102DF0008DF80F008DF81000AF4800884FF6FF7176
:102E000001EA4010ADF804000020ADF806000846C5
:102E1000ADF80800ADF80A000120ADF80C008DF8FF
:102E2000110001A802F059FAA44814300068A3491F
:102E3000143108600846006840F002000860084647
:102E4000006840F0040008600846006840F0100088
:102E500008600846006840F0200008601520FFF771
:102E60004DFF1320FFF74AFF08B010BD10B594487E
:102E7000007894490978884211DB00209049087055
:102E80009149087001209149087091490870914951
:102E9000087000F0C5F89049884802F00DFB10BD9D
:102EA00070B504460D468648007886490978884200
:102EB0000ADB0020824908702946204600F0DDF830
:102EC00085497E4802F0F8FA70BD10B501217B48B3
:102ED00002F06AFD18B10121784802F000FE10BD31
:102EE00010B50421754802F05FFD18B10421734844
:102EF00002F0F5FD0221714802F056FD18B10221E1
:102F00006E4802F0ECFD10BD10B520216B4802F0B8
:102F10004BFD18B12021694802F0E1FD10216748FE
:102F200002F042FD18B11021644802F0D8FD6B4A4E
:102F30000121624802F0B5FB69480088002839D0B9
:102F40006648C07AAA286AD16448007BAB2866D15B
:102F50006248407BAC2862D1002062490880624907
:102F600008705E48007C614908805C48407C60498C
:102F700008805A48C07B5F4908805848807C5E4979
:102F800008805C48007800F001005C4908805948DE
:102F90000078C0F340005A49088056480078C0F3D2
:102FA00080005849088053480078C0F3C000564953
:102FB000088034E05548008888BB4848C07AAA2871
:102FC0002DD14648007BAB2829D14448407BAC2812
:102FD00025D1002043490880434908703F48C17B00
:102FE000007C01EB00204A4908803C48807C00F0CE
:102FF0000100364908703948807CC0F340003449EC
:1030000008703648807CC0F380003249087033482D
:10301000807B404908803148407C3F49088010BD92
:10302000234800882C490860002048720872082054
:103030008872AA20C872AB2127480173AC21417362
:103040002148017824488173314801782248C173AE
:103050002F480088011220480174002141741B4848
:1030600000781B49097840EA41001A49097840EA8A
:103070008100C1B2184881747047284A1288164BE3
:103080001A6000225A721A7208229A72AA22DA72FE
:10309000AB23114A1373AC23537300239373D3737D
:1030A0001374507491747047000002409C02002019
:1030B000A2020020A40200209E0200200064004022
:1030C000A6020020A7020020AD020020AC020020D2
:1030D000AE020020AA0200209C050020B0050020BE
:1030E000D0020020A8020020AB020020B80200207D
:1030F000BA020020CA020020C4020020BC02002044
:10310000C2020020BE020020C0020020CC0200202B
:10311000C8020020B0020020B2020020A00200205D
:10312000D948008870470020D74908807047D748A1
:1031300000884FF6FF7101EA4000D4490880D44866
:10314000006800F0010020B10846008840F001004E
:103150000880D04800884FF6FF7101EA4000CD4951
:103160000880CB48006800F0020020B108460088C3
:1031700040F001000880C84800884FF6FF7101EA5E
:103180004000C5490880C248006800F0040020B132
:103190000846008840F001000880C04800884FF6CB
:1031A000FF7101EA4000BD490880B948006800F09D
:1031B000080020B10846008840F001000880B848A7
:1031C00000884FF6FF7101EA4000B5490880B04819
:1031D000006800F0100020B10846008840F00100AF
:1031E0000880B04800884FF6FF7101EA4000AD4901
:1031F0000880A748006800F0200020B10846008839
:1032000040F001000880A84800884FF6FF7101EAED
:103210004000A54908809E48006800F4806020B105
:103220000846008840F001000880A04800884FF65A
:10323000FF7101EA40009D4908809548006800F44C
:10324000006020B10846008840F0010008809848DE
:1032500000884FF6FF7101EA4000954908808C48CC
:10326000006800F4805020B10846008840F001005A
:103270000880904800884FF6FF7101EA40008D49B0
:1032800008808348006800F4005020B10846008898
:1032900040F001000880874800884FF6FF7188429F
:1032A00003D100208449088005E08248008810B9D5
:1032B000012081490880814800884FF6FF7101EAAA
:1032C00040007E4908807E48006900F4806020B19B
:1032D0000846008840F00100088078480088FF28F0
:1032E00004D169480088401C674908806F480088FD
:1032F0004FF6FF71884203D101207249088005E032
:103300006A48008810B900206E4908806848008823
:103310004FF6FF71884203D100206B49088005E019
:103320006348008810B90120674908806648008812
:1033300000287CD05548008848B96448008840F08F
:103340000100624908800120614908800EE04F4871
:1033500000884FF6FF71884208D15C48008820F051
:1033600001005A49088000205949088049480088CE
:1033700048B95648008840F00200544908800120AE
:10338000544908800EE0434800884FF6FF71884298
:1033900008D14E48008820F002004C4908800020E7
:1033A0004C4908803C48008848B94848008840F0AB
:1033B0000400464908800120474908800EE036484D
:1033C00000884FF6FF71884208D14048008820F0FD
:1033D00004003E49088000203F4908802F480088AB
:1033E00048B93A48008840F0080038490880012070
:1033F0003A4908800EE0294800884FF6FF7188425C
:1034000008D13248008820F00800304908800020A8
:10341000324908802248008850B92C48008840F082
:1034200010002A49088001202D4908800FE02AE079
:103430001B4800884FF6FF71884208D12348008856
:1034400020F01000214908800020254908801548F7
:10345000008848B91D48008840F020001B490880BA
:103460000120204908800EE00E4800884FF6FF71C9
:10347000884208D11548008820F0200013490880B0
:10348000002018490880704700030020E602002051
:1034900010080240E8020020EA020020EC020020AE
:1034A000EE020020F0020020F6020020F8020020C8
:1034B000FA020020FC020020D4020020FE020020BC
:1034C00000000240CC020020D0020020D8020020E0
:1034D000DA020020DC020020DE020020E0020020F0
:1034E000E2020020E402002032490143324A116026
:1034F000704770B5002100230F22C4781CB32E4CF6
:10350000246804F4E064C4F5E064C4F30721C1F165
:103510000404E3B20A4144789C40E1B28478144048
:1035200021430C07210E254C05786155047804F0E1
:103530001F050124AC4005786D11AD0005F1E025B3
:10354000C5F8004109E0047804F01F050124AC40EF
:103550001B4D0678761145F8264070BD194A0A4081
:103560000243154B1B1F1A60704739B1124A121DD6
:1035700012680243104B1B1D1A6006E00E4A121D12
:10358000126882430C4B1B1D1A607047042808D137
:103590004FF0E021096941F004014FF0E022116190
:1035A00007E04FF0E021096921F004014FF0E0222B
:1035B000116170470000FA050CED00E000E400E046
:1035C00080E100E080FFFF1F0CB50020019000901B
:1035D0007648006840F480307449086000BF734842
:1035E000006800F4003000900198401C01900098A1
:1035F00018B90198B0F5A04FF1D16C48006800F4FB
:10360000003010B10120009001E0002000900098EF
:10361000012846D165484030006840F08050634939
:10362000403108606248006840F4404060490860EA
:103630005E48083000685D49083108600846006847
:1036400040F4004008600846006840F4A05008605C
:103650005848091F0860081F006840F08070091F63
:10366000086000BF5148006800F000700028F9D0E1
:1036700040F20560504908604C480830006820F06E
:1036800003004A49083108600846006840F002001B
:10369000086000BF45480830006800F00C000828AA
:1036A000F8D10CBD10B54548006840F4700043499E
:1036B00008603E48006840F001003C490860002076
:1036C0003A4908310860394800683D49084037499F
:1036D00008603C48091D0860081F006820F480202D
:1036E000091F0860002031490C310860FFF76CFFAA
:1036F0004FF0006031498039086010BD70B500207E
:103700000022022300240221284D08352D6805F0EF
:103710000C0020B1042806D0082834D107E02A4D37
:103720002A4E356033E0284D284E35602FE01F4D7E
:103730002D1D2D68C5F380541C4D2D1D2D6805F0E1
:103740003F0154B1204DB5FBF1F5184E361D3668DA
:10375000C6F3881605FB06F209E01B4DB5FBF1F533
:10376000124E361D3668C6F3881605FB06F20F4D5D
:103770002D1D2D68C5F301456D1C6B00B2FBF3F5E3
:10378000124E356003E0104D104E356000BF00BF93
:10379000064D08352D68C5F303150D4E705D0B4DB4
:1037A0002D68C540094E356070BD000000380240EC
:1037B0000070004010544007003C024088ED00E0DB
:1037C000FFFFF6FE103000240024F4000403002064
:1037D0000803002010B504469848844208D101210E
:1037E000084601F000FC0021012001F0FCFB76E01E
:1037F0009348844208D10121022001F0F4FB00210A
:10380000022001F0F0FB6AE08E48844208D10121D9
:10381000042001F0E8FB0021042001F0E4FB5EE05D
:103820008948844208D10121082001F0DCFB0021F5
:10383000082001F0D8FB52E08448844208D10121DD
:10384000102001F0D0FB0021102001F0CCFB46E05D
:103850007F48844208D10121202001F0C4FB0021CF
:10386000202001F0C0FB3AE07A48844208D10121CF
:10387000402001F0B8FB0021402001F0B4FB2EE015
:103880007548844208D10121802001F0ACFB002161
:10389000802001F0A8FB22E07048844208D1012179
:1038A000801501F0A0FB0021A01501F09CFB16E0A3
:1038B0006B48844208D10121401501F094FB00219E
:1038C000601501F090FB0AE06648844207D10121AF
:1038D000001501F088FB0021201501F084FB10BDCC
:1038E000F0B50A4600210023002400BF3DE0012579
:1038F00005FA01F3156805EA03049C4234D1056812
:103900004F000326BE40B543056015794E00B54013
:103910000668354305601579012D02D01579022D11
:1039200016D185684F000326BE40B54385605579A2
:103930004E00B540866835438560456801268E4057
:10394000B5434560456896798E40B6B235434560CB
:10395000C5684F000326BE40B543C560D5794E000B
:10396000B540C6683543C560491C1029BFD3F0BDBA
:103970004FF6FF7101600021017141718171C171C8
:10398000704708B54FF480320092009A0A430092C3
:10399000009AC261C161009AC261C2690092C269A3
:1039A000009208BD0246002013690B400BB10120B4
:1039B00000E0002070470146086980B27047024667
:1039C000002053690B400BB1012000E0002070473C
:1039D0000146486980B27047018370474183704750
:1039E0000AB1018300E04183704741617047426939
:1039F0004A4042617047F0B5002300244D07ED0EA8
:103A000002FA05F3CE1000F1200555F826504E07B6
:103A1000F70E0F26BE40B543CF1000F1200646F842
:103A20002750CE1000F1200555F8265045EA030432
:103A3000CE1000F1200545F82640F0BD0000024000
:103A40000004024000080240000C02400010024046
:103A50000014024000180240001C024000200240F6
:103A6000002402400028024010B50446FA4884426F
:103A700008D10121102001F0FAFA0021102001F0F4
:103A8000F6FA57E0F548844209D10121480401F0D3
:103A9000DDFA00214FF4003001F0D8FA4AE0F04896
:103AA000844209D10121880401F0D0FA00214FF4A9
:103AB000802001F0CBFA3DE0EA48844209D101219F
:103AC000C80401F0C3FA00214FF4002001F0BEFA4F
:103AD00030E0E548844209D10121080501F0B6FA39
:103AE00000214FF4801001F0B1FA23E0DF48844256
:103AF00008D10121202001F0BAFA0021202001F094
:103B0000B6FA17E0DA48844209D10121880701F0AA
:103B10009DFA00214FF0804001F098FA0AE0D54864
:103B2000844207D10121400501F090FA002160058F
:103B300001F08CFA10BD2DE9FF4705460E46002422
:103B4000A14600BFA046B08900B100BF2C8A24F472
:103B50004054F08804432C82AC8941F20C608443C9
:103B6000B08831890843718908430443AC81AC8A29
:103B700024F44074B0890443AC82684601F0F9F83B
:103B8000B548854202D0B948854202D1DDF80C9093
:103B900001E0DDF80890A88900F4004040B109EB8D
:103BA000C90000EB091031684900B0FBF1F707E0EC
:103BB00009EBC90000EB091031688900B0FBF1F78F
:103BC0006420B7FBF0F004012009642101FB1078A8
:103BD000A88900F4004040B1322000EBC800B0FBDF
:103BE000F1F000F00700044308E0322000EB081079
:103BF0006421B0FBF1F000F00F0004432C81BDE81C
:103C0000FF874FF41651016000218180C18001813E
:103C10000C21418100218181704710B502460020AE
:103C2000108A20F470600B884C8823438C882343CF
:103C3000CC8823431843108210BD002101804180AD
:103C40008180C180704721B1828942F40052828113
:103C500004E082894DF6FF731A4082817047028B1F
:103C600002F47F420283028B0A430283704721B130
:103C7000828942F40042828103E08289C2F30E020B
:103C80008281704721B1828A42F40062828204E01C
:103C9000828A4FF2FF731A4082827047C1F3080292
:103CA0008280704701468888C0F308007047028A06
:103CB0004FF6F0731A400282028A0A43028270476A
:103CC00021B1828942F00202828104E082894FF6AA
:103CD000FD731A408281704782894FF2FF731A4048
:103CE000828182890A4382817047028A4FF6DF739C
:103CF0001A400282028A0A430282704721B1028A74
:103D000042F48042028204E0028A4BF6FF731A40BA
:103D100002827047818941F001018181704721B1A0
:103D2000828A42F00802828204E0828A4FF6F773A8
:103D30001A4082827047028BD2B20283028B42EA1F
:103D400001220283704721B1828A42F020028282DE
:103D500004E0828A4FF6DF731A408282704721B1F5
:103D6000828A42F01002828204E0828A4FF6EF7368
:103D70001A4082827047828A4FF6FB731A40828211
:103D8000828A0A438282704721B1828A42F002020B
:103D9000828204E0828A4FF6FD731A408282704765
:103DA0001AB1838A0B43838202E0838A8B43838226
:103DB0007047F0B50346002400260025002040F699
:103DC0006A17B94200D100BF1846C1F3421401F08E
:103DD0001F06012707FA06F5012C01D10C3004E07B
:103DE000022C01D1103000E014301AB107682F43C3
:103DF000076002E00768AF430760F0BD024600209D
:103E0000B1F5007F00D100BF13880B400BB101203A
:103E100000E00020704701F40072B2F5007F00D18D
:103E200000BFCA430280704770B5024600240023D9
:103E30000025002040F66A16B14200D100BFC1F350
:103E4000421501F01F03012606FA03F3012D13D1D9
:103E50009689334017E00000001001400044004004
:103E600000480040004C0040005000400014014059
:103E700000780040007C0040022D02D1168A3340B9
:103E800001E0968A33400C12012606FA04F41688E3
:103E9000344013B10CB1012000E0002070BD10B51A
:103EA0000022002340F66A14A14200D100BF0A128A
:103EB00001249440A3B2DC43048010BD10B5044635
:103EC000FE48844208D10121084601F0D0F80021C3
:103ED000012001F0CCF89DE0B4F1804F08D1012120
:103EE000084601F0B3F80021012001F0AFF891E09D
:103EF000F348844208D10121022001F0A7F80021F3
:103F0000022001F0A3F885E0EE48844208D10121A7
:103F1000042001F09BF80021042001F097F879E0DB
:103F2000E948844208D10121082001F08FF80021DE
:103F3000082001F08BF86DE0E448844208D10121AB
:103F4000102001F083F80021102001F07FF861E0DB
:103F5000DF48844208D10121202001F077F80021B8
:103F6000202001F073F855E0DA48844208D101219D
:103F7000022001F07CF80021022001F078F849E0ED
:103F8000D548844209D10121080401F070F80021CC
:103F90004FF4803001F06BF83CE0D048844209D106
:103FA0000121480401F063F800214FF4003001F0D2
:103FB0005EF82FE0CA48844209D10121880401F04B
:103FC00056F800214FF4802001F051F822E0C54856
:103FD000844208D10121402001F038F8002140201E
:103FE00001F034F816E0C048844208D10121802055
:103FF00001F02CF80021802001F028F80AE0BB48ED
:10400000844207D10121801501F020F80021A0157C
:1040100001F01CF810BD00220288A84B98420ED077
:10402000AC4B98420BD0B0F1804F08D0A44B9842D3
:1040300005D0A44B984202D0A34B984204D14FF62E
:104040008F731A404B881A43A04B984207D0A04B5D
:10405000984204D04FF6FF431A400B891A4302805E
:104060004B68C3620B880385944B984202D0994BEE
:10407000984201D18B7A03860123838270474FF0E7
:10408000FF314160002101800181418081727047D0
:104090000185828270470A46002101884FF68F739E
:1040A000194011430180704741627047C1627047F7
:1040B0000146486A70470146088D704721B1028861
:1040C00042F00202028004E002884FF6FD731A40BB
:1040D0000280704721B1028842F00402028004E0AD
:1040E00002884FF6FB731A400280704721B10288A4
:1040F00042F08002028004E002884FF67F731A408B
:104100000280704702884FF6F7731A4002800288D7
:104110000A430280704702884FF6FF431A4002802C
:1041200002880A430280704721B1028842F00102EE
:10413000028004E002884FF6FE731A400280704746
:1041400070B5002400220023058C4FF6FE76354022
:104150000584028C8388048B4FF68F752C40B51E26
:104160002C400D882C43751E2A408D892A434D888A
:104170002A43524DA84202D0564DA84213D14FF6C1
:10418000F7752A40CD892A434FF6FB752A408D8862
:104190002A434FF6FF652B404FF6FF552B400D8A03
:1041A0002B434D8A2B43838004838D6845630284AF
:1041B00070BD70B5002400220023058C4FF6EF7609
:1041C00035400584028C8388048B48F6FF752C40AB
:1041D0004FF6FF452C400D884FF6FF7606EA052581
:1041E0002C434FF6DF752A408D8906EA05152A43D0
:1041F0004D8806EA05152A43304DA84202D0354DB8
:10420000A8421DD14FF67F752A40CD894FF6FF7623
:1042100006EA05152A434FF6BF752A408D8806EA3F
:1042200005152A434FF6FF352B404FF2FF752B4003
:104230000D8A06EA85052B434D8A06EA85052B4340
:10424000838004838D688563028470BD70B500240B
:1042500000220023058C4FF6FF6635400584028C52
:104260008388848B4FF68F752C404FF6FC752C405D
:104270000D882C434FF6FF552A408D894FF6FF7667
:1042800006EA05252A434D8806EA05252A430B4DF3
:10429000A84202D00F4DA84238D14FF2FF752A40F4
:1042A000CD894FF6FF7606EA05252A434FF6FF35FE
:1042B0002A408D8806EA05252A4319E000000140BE
:1042C0000004004000080040000C004000100040C6
:1042D000001400400004014000400140004401403F
:1042E0000048014000180040001C00400020004031
:1042F0004EF6FF752B404DF6FF752B400D8A06EAF2
:1043000005152B434D8A06EA05152B4383808483CC
:104310008D68C563028470BD70B50022002300243F
:10432000058C4EF6FF7635400584038C8488828B9D
:1043300048F6FF752A404FF6FF452A400D884FF694
:10434000FF7606EA05252A434DF6FF752B408D8939
:1043500006EA05352B434D8806EA05352B43FE4D0D
:10436000A84202D0FD4DA84208D14BF6FF752C4063
:104370000D8A4FF6FF7606EA85152C4384808283EA
:104380008D680564038470BD0021018041808180B7
:1043900081608181C18101824182704770B503468D
:1043A000002000241846183001258D40ACB21D8C29
:1043B000A5431D8409B108290AD100EB61000568F5
:1043C0004FF68F76354005600568154305600FE0B0
:1043D0000D1FC5F34E052844056848F6FF763540A5
:1043E000056005684FF6FF7606EA0226354305604C
:1043F00070BD4163704781637047C163704701645A
:1044000070470A460021018B4FF68F731940114304
:10441000018370470A460021018B48F6FF7319405B
:104420004FF6FF7303EA02231943018370470A46DC
:104430000021818B4FF68F731940114381837047A0
:104440000A460021818B48F6FF7319404FF6FF732F
:1044500003EA02231943818370470A460021018B36
:104460004FF6F77319401143018370470A46002144
:10447000018B4FF2FF7319404FF6FF7303EA0223DB
:104480001943018370470A460021818B4FF6F77369
:1044900019401143818370470A460021818B4FF2F6
:1044A000FF7319404FF6FF7303EA02231943818318
:1044B00070470A460021018B4FF6FB7319401143E8
:1044C000018370470A460021018B4FF6FF331940E4
:1044D0004FF6FF7303EA02231943018370470A462C
:1044E0000021818B4FF6FB73194011438183704784
:1044F0000A460021818B4FF6FF3319404FF6FF73B8
:1045000003EA02231943818370470A460021018B85
:104510004FF67F7319401143018370470A4600210B
:10452000018BC1F30E014FF6FF7303EA0223194317
:10453000018370470A460021818B4FF67F73194033
:104540001143818370470A460021818BC1F30E011C
:104550004FF6FF7303EA02231943818370470A462B
:104560000021018C4FF6FD731940114301847047FF
:104570000A460021018C4FF6F7731940114301845C
:1045800070470A460021018C4FF6DF7319404FF641
:10459000FF7303EA02131943018470470A4600219E
:1045A000018C4FF67F7319404FF6FF7303EA021335
:1045B0001943018470470A460021018C4FF6FF53CE
:1045C00019404FF6FF7303EA022319430184704731
:1045D0000A460021018C4FF2FF7319404FF6FF731A
:1045E00003EA02231943018470470A460021018C23
:1045F0004DF6FF7319404FF6FF7303EA0233194378
:104600000184704730B5002301248C40A3B2048C90
:104610009C430484048C02FA01F5ADB22C4304845B
:1046200030BD30B5002304248C40A3B2048C9C43DD
:104630000484048C02FA01F5ADB22C43048430BD2D
:10464000828B4FF2FF331A408283828B4FF6FF73C7
:1046500003EA01231A4382837047F0B50C461546DE
:10466000002100220026078C4EF6FF7C07EA0C078B
:104670000784818B028C4FF6FF7707EA043640F6F9
:10468000FF4739404FF6FF7707EA052739434FF6D2
:10469000FF7707EA0337394345F6FF773A4046F498
:1046A00080573A4381830284F0BD828B4FF6F373C7
:1046B0001A408283828B0A4382837047F0B50C468E
:1046C0001546002100220026078C4FF6FF6C07EAF2
:1046D0000C070784818B028C4FF6FF7707EA0426CC
:1046E0004FF60C7739404FF6FF7707EA03172F4351
:1046F00039434FF2FF573A4046F480773A4381837B
:104700000284F0BD028B4FF2FF331A400283028B0A
:104710004FF6FF7303EA01231A4302837047F0B593
:104720000C461546002100220026078C4FF6EF7C30
:1047300007EA0C070784018B028C4FF6FF7707EA24
:10474000041640F6FF4739404FF6FF7707EA033774
:1047500039434FF6FF7703E00000014000040140B9
:1047600007EA052739434FF65F773A4046F01007CE
:104770003A4301830284F0BD028B4FF6F3731A4073
:104780000283028B0A4302837047F0B50C4615463C
:1047900000210022068C4FF6FE773E400684018BF6
:1047A000028C4FF60C7631407E1C06EA03162E432F
:1047B00031434FF6F576324044F00106324301832F
:1047C0000284F0BD70B505460C46208850B9238997
:1047D000A28861882846FFF7D8FFE1882846FFF7BE
:1047E000CBFF25E0208804280AD12389A28861888C
:1047F0002846FFF794FFE1882846FFF783FF17E07C
:10480000208808280AD12389A28861882846FFF7D2
:1048100055FFE1882846FFF748FF09E02389A28871
:1048200061882846FFF719FFE1882846FFF708FF4F
:1048300070BD002101804180012181800021C18063
:10484000018170472DE9F04105460C4600260127FD
:10485000608808B9022600E00026A088012801D15E
:10486000022700E001272088A0B92389A288618857
:104870002846FFF78AFFE1882846FFF77DFF238956
:104880003A4631462846FFF74AFFE1882846FFF7B7
:1048900039FF13E02389A28861882846FFF73FFF8C
:1048A000E1882846FFF72EFF23893A4631462846FD
:1048B000FFF76BFFE1882846FFF75EFFBDE8F08158
:1048C0000146486B70470146886B70470146C86BCC
:1048D00070470146086C70470A884B881A438B88DA
:1048E0001A43CB881A430B891A434B891A438B8985
:1048F0001A43A0F844207047002101804180818044
:10490000C180018141818181704731B1B0F844207B
:1049100042F40042A0F8442005E0B0F84420C2F37D
:104920000E02A0F84420704721B1828842F00402B0
:10493000828004E082884FF6FB731A4082807047C1
:1049400021B1828842F00102828004E082884FF621
:10495000FE731A40828070471AB183890B438381AA
:1049600002E083898B4383817047818270470246CE
:104970000020138A0B400BB1012000E0002070479B
:10498000CA430282704730B502460020002300244B
:10499000158A05EA0103958905EA010413B10CB1F2
:1049A000012000E0002030BDCA430282704741EA86
:1049B0000203A0F8483070471AB183890B43838102
:1049C00002E083898B438381704721B1828842F062
:1049D0000802828004E082884FF6F7731A408280D2
:1049E000704701894FF6F8721140018170470A46FD
:1049F000002101894FF68F731940114301817047DF
:104A000030B504460D4629462046FFF7F0FF2089C1
:104A100040F00700208130BD2DE9F04104460D46ED
:104A200016461F46602D06D13B46012231462046E0
:104A3000FFF775FE05E03B46012231462046FFF7B1
:104A4000A4FE29462046FFF7D2FF208940F0070048
:104A50002081BDE8F08130B50C4600210189C9B242
:104A60004FF6FF7505EA03251543254329430181C8
:104A700030BD2DE9F04105460E4617469846002404
:104A800043463A4631462846FFF7E5FF2C894FF664
:104A9000F870044044F007044FF68F70044044F06F
:104AA00070042C81BDE8F081F0B504460D46164631
:104AB0001F463B46324629462046FFF7CCFF208959
:104AC00040F480402081F0BD82884FF68F731A40F9
:104AD000828082880A438280704702894FF6F87389
:104AE0001A40028102890A430281704702894FF607
:104AF0007F731A40028102890A4302817047F0B530
:104B00000C4615461E460021002200230189028B17
:104B1000038C4FF6F877394021434FF6FC473A4073
:104B200040F201173A434FF6DD773B404FF6FF77EF
:104B300007EA06172F433B43018102830384F0BD3C
:104B400021B1828842F08002828004E082884FF6A0
:104B50007F731A4082807047A0F8501070470000A1
:104B6000F948006840F00100F74908600020F64964
:104B700008310860F4480068F4490840F2490860C8
:104B8000F348091D0860F348EF4984310860F04894
:104B90001038091D0860EC48006820F48020EA49BC
:104BA00008600020E8490C310860E7498C31086052
:104BB00070470021E44A921C11701146087070473A
:104BC00010B501460022002300204A11012A02D11B
:104BD000DD4C236808E0022A03D1DB4C70342368E3
:104BE00002E0D94C7434236801F01F020124944080
:104BF0001C400CB1012000E0002010BD38B50020A1
:104C000000900024002500BF3120FFF7D9FF0546A2
:104C10000098401C00900098B0F5A04F01D0002DE6
:104C2000F2D03120FFF7CCFF08B1012400E00024CE
:104C3000204638BD01460020C34A106820F0F80025
:104C400040EAC10010607047C34908607047002106
:104C5000BD4A703211701170012802D004280AD1A7
:104C600004E00121B84A7032117005E00521B64A0E
:104C70007032117000E000BF00BF7047B749086094
:104C8000704770B5049C41EA82150126C6EB5306B5
:104C900045EA0645054345EA0465AB4E361D3560D9
:104CA00070BDAD4908667047820142EA0172A64BA9
:104CB00084331A607047A8498866704710B583012D
:104CC00043EA016343EA02739F4C8834236010BDBA
:104CD000A14908677047A049C86470470246002090
:104CE000994B0833186820F0EC6042EA010318433E
:104CF000954B08331860704702460020924B0833EA
:104D0000186820F0784042EA010318438E4B0833BC
:104D100018607047014600208B4A0832106820F066
:104D2000030008431060704787480830006800F0AF
:104D30000C00704701460020834A0832106820F0BA
:104D4000F000084310607047014600207E4A083298
:104D5000106820F4E05008431060704701460020BE
:104D6000794A0832106820F4604040EAC1001060BF
:104D70007047F0B5002100220024022500260223FE
:104D8000714F08373F6807F00C0121B1042905D0A5
:104D9000082937D105E0724F076036E0704F076091
:104DA00033E0694F3F1D3F68C7F38056664F3F1D94
:104DB0003F6807F03F036EB1694FB7FBF3F7DFF8C9
:104DC00088C10CF1040CDCF800C0CCF3881C07FB94
:104DD0000CF40CE0624FB7FBF3F7DFF86CC10CF199
:104DE000040CDCF800C0CCF3881C07FB0CF4564F15
:104DF0003F1D3F68C7F301477F1C7D00B4FBF5F7FB
:104E0000076002E0564F076000BF00BF4E4F0837F3
:104E10003F6807F0F0010909524F7A5C0768D740F4
:104E20004760494F08373F6807F4E051890A4D4F02
:104E30007A5C4768D7408760434F08373F6807F47C
:104E40006041490B474F7A5C4768D740C760F0BD67
:104E5000002100F44072B2F5407F0AD13A4A08328C
:104E6000116821F4F811404A02401143364A0832D1
:104E70001160354A70321268C0F30B031A43324B8B
:104E800070331A60704735494439086070473349B8
:104E90004039086070473549086070470146002076
:104EA000294A8C32106820F01F004A1E1043264AFF
:104EB0008C321060704701460020234A8C32106803
:104EC00020F4F8504A1E40EA02201F4A8C3210603B
:104ED0007047014600201C4A8C32106820F44010B4
:104EE00008431060704701460020174A8C32106852
:104EF00020F4400008431060704701460020124A29
:104F00008C32106820F44030084310607047184914
:104F10000860704739B10C4A3032126802430A4BBC
:104F200030331A6006E0084A303212688243064B7A
:104F300030331A607047E9B1034A343212680243D1
:104F4000014B34331A601AE000380240FFFFF6EAE2
:104F5000103000240030002000004742800E4742FD
:104F60000024F40018030020FFFCFF0F5C014742FF
:104F7000E0114742864A12688243854B1A607047A7
:104F800039B1834A121D12680243814B1B1D1A60FE
:104F900006E07F4A121D126882437D4B1B1D1A607A
:104FA000704739B17A4A0C3212680243784B0C339D
:104FB0001A6006E0764A0C3212688243744B0C3356
:104FC0001A60704739B1724A103212680243704B4E
:104FD00010331A6006E06E4A1032126882436C4B3E
:104FE00010331A60704739B1694A243A1268024393
:104FF000674B243B1A6006E0654A243A12688243F4
:10500000634B243B1A60704739B1614A203A1268F9
:1050100002435F4B203B1A6006E05D4A203A12686B
:1050200082435B4B203B1A60704739B1584A1C3AA7
:1050300012680243564B1C3B1A6006E0544A1C3A65
:1050400012688243524B1C3B1A60704739B1504A78
:10505000143A126802434E4B143B1A6006E04C4A65
:10506000143A126882434A4B143B1A60704739B1B4
:10507000474A103A12680243454B103B1A6006E05B
:10508000434A103A12688243414B103B1A60704702
:1050900039B13F4A1C32126802433D4B1C331A603F
:1050A00006E03B4A1C3212688243394B1C331A60BB
:1050B000704739B1364A203212680243344B2033EC
:1050C0001A6006E0324A203212688243304B2033A5
:1050D0001A60704739B12E4A2432126802432C4BB1
:1050E00024331A6006E02A4A243212688243284B8D
:1050F00024331A60704739B1254A2C3212680243B2
:10510000234B2C331A6006E0214A2C32126882436A
:105110001F4B2C331A60704739B11D4A3032126868
:1051200002431B4B30331A6006E0194A30321268D2
:105130008243174B30331A607047704739B1144AB5
:10514000273A12780243124B273B1A7006E0104AA6
:10515000273A127882430E4B273B1A7070470C484F
:105160004030006840F08070094940310860704765
:1051700001460020064A283A12680A400AB1012076
:1051800000E000207047024926390870704700008F
:105190003438024010B50446FE48844209D101214A
:1051A0004806FFF753FF00214FF00070FFF74EFF56
:1051B00008E001218806FFF749FF00214FF08060D9
:1051C000FFF744FF10BD30B50246002000231468ED
:1051D00024F002041460146844F00104146000E038
:1051E0005B1C546804F001041CB94FF6FF74A34221
:1051F000F6D1546804F001040CB900206CE08C79FD
:10520000012C04D1146844F08004146003E0146895
:1052100024F080041460CC79012C04D1146844F08B
:105220004004146003E0146824F0400414600C7A15
:10523000012C04D1146844F02004146003E01468C5
:1052400024F0200414604C7A012C04D1146844F03A
:105250001004146003E0146824F0100414608C7AC5
:10526000012C04D1146844F00804146003E01468AD
:1052700024F008041460CC7A012C04D1146844F0A2
:105280000404146003E0146824F0040414608C78AF
:10529000A407CD7844EA05640D7944EA05444D79C4
:1052A00044EA05540D886D1E2C43D461146824F023
:1052B00001041460002300E05B1C546804F0010446
:1052C0001CB14FF6FF74A342F6D1546804F00104F8
:1052D0000CB1002000E0012030BD10B50021837A20
:1052E000012202FA03F1AC4A126842F00102AA4B11
:1052F0001A60A94A1C3212688A43A74B1C331A60F1
:10530000027BCAB9A44A0C3212688A43A24B0C33FE
:105310001A604288C38842EA03439F4A4032847A33
:1053200042F834300288838842EA03439A4A403282
:10533000847A02EBC4025360027B012A19D1964A97
:105340000C3212680A43944B0C331A60428803886B
:1053500042EA0343904A4032847A42F83430C288A9
:10536000838842EA03438C4A4032847A02EBC402C7
:105370005360C27A3AB9884A121D12688A43864B32
:105380001B1D1A6006E0844A121D12680A43824BF4
:105390001B1D1A60028932B97F4A143212688A438F
:1053A0007D4B14331A600289012A06D17A4A1432DD
:1053B00012680A43784B14331A60427B012A06D1E3
:1053C000754A1C3212680A43734B1C331A60724AC6
:1053D000126822F00102704B1A6010BD0021817129
:1053E000C171017241728172C1728170C1700321F9
:1053F00001710221417101210180704766490968EC
:1054000041F00101644A11601146096843F60E72C9
:105410009143614A11601146096841EA0021116017
:105420001146096821F001011160704721B102683D
:1054300042F48032026003E0026822F480320260AB
:105440007047E1B1026842F0800202604FF4C2721C
:10545000125842F480734FF4C27213504FF4CA7260
:10546000125842F480734FF4CA7213504FF4D27240
:10547000125842F480734FF4D27213501BE002684A
:1054800022F0800202604FF4C272125822F480733C
:105490004FF4C27213504FF4CA72125822F4807340
:1054A0004FF4CA7213504FF4D272125822F4807320
:1054B0004FF4D2721350704710B502460020936823
:1054C00003F08063B3F1806F00D110E0936803F0C4
:1054D0000063B3F1006F01D1012008E0936803F08D
:1054E0008053B3F1805F01D1022000E00420042842
:1054F00079D002F5C07303EB00131B6803F00104BD
:1055000002F5C07303EB00131C600B7A7BB94B7A76
:105510000C8843EA445302F5C07404EB0014246879
:10552000234302F5C07404EB0014236010E00B7AEF
:105530004C6843EAC4034C7A234302F5C07404EB7D
:1055400000142468234302F5C07404EB00142360A4
:105550008B7A03F00F038B7202F5C07303EB001319
:105560005B6823F00F0402F5C07303EB00135C606B
:1055700002F5C07303EB00135B688C7A234302F5DA
:10558000C07404EB001463608B7B1C064B7B44EA05
:10559000034403E000640040006600400B7B44EAE3
:1055A0000323CC7A234302F5C07404EB0014A360F8
:1055B0008B7C1C064B7C44EA03440B7C44EA0323AB
:1055C000CC7B234302F5C07404EB0014E36002F5C6
:1055D000C07303EB00131B6843F0010402F5C073B2
:1055E00003EB00131C6010BD10B50246002321B16F
:1055F000012907D002290FD109E09068F94C00EA8F
:1056000004030BE09068F84C00EA040306E090689D
:10561000F64C00EA040301E0002300BF00BFF44C95
:10562000181BA34216D007DC83B16FF080601844CA
:1056300070B1022818D111E0B0F5007F10D0ED4C08
:10564000204448B1B0F5003F0ED10BE002230DE03D
:1056500000230BE0002309E0002307E0012305E01D
:10566000012303E0012301E0002300BF00BFD8B203
:1056700010BD21B1012907D002290FD109E08268AC
:1056800042F0800282600AE0826842F40042826056
:1056900005E0826842F40002826000E000BF00BFC3
:1056A000704710B500F5D87303EB01131B6803F0C6
:1056B00004031372137A53B900F5D87303EB011383
:1056C0001B6840F2FF7404EA5353136009E000F5CD
:1056D000D87303EB01131B686FF0604404EAD30333
:1056E000536000F5D87303EB01131B6803F002034A
:1056F000537200F5D87303EB01135B6803F00F03DB
:10570000937200F5D87303EB01135B681B0AD37423
:1057100000F5D87303EB01139B68D37200F5D873BF
:1057200003EB01139B681C0A147300F5D87303EB99
:1057300001139B681C0C547300F5D87303EB011321
:105740009B681B0E937300F5D87303EB0113DB68A2
:10575000D37300F5D87303EB0113DB681C0A1474D0
:1057600000F5D87303EB0113DB681C0C547400F5CF
:10577000D87303EB0113DB681B0E937421B9C36864
:1057800043F02003C36003E0036943F02003036197
:1057900010BD21B9C26842F02002C26003E0026974
:1057A00042F02002026170470246002019B9D36816
:1057B00003F0030006E0012903D1136903F003009D
:1057C00000E00020704710B502460B4600204FF65F
:1057D000FF71BBB9146824F0020444F001041460A2
:1057E00000E0491E546804F00304012C01D0002994
:1057F000F7D1546804F00304012C01D0002032E0FA
:10580000012030E0012B13D1146824F0030414604C
:1058100000E0491E546804F003040CB10029F8D1DB
:10582000546804F003040CB100201CE001201AE0CD
:10583000022B17D1146824F0010444F00204146010
:1058400000E0491E546804F00304022C01D0002932
:10585000F7D1546804F00304022C01D0002002E0C8
:10586000012000E0002010BD014600200A6822F05F
:10587000010242F002020A604A6802F00302022AB0
:1058800000D10120704701464FF6FF7200200B68DF
:1058900023F002030B6000E0521E4B6803F002038A
:1058A000022B01D1002AF7D14B6803F00203022B2F
:1058B00000D001207047014600208A6902F0700084
:1058C0007047014600208A69100E7047014600208B
:1058D0008A69C2F3074070471AB143690B434361B9
:1058E00002E043698B434361704710B502460020D4
:1058F00001F4700343B19369C1F3130423400BB166
:1059000001202DE000202BE001F0807343B15368AB
:10591000C1F3130423400BB1012021E000201FE05C
:1059200001F0006343B19368C1F3130423400BB14A
:10593000012015E0002013E001F0007343B1D368AB
:10594000C1F3130423400BB1012009E0002007E05C
:105950001369C1F3130423400BB1012000E00020C0
:1059600010BD0022244B994202D10023836111E033
:10597000C1F3130201F000730BB1C2600AE001F041
:1059800080630BB1026105E001F000630BB182603E
:1059900000E0426070470246002002EA01030BB1BA
:1059A000012000E00020704770B504460D46002637
:1059B00060692840002872D0B5F5807F69D01DDC71
:1059C000082D42D006DC012D2DD0022D31D0042D22
:1059D0007FD134E0102D3ED0202D42D0402D78D103
:1059E00045E000000300000400030008000003106D
:1059F000000100080001FFF77000F030B5F5004F1E
:105A000061D009DCB5F5007F4AD0B5F5806F4DD087
:105A1000B5F5006F5DD150E0B5F5803F2DD0B5F5FF
:105A2000003F56D12FE0A0685549FFF7B4FF064666
:105A300051E0E0680321FFF7AEFF06464BE0E06867
:105A40000821FFF7A8FF064645E0E0681021FFF7B0
:105A5000A2FF06463FE020690321FFF79CFF0646B0
:105A600039E020690821FFF796FF064633E02069F8
:105A70001021FFF790FF06462DE060680821FFF730
:105A80008AFF064627E060681021FFF784FF06467C
:105A900021E0A0690121FFF77EFF06461BE01BE025
:105AA000A0690221FFF777FF064614E0A0690421F0
:105AB000FFF771FF06460EE00BE0A0697021FFF7CB
:105AC0006AFF064607E060680421FFF764FF0646A8
:105AD00001E0002600BF00E00026304670BDB1F5B1
